:100000000C944C000C946B000C946B000C946B00E3
:100010000C946B000C946B000C946B000C946B00B4
:100020000C946B000C946B000C946B000C940B0CF8
:100030000C946B000C940C020C946B000C946B00F1
:100040000C9489040C946B000C946B000C946B0062
:100050000C949E090C94B10B0C946B000C946B00E7
:100060000C946B000C946B000C946B000C946B0064
:100070000C94C9090C94DA0B0C946B000C946B0073
:100080000C94AD010C946B000C946B006364696E6E
:100090006F70737578585B0011241FBECFEFD0E4EA
:1000A000DEBFCDBF13E0A0E0B1E0ECEFFAE200E08C
:1000B0000BBF02C007900D92A835B107D9F723E016
:1000C000A8E5B3E001C01D92AE3DB207E1F70E9482
:1000D0006D000C947C150C9400000E94FE0582E3D8
:1000E00091E00E9415060E948F070E94AE000E94B8
:1000F000F7030E9441020E94FE057894C4E08091BB
:10010000810390918203A0918303B0918403892B92
:100110008A2B8B2BF1F082B18C2782B980917D03E1
:1001200090917E03A0917F03B09180030196A11D61
:10013000B11D80937D0390937E03A0937F03B093C2
:100140008003109281031092820310928303109215
:1001500084030E94780B0E94A903D1CFCF93DF9331
:1001600000D0CDB7DEB711B811B81AB80A9A089AFC
:10017000559A129A109A5D9A129A109A5D9A1A825A
:10018000198289819A81883C91057CF510928F03B0
:1001900010929003109291031092920380918F031A
:1001A00090919003A0919103B09192038E3F95415D
:1001B000A105B105A0F480918F0390919003A091C7
:1001C0009103B09192030196A11DB11D80938F03FD
:1001D00090939003A0939103B0939203DFCF898112
:1001E0009A8101969A838983CCCF129810985D9852
:1001F0001092790310927A0310927B0310927C0381
:1002000010927D0310927E0310927F031092800360
:100210001092750310927603109277031092780370
:100220000F900F90DF91CF9108951F93CF93DF939D
:10023000182FEB0177FF07C087E391E0DF91CF91A3
:100240001F910C94F90ECB0164E670E00E94DA0C69
:10025000C81BD90BDF93CF9322E531E03F932F9357
:100260000E94E70E0F900F900F900F90123519F02B
:10027000113409F069C0209711F40A9801C00A9A54
:10028000AE01662757FD6095762F40932E0150935F
:100290002F016093300170933101193521F42097BB
:1002A00031F4089805C0113409F051C0F8CF089A0C
:1002B000CE0164E670E00E94DA0CAB01662757FDC0
:1002C0006095762F40932601509327016093280173
:1002D00070932901173431F4209739F4559810920E
:1002E0006F000DC01134A9F5F7CF559A82E08093C5
:1002F0006F00C13A8FE0D80714F0C0EADFE0AE012A
:10030000662757FD6095762F40932A0150932B0165
:1003100060932C0170932D011C161D06D4F423E16B
:100320002C9FC0012D9F900D1124909387008093E6
:10033000860080918600909187009695879590938E
:1003400089008093880005C0193509F4A8CF1734B7
:1003500019F2DF91CF911F9108951F920F920FB65E
:100360000F9211240BB60F922F933F934F935F93ED
:100370006F937F938F939F93AF93BF93EF93FF936D
:100380006091890370918A0380918B0390918C0313
:100390006F5F7F4F8F4F9F4F6093890370938A03E6
:1003A00080938B0390938C03209126013091270139
:1003B00040912801509129010E94EE0C672B682B77
:1003C000692BB9F482B191E0892782B980917503D4
:1003D00090917603A0917703B09178030196A11DC7
:1003E000B11D8093750390937603A0937703B09328
:1003F0007803FF91EF91BF91AF919F918F917F9182
:100400006F915F914F913F912F910F900BBE0F9085
:100410000FBE0F901F9018951F920F920FB60F925C
:1004200011248F939F93AF93BF9380917903909101
:100430007A03A0917B03B0917C030196A11DB11DAD
:100440008093790390937A03A0937B03B0937C030A
:10045000BF91AF919F918F910F900FBE0F901F9002
:10046000189582E00E94A207811103C00E94780BB8
:10047000F8CF0895462FBC0182E00E94AE0B0C9489
:10048000310240E855E260E070E082E00E94BD0A7F
:1004900040E263E973E082E00E949B0968E170E05A
:1004A00084E791E00E943A026BE170E08DE891E010
:1004B0000C943A020F931F93CF93DF93CDB7DEB71F
:1004C000A4970FB6F894DEBF0FBECDBF9E012F5D7F
:1004D0003F4F3F932F932D5F3F4F3F932F932150DB
:1004E00031093F932F9329EA31E03F932F939F9354
:1004F0008F930E94550F8AA18F9389A18F938CA10E
:100500001F928F938BA11F928F9382EB91E09F9309
:100510008F938E010F5F1F4F1F930F930E94260F23
:10052000BC01C8010E943A028CA19FE9980F0FB646
:10053000F894DEBF0FBECDBF9A3110F490E201C037
:1005400090E0891B8CA3873411F118F48134F9F001
:1005500004C08235E1F08935D1F067E170E085ECC7
:1005600091E00E943A028CA11F928F938DED91E051
:100570009F938F930E94E70E6BE170E08DE891E00E
:100580000E943A020F900F900F900F90D7C09BA13E
:100590009A3509F48DC028F4903589F0943551F0DE
:1005A000C1C0943739F09A3709F482C0903709F006
:1005B000B9C005C069A17AA10E941501B9C08734EC
:1005C00009F453C080F5813409F06DC0809178033F
:1005D0008F93809177038F93809176038F9380918F
:1005E00075038F9380917C038F9380917B038F930E
:1005F00080917A038F93809179038F938091800308
:100600008F9380917F038F9380917E038F9380914E
:100610007D038F938AE192E09F938F931F930F93B3
:100620000E94260F36C0823589F08935E1F5809128
:1006300078038F93809177038F93809176038F93C4
:10064000809175038F9389E092E01DC080918003B3
:100650008F9380917F038F9380917E038F938091FE
:100660007D038F9387EE91E00EC080917C038F9382
:1006700080917B038F9380917A038F93809179038C
:100680008F9388EF91E09F938F931F930F930E9416
:10069000260FBC01C8010E943A020FB6F894DEBFD3
:1006A0000FBECDBF45C06BE170E086E392E03EC077
:1006B000873409F198F4813481F510927503109212
:1006C00076031092770310927803109279031092B8
:1006D0007A0310927B0310927C0316C08235A1F03E
:1006E0008935D9F41092750310927603109277032E
:1006F000109278031DC01092790310927A03109221
:100700007B0310927C0314C010927D0310927E0331
:1007100010927F03109280030BC06BE170E082E5C2
:1007200092E004C06BE170E08EE692E00E943A0233
:100730006BE170E08DE891E00E943A02A4960FB65A
:10074000F894DEBF0FBECDBFDF91CF911F910F9107
:100750000895CF93DF93CDB7DEB7A0970FB6F89487
:10076000DEBF0FBECDBF82E00E9492079091B3031F
:1007700020918D0330918E038917D9F0A1E0B0E06C
:10078000AC0FBD1FA20FB31FE92FF0E0ED56FC4FD9
:1007900080818C932F5F3F4F30938E0320938D0386
:1007A0009F3119F41092B303DECF9F5F9093B30390
:1007B000DACF2115310591F02130310559F0E1E012
:1007C000F0E0EC0FFD1FE20FF31F1082CE01019647
:1007D0000E945A0210928E0310928D03A0960FB6BB
:1007E000F894DEBF0FBECDBFDF91CF910895CF93B8
:1007F0008AE892E00E94F90E82E884BD84E085BD1B
:100800008EE487BDC2E0C0936E0010928503109203
:100810008603109287031092880380E880939000EB
:100820008BE080939100E8E9F0E082E19AE7918320
:100830008083808191811F9284E68F931F921F9203
:1008400083EC92E09F938F930E94E70EC093710018
:100850001092890310928A0310928B0310928C03DA
:1008600082EA8093800085E18093810080912D0150
:100870008F9380912C018F9380912B018F93809186
:100880002A018F938CEF92E09F938F930E94E70E43
:1008900020912A0130912B0143E1429FC001439FE7
:1008A000900D1124E6E8F0E09183808380819181AE
:1008B00096958795E8E8F0E091838083C0936F0078
:1008C000808191819F938F938EE093E09F938F938C
:1008D0000E94E70E80912D018F9380912C018F93C0
:1008E00080912B018F9380912A018F931F9283E334
:1008F0008F9380E293E09F938F930E94E70E8DB7D2
:100900009EB748960FB6F8949EBF0FBE8DBFCF918D
:1009100008951F920F920FB60F9211240BB60F92EB
:100920002F933F934F935F936F937F938F939F93F7
:10093000AF93BF93EF93FF9360918503709186030C
:1009400080918703909188036F5F7F4F8F4F9F4FF8
:100950006093850370938603809387039093880345
:1009600020912E0130912F014091300150913101A1
:100970000E94EE0C672B682B692B61F481E090E0FC
:10098000A0E0B0E08093810390938203A09383035F
:10099000B0938403FF91EF91BF91AF919F918F919D
:1009A0007F916F915F914F913F912F910F900BBE6F
:1009B0000F900FBE0F901F90189580E090E0089563
:1009C00081E090E06F9364E06A95F1F76F91019791
:1009D000C9F708950F931F93CF93DF9317B13D98F5
:1009E0002898299AC0E0D0E00E94E0042A9A0E9448
:1009F000E00406B12A980E94E0042A9A0E94E004CA
:100A00002A98249605FF10C09E0140E050E0809196
:100A10005C0390915D03A0915E03B0915F03281782
:100A200039074A075B0700F39E0140E050E08091E0
:100A30005C0390915D03A0915E03B0915F03281762
:100A400039074A075B0728F082E390E0A0E0B0E0B6
:100A500004C080E395E7A0E0B0E080935C0390934E
:100A60005D03A0935E03B0935F0317B9DF91CF914D
:100A70001F910F91089528B190E08F709070880FAA
:100A8000991F880F991F237C282B28B92A9A0E9426
:100A9000E0042A980E94E0040895A2E0B0E0E3E5B3
:100AA000F5E00C94280D182F4A8369830E94C8052D
:100AB0000E94EA04F7B008B1299869814A81662347
:100AC00011F0289A01C0289887B18C6387B941300A
:100AD00029F0812F82958F700E943B05812F8F70A6
:100AE0000E943B05F7B808B92296E5E00C94440D46
:100AF00060E042E00E944D05089561E042E00E94FE
:100B00004D05089560E041E00E944D0508953D982F
:100B1000459A80E395E7A0E0B0E080935C03909372
:100B20005D03A0935E03B0935F03209A219A229AFB
:100B30008EE190E00E94530C83E00E94820586E0E3
:100B400090E00E94530C83E00E94820582E090E0D6
:100B50000E94530C83E00E94820582E090E00E9494
:100B6000530C82E00E94820582E090E00E94530CC8
:100B700088E20E94780588E00E94780581E00E9462
:100B8000780586E00E9478058CE00E94780508953B
:100B900080916003882329F481E0809360030E94A0
:100BA0008705089581E00E9478058091580390910F
:100BB0005903009711F1A0E0B0E208C0E09158039A
:100BC000F0915903E20FF31FB083AF5F2A2F30E09B
:100BD0008091000190E001976091010170E0869F93
:100BE000A001879F500D969F500D112424173507A3
:100BF0002CF310925B0310925A0308950E94D205C1
:100C00000895EF92FF92CF93DF93E82EE7017E01E4
:100C1000F92EE70102C00E947D0589918823D9F74A
:100C2000DF91CF91FF90EF9008950E940106089503
:100C3000A5E0B0E0EEE1F6E00C942A0D182F80E874
:100C4000898380EC8A8384E98B8384ED8C83FE0125
:100C5000E60FF11D8181810F6D830E94780510934D
:100C60005B036D8160935A032596E3E00C94460D77
:100C7000A0E0B0E0EEE3F6E00C94250DD82E8091D4
:100C8000580390915903009709F4FAC02D2D2A308A
:100C900009F443C02830C9F480915B0381508093EC
:100CA0005B038F3F51F480915A03815080935A0324
:100CB00080910101815080935B0380915A038F3FA3
:100CC00009F0D8C010925A03D3C08D2D0E947D0523
:100CD00080915A038823B9F090E001974091010177
:100CE00050E0849F9001859F300D949F300D11241A
:100CF00080915B03E0915803F0915903E20FF31FD9
:100D0000E80FF11DD08280915B038F5F80935B03BE
:100D100090910101891709F0B3C040915A03242F23
:100D200030E08091000190E001972817390709F021
:100D30009CC0C0E0D0E041C080E06C2F0E9418064B
:100D4000CC248E010F5F1F4F33C0EC2CFF2430E00A
:100D5000C29FC001C39F900DD29F900D1124E091BE
:100D60005803F0915903EE0DFF1DE80FF91F808124
:100D70000E947D05809158039091590320910101B3
:100D800030E0C29FF001C39FF00DD29FF00D1124FF
:100D90008E0D9F1DE80FF91F029FD001039FB00D1C
:100DA000129FB00D1124A80FB91F8C918083C3949A
:100DB00020910101C21648F2E80160910001862FDE
:100DC00090E00297C817D9070CF4B6CF6230E0F173
:100DD000625080E00E94180600E010E231C0C02F8F
:100DE000D0E08091000190E0029750E0849F900154
:100DF000859F300D949F300D1124E0915803F091A0
:100E00005903EC0FFD1FE20FF31F80810E947D0547
:100E10008091000190E002974091010150E0849F91
:100E20009001859F300D949F300D1124E09158035F
:100E3000F0915903EC0FFD1FE20FF31F10830F5FBA
:100E400040910101041758F260910001615080E067
:100E50000E94180610E004C080E20E947D051F5F1A
:100E6000809101011817C0F303C04F5F40935A03EC
:100E700010925B0380915B0360915A030E941806F5
:100E80002D2D332727FD3095C901CDB7DEB7E8E01A
:100E90000C94410D8091580390915903009711F0E3
:100EA0000E940D0E2091000130E0215030408091D1
:100EB000010190E0AC01249FC001259F900D349F5B
:100EC000900D11240E94750D90935903809358033F
:100ED000009721F1A0E0B0E208C0E0915803F09142
:100EE0005903E20FF31FB083AF5F2A2F30E08091E8
:100EF000000190E001976091010170E0869FA001E0
:100F0000879F500D969F500D1124241735072CF301
:100F100088E396E06DED74E00E949C0E08950E94B7
:100F20004A070895282F30E0F901EE0FFF1F43E034
:100F3000220F331F4A95E1F7E20FF31FEE5FFE4FDA
:100F400082810895282F30E0F901EE0FFF1F73E032
:100F5000220F331F7A95E1F7E20FF31FEE5FFE4F8A
:100F60004181282F30E0F901EE0FFF1F53E0220FDF
:100F7000331F5A95E1F7E20FF31FEE5FFE4F81E05A
:100F80009381491380E00895282F30E0F901EE0F96
:100F9000FF1FB3E0220F331FBA95E1F7E20FF31FF3
:100FA000EE5FFE4F408551854115510509F452C051
:100FB000282F30E0F901EE0FFF1F73E0220F331FDF
:100FC0007A95E1F7E20FF31FEE5FFE4F7281282F53
:100FD00030E0F901EE0FFF1FB3E0220F331FBA9587
:100FE000E1F7E20FF31FEE5FFE4F9481791790F562
:100FF000282F30E0F901EE0FFF1F73E0220F331F9F
:101000007A95E1F7E20FF31FEE5FFE4F9281490FF1
:10101000511DFA016083282F30E0F901EE0FFF1F08
:1010200053E0220F331F5A95E1F7E20FF31FEE5FF3
:10103000FE4F92819F5F282F30E0F901EE0FFF1FD6
:10104000B3E0220F331FBA95E1F7E20FF31FEE5F13
:10105000FE4F9283282F30E0F901EE0FFF1F73E05F
:10106000220F331F7A95E1F7E20FF31FEE5FFE4F79
:101070004281282F30E0F901EE0FFF1F53E0220FCD
:10108000331F5A95E1F7E20FF31FEE5FFE4F948195
:10109000491701F5282F30E0F901EE0FFF1F93E00B
:1010A000220F331F9A95E1F7E20FF31FEE5FFE4F19
:1010B0009581992379F0282F30E0F901EE0FFF1F79
:1010C000B3E0220F331FBA95E1F7E20FF31FEE5F93
:1010D000FE4F128208950F931F93182F823009F448
:1010E00075C0882319F4E1ECF0E002C0E9ECF0E00F
:1010F00080818F778083812F90E0FC01EE0FFF1FAE
:1011000003E0880F991F0A95E1F7E80FF91FEE5FDA
:10111000FE4F808591850097A9F1212F30E0F901DC
:10112000EE0FFF1FA3E0220F331FAA95E1F7E20F96
:10113000F31FEE5FFE4F9281212F30E0F901EE0F99
:10114000FF1F63E0220F331F6A95E1F7E20FF31FE1
:10115000EE5FFE4F84819817A8F4112319F4E0EC98
:10116000F0E002C0E8ECF0E0808187FF0BC01123C3
:1011700019F4E6ECF0E002C0EEECF0E06081812FC3
:101180000E94C407212F30E0F901EE0FFF1F43E05A
:10119000220F331F4A95E1F7E20FF31FEE5FFE4F78
:1011A0008081882309F059C0112319F4E1ECF0E0A3
:1011B00002C0E9ECF0E08081806880834EC08091BD
:1011C0001B01882319F01092180147C080911E015D
:1011D00090911F01009709F440C0909118018091EF
:1011E0001A019817D0F5809161038823A9F40E9411
:1011F0005B0C8093610310E00BC00E94560CE02F43
:10120000F0E03197E11BF109EE59FC4F80831F5F3D
:1012100000916103101788F3A0916103AA23E9F0FC
:1012200080911801E0911E01F0911F01E80FF11D5E
:10123000A150A0936103B0E0AE59BC4F8C91808364
:10124000809118018F5F809318019091180180910F
:101250001A01981709F0BACFB2CF1F910F910895D4
:10126000823051F0882319F4E1ECF0E002C0E9EC9F
:10127000F0E090819F779083A82FB0E0FD01EE0F02
:10128000FF1F53E0AA0FBB1F5A95E1F7EA0FFB1FA0
:10129000EE5FFE4F71876087682F70E0FB01EE0FF5
:1012A000FF1F93E0660F771F9A95E1F7E60FF71F90
:1012B000EE5FFE4F1282682F70E0FB01EE0FFF1F02
:1012C000A3E0660F771FAA95E1F7E60FF71FEE5F21
:1012D000FE4F4483482F50E0FA01EE0FFF1F63E0FA
:1012E000440F551F6A95E1F7E40FF51FEE5FFE4FBF
:1012F00025838230D9F0282F30E0F901EE0FFF1F4F
:1013000043E0220F331F4A95E1F7E20FF31FEE5F30
:10131000FE4F9081992351F4882319F4E1ECF0E019
:1013200002C0E9ECF0E0808180688083089521E0CC
:101330000E94300908950E94970908951F920F9204
:101340000FB60F920BB60F9211242F933F934F932A
:101350005F936F937F938F939F93AF93BF93EF931D
:10136000FF936091C60080E00E94C407FF91EF9157
:10137000BF91AF919F918F917F916F915F914F91AD
:101380003F912F910F900BBE0F900FBE0F901F90AB
:1013900018951F920F920FB60F920BB60F92112451
:1013A0002F933F934F935F936F937F938F939F936D
:1013B000AF93BF93EF93FF936091CE0081E00E94C3
:1013C000C407FF91EF91BF91AF919F918F917F9152
:1013D0006F915F914F913F912F910F900BBE0F90A6
:1013E0000FBE0F901F901895882319F4E1ECF0E0E0
:1013F00002C0E9ECF0E08081806280830895882358
:1014000019F4E1ECF0E002C0E9ECF0E080818F7DBE
:1014100080830895282F30E0F901EE0FFF1F93E03D
:10142000220F331F9A95E1F7E20FF31FEE5FFE4F95
:101430002681378121153105A1F1282F30E0F901EE
:10144000EE0FFF1FA3E0220F331FAA95E1F7E20F73
:10145000F31FEE5FFE4F4181282F30E0F901EE0FC0
:10146000FF1F63E0220F331F6A95E1F7E20FF31FBE
:10147000EE5FFE4F93814917A0F4282F30E0F90169
:10148000EE0FFF1F43E0220F331F4A95E1F7E20FF3
:10149000F31FEE5FFE4F9081992319F40E94F40927
:1014A00008950E94FF090895823031F1282F30E01D
:1014B000F901EE0FFF1F53E0220F331F5A95E1F79A
:1014C000E20FF31FEE5FFE4F9081992349F48823CA
:1014D00019F4E1ECF0E002C0E9ECF0E098E908C0B2
:1014E000882319F4E1ECF0E002C0E9ECF0E098E1C7
:1014F00090830E940A0A78940895882319F0813015
:1015000041F404C080E00E94540A089581E00E94E2
:10151000540A0895A0E0B0E0E0E9FAE00C94260D4A
:10152000D82E7A018B010E947D0A8D2D823001F127
:10153000DD2019F4C4ECD0E002C0CCECD0E0C8014E
:10154000B70128EF3FEF4FEF5FEF0E94CA0C6050EA
:10155000734D8E4C9E4FA8019701E4E0220F331F7C
:10156000441F551FEA95D1F70E94EE0C398328835A
:10157000CDB7DEB7E7E00C94420D0E948A0A0895C9
:10158000282F30E0F901EE0FFF1F73E0220F331F09
:101590007A95E1F7E20FF31FEE5FFE4F4681578128
:1015A0004115510509F465C0282F30E0F901EE0F0F
:1015B000FF1F93E0220F331F9A95E1F7E20FF31F0D
:1015C000EE5FFE4F6181282F30E0F901EE0FFF1F23
:1015D000A3E0220F331FAA95E1F7E20FF31FEE5F9E
:1015E000FE4F9381691708F044C0882319F4E0EC9A
:1015F000F0E002C0E8ECF0E0908195FF3AC088236B
:1016000019F4A6ECB0E002C0AEECB0E0282F30E058
:10161000F901EE0FFF1F63E0220F331F6A95E1F718
:10162000E20FF31FEE5FFE4F9181490F511DFA014A
:1016300090819C93282F30E0F901EE0FFF1F93E07B
:10164000220F331F9A95E1F7E20FF31FEE5FFE4F73
:1016500091819F5F282F30E0F901EE0FFF1FA3E07B
:10166000220F331FAA95E1F7E20FF31FEE5FFE4F43
:1016700091830E940A0A08951F93182F823031F037
:101680000E94FF09812F0E94C00A1DC080911C0189
:1016900090911D010097B9F0309117012091190127
:1016A000321788F406C0809117018F5F809317016D
:1016B000EDCF20911701820F911DFC0180810E94C6
:1016C000620C882381F71F91089580E00E943C0BF3
:1016D00081E00E943C0B82E00E943C0B80E00E9473
:1016E0006B0881E00E946B0882E00E946B080895FD
:1016F0000E94650B0895282F30E0F901EE0FFF1FBF
:1017000093E0220F331F9A95E1F7E20FF31FEE5F8C
:10171000FE4F77836683282F30E0F901EE0FFF1F1D
:10172000A3E0220F331FAA95E1F7E20FF31FEE5F4C
:10173000FE4F1182282F30E0F901EE0FFF1F63E00A
:10174000220F331F6A95E1F7E20FF31FEE5FFE4FA2
:101750004383823011F00E940A0A08950E947B0B95
:1017600008951F920F920FB60F920BB60F9211248D
:101770002F933F934F935F936F937F938F939F9399
:10178000AF93BF93EF93FF9380E00E94C00AFF9155
:10179000EF91BF91AF919F918F917F916F915F91E9
:1017A0004F913F912F910F900BBE0F900FBE0F9056
:1017B0001F9018951F920F920FB60F920BB60F92B3
:1017C00011242F933F934F935F936F937F938F9346
:1017D0009F93AF93BF93EF93FF9381E00E94C00A62
:1017E000FF91EF91BF91AF919F918F917F916F91F9
:1017F0005F914F913F912F910F900BBE0F900FBEB5
:101800000F901F9018956F9364E06A95F1F76F91B0
:101810000197C9F708952F928F939F932FB68091C8
:101820006B0390916C03019680936B0390936C0310
:1018300090E080916D03891F80936D0390917303F5
:101840009C5F909373038091720380519742C0F024
:10185000909373038093720380916E0390916F0352
:10186000019680936E0390936F0390E080917003D4
:10187000891F8093700380917103891F8093710386
:101880002FBE9F918F912F901895CF93DF93EC01EE
:1018900005C088EE93E00E94030C21972097C9F7BA
:1018A000DF91CF9108950E94450C08958FEF64E079
:1018B0000E94A50C089583E867E00E94A50C0E9491
:1018C000560C08951F93182F982F9095991F9927BC
:1018D000991F85E8891B65E00E94A50C812F8F77F1
:1018E00065E00E94A50C1F9108956F9364E06A95CE
:1018F000F1F76F910197C9F70895A1E0B0E0E3E82F
:10190000FCE00C942A0D182F249909C02C9907C0CB
:101910002C9A8EE190E069830E94750C698184B1F4
:10192000806A84B92698812F837080656C7A862BB3
:101930008CBD81E012FF80E08DBD81E090E00E94CF
:10194000450C2196E3E00C94460D0F931F93082F4E
:10195000162F0CB406FC04C080E064E00E947D0CED
:101960000CB404FC03C08CB580618CBD0EBD03C0FB
:101970000CB404FE0BC00DB407FEFACF112321F006
:10198000812F90E00E94750C8EB501C080E01F9100
:101990000F910895DB018F939F930E94100DBF91CB
:1019A000AF91A29F800D911DA39F900DB29F900DAE
:1019B0001124089597FB072E16F4009407D077FDA5
:1019C00009D00E94520D07FC05D03EF490958195F8
:1019D0009F4F0895709561957F4F0895A1E21A2E4B
:1019E000AA1BBB1BFD010DC0AA1FBB1FEE1FFF1FC3
:1019F000A217B307E407F50720F0A21BB30BE40B13
:101A0000F50B661F771F881F991F1A9469F7609559
:101A10007095809590959B01AC01BD01CF01089513
:101A20000E94660DA59F900DB49F900DA49F800D00
:101A3000911D112408952F923F924F925F926F92C1
:101A40007F928F929F92AF92BF92CF92DF92EF924E
:101A5000FF920F931F93CF93DF93CDB7DEB7CA1BCF
:101A6000DB0B0FB6F894DEBF0FBECDBF09942A88FA
:101A7000398848885F846E847D848C849B84AA84A2
:101A8000B984C884DF80EE80FD800C811B81AA812F
:101A9000B981CE0FD11D0FB6F894DEBF0FBECDBFFA
:101AA000ED010895AA1BBB1B51E107C0AA1FBB1F74
:101AB000A617B70710F0A61BB70B881F991F5A95DA
:101AC000A9F780959095BC01CD010895A29FB00122
:101AD000B39FC001A39F700D811D1124911DB29F62
:101AE000700D811D1124911D0895CF93DF938230D5
:101AF000910510F482E090E0E091D603F091D703D5
:101B000020E030E0A0E0B0E0309739F14081518131
:101B100048175907B8F04817590771F48281938123
:101B2000109729F013969C938E9312972CC0909344
:101B3000D7038093D60327C02115310531F0421712
:101B4000530718F0A901DB0101C0EF019A01BD01A3
:101B5000DF010280F381E02DD7CF21153105F9F0A7
:101B6000281B390B2430310580F48A819B81611553
:101B7000710521F0FB019383828304C09093D70306
:101B80008093D603FE01329644C0FE01E20FF31F9C
:101B90008193919322503109398328833AC020914F
:101BA000D4033091D503232B41F4209122013091AD
:101BB00023013093D5032093D40320912001309149
:101BC00021012115310541F42DB73EB74091240183
:101BD00050912501241B350BE091D403F091D503DE
:101BE000E217F307A0F42E1B3F0B2817390778F0F4
:101BF000AC014E5F5F4F2417350748F04E0F5F1F53
:101C00005093D5034093D4038193919302C0E0E0B5
:101C1000F0E0CF01DF91CF910895CF93DF9300974C
:101C200009F487C0FC01329713821282C091D60357
:101C3000D091D703209781F420813181280F391F5B
:101C40008091D4039091D5038217930779F5F0938F
:101C5000D503E093D4036DC0DE0120E030E0AE1781
:101C6000BF0750F412964D915C9113979D01411559
:101C7000510509F1DA01F3CFB383A2834081518189
:101C8000840F951F8A179B0771F48D919C91119772
:101C9000840F951F02969183808312968D919C915B
:101CA0001397938382832115310529F4F093D70389
:101CB000E093D6033EC0D9011396FC93EE9312979E
:101CC0004D915D91A40FB51FEA17FB0779F4808150
:101CD0009181840F951F0296D90111969C938E9342
:101CE0008281938113969C938E931297E0E0F0E0AB
:101CF0008A819B81009719F0FE01EC01F9CFCE019A
:101D0000029628813981820F931F2091D40330914C
:101D1000D5032817390769F4309729F41092D703AF
:101D20001092D60302C013821282D093D503C093BF
:101D3000D403DF91CF9108950F931F93CF93DF9337
:101D4000EC018B01009731F46115710519F480E005
:101D500090E038C06EE070E081E090E00E944614B0
:101D6000FC010097A1F380E883830115110571F050
:101D70001387028781E883838091D8039091D903E8
:101D8000892B21F4F093D903E093D8032097C9F06D
:101D9000D187C0878381826083838091DA039091A9
:101DA000DB03892B71F4F093DB03E093DA0380917A
:101DB000DC039091DD03892B21F4F093DD03E093A4
:101DC000DC03CF01DF91CF911F910F910895CF9345
:101DD000DF93CDB7DEB7FE01359661917191AF010A
:101DE0008091DA039091DB030E94770FDF91CF910E
:101DF00008950F931F93CF93DF93E091DA03F0914F
:101E0000DB03238121FF1BC0EC0100E010E089917E
:101E10006091DA037091DB03DB011896ED91FC9180
:101E20001997882331F00995892B89F30FEF1FEF5C
:101E3000EECF8AE00995892B11F4C80102C08FEF1B
:101E40009FEFDF91CF911F910F9108950F931F93F3
:101E5000CF93DF93CDB7DEB72E970FB6F894DEBFE2
:101E60000FBECDBF0D891E8986E08C831A8309833E
:101E70008FEF9FE79E838D83AE01475E5F4F6F8933
:101E8000788DCE0101960E94770FEF81F885E00FE3
:101E9000F11F10822E960FB6F894DEBF0FBECDBF95
:101EA000DF91CF911F910F910895CF93DF93CDB71D
:101EB000DEB72E970FB6F894DEBF0FBECDBF85E01C
:101EC0008C838B899C899A838983AE01495E5F4F9D
:101ED0006D897E89CE0101960E940F132E960FB652
:101EE000F894DEBF0FBECDBFDF91CF9108952F9242
:101EF0003F924F925F926F927F928F929F92AF929A
:101F0000BF92CF92DF92EF92FF920F931F93CF93E6
:101F1000DF93CDB7DEB72C970FB6F894DEBF0FBEB8
:101F2000CDBF7C016B018A01FC011782168283817F
:101F300081FFBDC1CE0101964C01F7019381F601ED
:101F400093FD859193FF81916F01882309F4ABC1C3
:101F5000853239F493FD859193FF81916F0185322C
:101F600029F4B70190E00E94D014E7CF512C312C16
:101F700020E02032A0F48B3269F030F4803259F046
:101F8000833269F420612CC08D3239F0803339F40A
:101F9000216026C02260246023C0286021C027FD64
:101FA00027C030ED380F3A3078F426FF06C0FAE04B
:101FB0005F9E300D1124532E13C08AE0389E300DE1
:101FC0001124332E20620CC08E3221F426FD6BC109
:101FD000206406C08C3611F4206802C0883641F4B3
:101FE000F60193FD859193FF81916F018111C1CF1E
:101FF000982F9F7D9554933028F40C5F1F4FFFE37B
:10200000F9830DC0833631F0833771F0833509F0E1
:102010005BC022C0F801808189830E5F1F4F44247A
:102020004394512C540115C03801F2E06F0E711C1D
:10203000F801A080B18026FF03C0652D70E002C0CA
:102040006FEF7FEFC5012C870E9487142C0183015D
:102050002C852F77222E17C03801F2E06F0E711CED
:10206000F801A080B18026FF03C0652D70E002C09A
:102070006FEF7FEFC5012C870E9475142C012C8512
:102080002068222E830123FC1BC0832D90E048167C
:102090005906B0F4B70180E290E00E94D0143A945F
:1020A000F4CFF50127FC859127FE81915F01B701EF
:1020B00090E00E94D01431103A94F1E04F1A510888
:1020C0004114510471F7E5C0843611F0893639F5B1
:1020D000F80127FF07C060817181828193810C5FC5
:1020E0001F4F08C060817181882777FD8095982FE8
:1020F0000E5F1F4F2F76B22E97FF09C090958095E7
:10210000709561957F4F8F4F9F4F2068B22E2AE0C8
:1021100030E0A4010E941B15A82EA81844C08537E2
:1021200029F42F7EB22E2AE030E025C0F22FF97F6D
:10213000BF2E8F36C1F018F4883579F0B4C08037DF
:1021400019F0883721F0AFC02F2F2061B22EB4FED6
:102150000DC08B2D8460B82E09C024FF0AC09F2FAC
:102160009660B92E06C028E030E005C020E130E0DE
:1021700002C020E132E0F801B7FE07C06081718142
:10218000828193810C5F1F4F06C06081718180E066
:1021900090E00E5F1F4FA4010E941B15A82EA818E7
:1021A000FB2DFF77BF2EB6FE0BC02B2D2E7FA51467
:1021B00050F4B4FE0AC0B2FC08C02B2D2E7E05C020
:1021C0007A2C2B2D03C07A2C01C0752C24FF0DC056
:1021D000FE01EA0DF11D8081803311F4297E09C0D2
:1021E00022FF06C07394739404C0822F867809F08E
:1021F000739423FD13C020FF06C05A2C731418F4E7
:10220000530C5718732C731468F4B70180E290E0F4
:102210002C870E94D01473942C85F5CF731410F47E
:10222000371801C0312C24FF12C0B70180E390E0C1
:102230002C870E94D0142C8522FF17C021FF03C0D9
:1022400088E590E002C088E790E0B7010CC0822FDB
:10225000867859F021FD02C080E201C08BE227FDA3
:102260008DE2B70190E00E94D014A51438F4B701B4
:1022700080E390E00E94D0145A94F7CFAA94F4011E
:10228000EA0DF11D8081B70190E00E94D014A110E9
:10229000F5CF332009F451CEB70180E290E00E94DF
:1022A000D0143A94F6CFF7018681978102C08FEF60
:1022B0009FEF2C960FB6F894DEBF0FBECDBFDF9117
:1022C000CF911F910F91FF90EF90DF90CF90BF9033
:1022D000AF909F908F907F906F905F904F903F90C6
:1022E0002F90089520FD09C0FC0123FD05C022FFA9
:1022F00002C07383628351834083089544FD10C0FC
:1023000046FD10C0DB01FC01AA0FBB1FEE1FFF1F23
:102310001094D1F76A0F7B1F8E1F9F1F31E003C0FF
:1023200033E001C034E0660F771F881F991F3150DA
:10233000D1F7620F711D811D911D08950F931F9399
:10234000CF93DF938C01C8010E949214EC0197FD9A
:1023500008C00E946214892BB1F7B801CE010E9417
:102360000215CE01DF91CF911F910F9108958F92A9
:102370009F92AF92CF92DF92EF92FF920F931F93B3
:10238000CF93DF93EC01A62E4A01022F0E949214F4
:10239000AC0155274B32510521F04D32510551F416
:1023A0000068AA9411F480E067C0CE010E949214E4
:1023B00097FDF9CF102F1D7F302F307301F580333B
:1023C000F1F4FF24FA94FA0C09F442C0CE010E9401
:1023D000921497FD3DC0382F3F7D383551F412647B
:1023E000AA94AA94A9F1CE010E94921497FF07C063
:1023F0002FC006FF02C0126001C01261AF2CC12CB9
:10240000D12C760120ED280F283080F014FF04C075
:10241000BE010E94021519C02A3040F016FFF8CF05
:102420002F7D3FEE320F363098F72750412FC701EE
:10243000B6010E947E116B017C011260AA9459F0D2
:10244000CE010E94921497FFDDCF11FD04C0ABCFE7
:10245000C12CD12C760117FF08C0F094E094D094E1
:10246000C094C11CD11CE11CF11C212FB701A60195
:10247000C4010E94721181E0DF91CF911F910F91F1
:10248000FF90EF90DF90CF90AF909F908F90089546
:102490007F928F929F92AF92BF92CF92DF92EF92F4
:1024A000FF920F931F93CF93DF93CDB7DEB7A19722
:1024B0000FB6F894DEBF0FBECDBF5C017A018E016E
:1024C0000F5F1F4F680180E2D8011D928A95E9F7DE
:1024D000F501738040E050E0812CB0E0912C81E068
:1024E00090E0F90173FCA59173FEA1918F017A2F01
:1024F0009F01A11103C080E090E07DC0AE3519F4CA
:102500004115510559F1E92DF0E0E417F5073CF4C8
:10251000AD3569F1AD3219F4BB2319F103C0B11126
:1025200001C08A2EE72FE695E695E69586010E0F07
:10253000111DF801A72FA7708C0102C0000F111FF9
:10254000AA95E2F7D801B081BA2BB083781559F07B
:10255000781510F47F5FE6CF7150E4CF99249394FF
:1025600003C0B1E001C0B0E04F5F5F4FBACFBB2303
:1025700019F08E8180628E83911003C09924939408
:1025800015C0F601CE018196208120952193E81790
:10259000F907D1F7F3CFE114F10429F0D7018C93B7
:1025A000F70131967F01615001F1912CC50169A3BA
:1025B0000E94921469A197FD16C0282F2695269592
:1025C0002695F601E20FF11D208130E0AC01477045
:1025D000552702C0359527954A95E2F720FDDBCFB8
:1025E000B5010E940215911086CFE114F10411F09B
:1025F000D7011C92C801A1960FB6F894DEBF0FBE9A
:10260000CDBFDF91CF911F910F91FF90EF90DF90A1
:10261000CF90BF90AF909F908F907F9008954F92F2
:102620005F927F928F929F92AF92BF92CF92DF92F2
:10263000EF92FF920F931F93CF93DF931F92CDB72B
:10264000DEB78C012B017A01FC0117821682A12CC6
:10265000F801D380F201D3FC8591D3FE8191382F0C
:102660002F01882309F4FCC090E039830E94621492
:102670003981892B21F0C8010E949E11E9CF3532A2
:1026800041F4F201D3FC3591D3FE31912F01353263
:1026900069F4C80139830E949214398197FDDEC024
:1026A0003817B1F2B8010E940215DAC03A3241F48B
:1026B000D3FC3591D3FE31912F01BB24B39401C0DB
:1026C000B12C712C20ED230F2A3090F4FB2DF260F9
:1026D000BF2E672D70E080E090E040E20E947E1106
:1026E000762EF201D3FC3591D3FE31912F01EACF42
:1026F000B1FE03C0711003C0B3C077247A9438369A
:1027000019F03C3661F014C0F201D3FC3591D3FED0
:1027100031912F01383661F4FB2DF860BF2E8B2DDF
:102720008460B82EF201D3FC3591D3FE31912F0194
:10273000332309F495C0632F70E08CE890E039836F
:102740000E946A143981892B09F48AC0B0FC07C041
:10275000F701C080D180C70102967C0102C0C12C64
:10276000D12C3E3651F4F8014681578160E070E08B
:102770002B2DC6010E9472116BCF3336A1F4B1FC30
:1027800002C077247394C8010E94921497FD66C01A
:10279000C114D10429F0F6018083C60101966C01B1
:1027A0007A9489F757C03B3559F49201A601672DF9
:1027B000C8010E9448122C01009709F04BC045C087
:1027C000C80139830E949E11398197FD47C03F3669
:1027D00069F128F4343631F1393679F12BC03337C9
:1027E00069F03537F9F026C0C114D10429F0F6019B
:1027F0008082C60101966C017A9471F0C8010E9432
:1028000092144C0197FD08C00E946214892B61F359
:10281000B801C4010E940215C114D104D9F0F60117
:10282000108218C0FB2DF062BF2E07C08B2D806177
:10283000B82E03C09B2D9064B92E2B2DA601672DB9
:10284000C8010E94B711811105C0F801838180730E
:1028500029F406C0B0FCFCCEA394FACEAA2019F04D
:102860008A2D90E002C08FEF9FEF0F90DF91CF9104
:102870001F910F91FF90EF90DF90CF90BF90AF909E
:102880009F908F907F905F904F9008950F931F932C
:10289000CF93DF93869F8001879F100D969F100D29
:1028A0001124C8010E94750DEC01009729F0A801C0
:1028B00060E070E00E948014CE01DF91CF911F9103
:1028C0000F910895911115C1803219F089508550EA
:1028D000D0F70895FC010590061621F00020D9F7E5
:1028E000C00108953197CF010895FC010590615012
:1028F00070400110D8F7809590958E0F9F1F089516
:10290000DC0101C06D9341505040E0F70895FC0197
:102910006150704001900110D8F7809590958E0F0E
:102920009F1F0895CF93DF93EC012B8120FF33C0CD
:1029300026FF0AC02F7B2B838E819F8101969F8368
:102940008E838A8190E029C022FF0FC0E881F9813F
:102950008081992787FD9095009719F420622B8339
:102960001AC03196F983E8830EC0EA85FB85099584
:1029700097FF09C02B81019611F480E101C080E22C
:10298000822B8B8308C02E813F812F5F3F4F3F8377
:102990002E83992702C08FEF9FEFDF91CF9108958B
:1029A0000F931F93CF93DF93182F092FEB018B8188
:1029B00081FD03C08FEF9FEF20C082FF10C04E81CA
:1029C0005F812C813D81421753077CF4E881F981B6
:1029D0009F012F5F3F4F39832883108306C0E8850E
:1029E000F985812F0995892B29F72E813F812F5F4A
:1029F0003F4F3F832E83812F902FDF91CF911F91E7
:102A00000F910895FB01238120FF12C026FD10C005
:102A10008F3F3FEF930761F082832F7D20642383F4
:102A200026813781215031093783268399270895DC
:102A30008FEF9FEF0895FA01AA27283051F1203136
:102A400081F1E8946F936E7F6E5F7F4F8F4F9F4F42
:102A5000AF4FB1E03ED0B4E03CD0670F781F891F84
:102A60009A1FA11D680F791F8A1F911DA11D6A0F52
:102A7000711D811D911DA11D20D009F468943F9105
:102A80002AE0269F11243019305D3193DEF6CF0104
:102A90000895462F4770405D4193B3E00FD0C9F7CA
:102AA000F6CF462F4F70405D4A3318F0495D31FD37
:102AB0004052419302D0A9F7EACFB4E0A69597958A
:102AC000879577956795BA95C9F700976105710560
:102AD00008959B01AC010A2E0694579547953795AA
:102AE0002795BA95C9F7620F731F841F951FA01D04
:0C2AF0000895992788270895F894FFCFD7
:102AFC0002100000000000000000000000000000B8
:102B0C0000000000000001000000000000000000B8
:102B1C000000DE0320000A000000E8030000E803C8
:102B2C000000686572650043616E6E6F7420746F8F
:102B3C0067676C65206E65676174697665206D7377
:102B4C002E00436F6E76657274656420746F20740A
:102B5C006F67676C6520706572696F643A20256CCD
:102B6C00752E0A005553422053657269616C2049D9
:102B7C006E697469616C697A65640D0A000D4D6546
:102B8C006E753A207B54505A7D207B524759417DBB
:102B9C00203C696E743E3A20002563202563202575
:102BAC0064004F703A256320433A256320563A253A
:102BBC006C750D0A0042616420436F6C6F722E209D
:102BCC00547279207B524759417D0D0A00436F6C3A
:102BDC006F723A202563005220746F67676C6573BF
:102BEC003A20256C750D0A004720746F67676C6579
:102BFC00733A20256C750D0A005920746F67676C49
:102C0C0065733A20256C750D0A00546F67676C6507
:102C1C007320523A256C7520473A256C7520593A29
:102C2C00256C750D0A0044656661756C7420696EBF
:102C3C00207028636F6C6F72292E20486F773F0DC0
:102C4C000A0044656661756C7420696E207A28638D
:102C5C006F6C6F72292E20486F773F0D0A00436FFF
:102C6C006D6D616E6420646F6573206E6F7420638C
:102C7C006F6D707574652E0D0A00496E697469610B
:102C8C006C697A696E6720736F6674776172652000
:102C9C00636C6F636B20746F2066726571203130CA
:102CAC003030487A2028706572696F642031206D4D
:102CBC00732900496E697469616C697A696E672061
:102CCC0079656C6C6F7720636C6F636B20746F200D
:102CDC006672657120256C75487A2028706572695A
:102CEC006F6420256C75206D73290A006772656509
:102CFC006E20706572696F6420256C750A005365CF
:102D0C0074204F4352314120746F20256C750A009A
:102D1C00496E697469616C697A696E67206772655E
:102D2C00656E20636C6F636B20746F2066726571C7
:102D3C0020256C75487A2028706572696F6420258F
:082D4C006C75206D73290A006B
:00000001FF
