S01900004F62737461636C6541766F6964616E63652E7372656354
S11300000C944B000C946A000C946A000C946A00E3
S11300100C946A000C946A000C946A000C946A00B4
S11300200C946A000C946A000C946A000C945205B7
S11300300C946A000C946A000C946A000C94660395
S11300400C946A000C946A000C946A000C946A0084
S11300500C946A000C946A000C946A000C946A0074
S11300600C946A000C946A000C946A000C946A0064
S11300700C946A000C946A000C946A000C946A0054
S11300800C946A000C946A000C946A003E67333244
S11300903E3E6333320011241FBECFEFD0E4DEBFF7
S11300A0CDBF11E0A0E0B1E0ECE4FEE000E00BBF66
S11300B002C007900D92AC32B107D9F721E0ACE24F
S11300C0B1E001C01D92A036B207E1F70E947A00A8
S11300D00C9424070C9400008F3F29F48BB192E018
S11300E089278BB905C0882311F0599A01C0599802
S11300F0519A08958CE890E00E94C9030E94EA0492
S11301000E949600BC0180E090E00E94470580E0D8
S11301100E946C0088EC90E00E949A0581E00E94A5
S11301206C0088EC90E00E949A05E8CF0E940606D5
S1130130089590913101E0912D01F0912E019923C0
S113014011F0849101C08081282F21542A3110F4A8
S1130150805E0895803271F420912D0130912E013A
S1130160A9014F5F5F4F50932E0140932D0121153C
S1130170310509F70895EF92FF92CF93DF930E9420
S11301809900C0E0D0E01BC09E01220F331F93E012
S1130190CC0FDD1F9A95E1F7C20FD31F992787FD76
S11301A09095C80FD91FE09780912D0190912E0151
S11301B0019690932E0180932D010E949900982F0F
S11301C090539A3008F3CE01DF91CF91FF90EF90D6
S11301D0089510926F0083E28093800081E1809300
S11301E081001092820080E197E2909389008093CD
S11301F0880010928B0010928A00549A7894089583
S113020080912C01882329F481E080932C010E94A1
S1130210E9000895A0E0B0E0E0E1F1E00C94E40628
S11302208C015B01E42E0E9400011092000117FF73
S113023004C01F77AAE0FA2E02C0FF24F394C090F2
S11302408100DD2428EFC222DD2488EC3F2D389F75
S1130250C001112480179107D8F4E80167E2013145
S1130260160710F0C0E1D7E2BE017695679580E0ED
S113027090E06058794687469F4F9E0140E050E0E9
S11302800E949206890181E090E0C82AD92A2CC0F4
S113029098E2F99E902D112480E0892EE4014E010C
S11302A0982EE4018016910608F4E801BE017695C3
S11302B067959E0140E050E08F2D8A3039F480E04C
S11302C090E0605E734481449F4F06C080E090E0FC
S11302D060537D4E8C4E9F4F0E949206890152E0DE
S11302E0852E912CC828D9282F2D2A3039F4CE01F7
S11302F005966AE070E00E947E06EB0133E0C83E9A
S1130300D30779F0BE0180E090E0950140E050E031
S11303100E94620628EE33E040E050E00E94B406FA
S113032001C0950110926F00C09281001093890062
S11303300093880040918800509189006E2D6031AF
S113034008F06FE080E190E0861B9109BA0102C0D9
S1130350769567958A95E2F770938B0060938A008F
S1130360309334012093330186B38FEF86BB81E051
S113037080936F00CDB7DEB7ECE00C9400079B01CF
S11303808F3F11F0442329F488EE93E0B90140E053
S113039049C0813130F0582F5051503618F05FE584
S11303A001C050E0852F6CE00E947206A82FB0E0D7
S11303B0E4EFFFEFAE9FB001AF9F700DBE9F700DD5
S11303C01124650F711D6C30710540F4FB01EE0FB3
S11303D0FF1FE65FFE4F6081718102C060E070E044
S11303E0873081F0082E02C0660F771F0A94E2F767
S11303F0823028F0CB0105966AE070E00CC06050B2
S113040070480BC0CB01B6E0880F991FBA95E1F78D
S1130410029665E070E00E947E06403108F04FE0ED
S1130420CB01B9010E940A010895A0E0B0E0EBE11C
S1130430F2E00C94E306B090010180912F0188232F
S113044061F060913001662341F08FEF70E040E08D
S11304500E94BF011092300134C1C0ECDDE5AA2432
S1130460A39414E0712E00ED17E0B4E0EB2EF12C10
S1130470A4EFCA2EA1E0DA2EFFE08F2E912C0E9469
S1130480990020912D0130912E012F5F3F4F309321
S11304902E0120932D018636F1F18736CCF4823675
S11304A009F4AFC083367CF48E3349F18F333CF4C6
S11304B0813209F487C08C3309F09BC022C0813695
S11304C009F097C09BC0843601F185360CF51BC03A
S11304D08F3609F447C0803744F48C3611F18D36D9
S11304E061F1873609F085C019C0843709F444C026
S11304F0863709F460C0823709F07BC039C0B394F1
S1130500BECFBA94BCCFEE2435C0EE2482E07BC0CB
S1130510EE2484E078C0EE2485E075C0EE2487E004
S113052072C00E94BB00BC0190930301809302013E
S1130530809104019091050137C00E9499008C3686
S113054019F410922F0104C0A0922F0110923001CF
S113055080912D0190912E01019690932E0180930C
S11305602D018DCF0E94BB00B82E8093010187CF4F
S1130570EE24E39480E047C00E94BB00BC01CE019E
S11305800E947E06CB01880F991F53E0660F771FE8
S11305905A95E1F7860F971F909305018093040104
S11305A060910201709103010E947E06709307011D
S11305B06093060164CF0E94BB009093090180936D
S11305C008015DCF709201011093050100930401AD
S11305D0F0920301E0920201D0920701C092060159
S11305E0909209018092080110922F0144E0B42EE8
S11305F046CF10922E0110922D0163C0EE2489E0A3
S113060002C0EE248BE09CE0B99EB02C1124B80EFD
S11306100E9499008B3211F08332B9F480912D013C
S113062090912E01019690932E0180932D01B39405
S1130630EFCF80912D0190912E01019690932E0180
S113064080932D01BA940E9499008D3291F3C09148
S11306500601D09107018153883058F4C0910401F8
S1130660D09105010E94BB00BC01CE010E947E0610
S1130670EB018E010BC080912D0190912E0101960A
S113068090932E0180932D01C00FD11F16950795CD
S11306900E9499008E3279F380912F01882339F0DA
S11306A0CE019695879580933001C81BD109EE2021
S11306B011F0BB24BA948B2DBE01409108010E9415
S11306C0BF01CDB7DEB7EDE00C94FF061F920F9289
S11306D00FB60F920BB60F9211242F933F934F93A3
S11306E05F936F937F938F939F93AF93BF93EF9396
S11306F0FF9380913301909134019C01215030404B
S11307003093340120933301009711F510926F0058
S1130710789480918100887F81608093810080E15A
S113072097E2909389008093880010928B00109236
S11307308A0081E08093000180912D0190912E0127
S1130740009731F080913201882311F40E94150240
S1130750FF91EF91BF91AF919F918F917F916F9195
S11307605F914F913F912F910F900BBE0F900FBE51
S11307700F901F90189510926F0090932E01809304
S11307802D0181E080933101109230010E94150205
S113079008950E94BB03089581E090E06F9364E0A4
S11307A06A95F1F76F910197C9F708950F931F9315
S11307B0CF93DF9317B13D982898299AC0E0D0E0F1
S11307C00E94CC032A9A0E94CC0306B12A980E9464
S11307D0CC032A9A0E94CC032A98249605FF10C0C1
S11307E09E0140E050E08091390190913A01A0913E
S11307F03B01B0913C01281739074A075B0700F316
S11308009E0140E050E08091390190913A01A0911D
S11308103B01B0913C01281739074A075B0728F0D0
S113082082E390E0A0E0B0E004C080E395E7A0E0BC
S1130830B0E08093390190933A01A0933B01B093C7
S11308403C0117B9DF91CF911F910F91089528B101
S113085090E08F709070880F991F880F991F237CE8
S1130860282B28B92A9A0E94CC032A980E94CC03E8
S11308700895A2E0B0E0EFE3F4E00C94EB06182F47
S11308804A8369830E94B4040E94D603F7B008B176
S1130890299869814A81662311F0289A01C0289811
S11308A087B18C6387B9413029F0812F82958F708D
S11308B00E942704812F8F700E942704F7B808B97B
S11308C02296E5E00C94070760E042E00E943904B8
S11308D0089561E042E00E943904089560E041E037
S11308E00E94390408953D98459A80E395E7A0E075
S11308F0B0E08093390190933A01A0933B01B09307
S11309003C01209A219A229A8EE190E00E949A0555
S113091083E00E946E0486E090E00E949A0583E0E2
S11309200E946E0482E090E00E949A0583E00E9497
S11309306E0482E090E00E949A0582E00E946E04B8
S113094082E090E00E949A0588E20E94640488E0B4
S11309500E94640481E00E94640486E00E946404AE
S11309608CE00E946404089580913D01882329F459
S113097081E080933D010E947304089581E00E9408
S113098064048091350190913601009711F1A0E043
S1130990B0E208C0E0913501F0913601E20FF31F97
S11309A0B083AF5F2A2F30E08091220190E001975D
S11309B06091230170E0869FA001879F500D969F50
S11309C0500D1124241735072CF31092380110927E
S11309D0370108950E94BE040895AAE0B0E0E3EF51
S11309E0F4E00C94E6069B01AC011AE06AE0C62E22
S11309F0D12CE12CF12C5E010894A11CB11C022F16
S1130A00CA01B901A70196010E9492061150F5018D
S1130A10E10FF11D005D922F990F892F880F880F28
S1130A20890F081B0083211531054105510539F74C
S1130A3008C0F601E10FF11D80810E9469041F5F67
S1130A4004C06E010894C11CD11C1A3090F32A967C
S1130A50EAE00C940207EF92FF920F931F937B013D
S1130A608C0197FF0BC010950095F094E094E11C65
S1130A70F11C011D111D8DE20E946904C801B7011A
S1130A800E94ED041F910F91FF90EF9008950E9432
S1130A902B0508956F9364E06A95F1F76F910197C0
S1130AA0C9F708952F928F939F932FB680913F019A
S1130AB090914001019680933F019093400190E012
S1130AC080914101891F80934101909147019C5F6E
S1130AD0909347018091460180519742C0F09093D2
S1130AE04701809346018091420190914301019610
S1130AF0809342019093430190E080914401891FC7
S1130B008093440180914501891F809345012FBE44
S1130B109F918F912F901895CF93DF93EC0105C08F
S1130B2088EE93E00E944A0521972097C9F7DF9148
S1130B30CF9108950E948C050895E0E7F0E080814C
S1130B408E7F8083A0EBB0E08C9183608C93A1EBCB
S1130B50B0E08C91807F8C938C9182608C93B89A56
S1130B6080818160808378940895809148018823EE
S1130B7029F481E0809348010E949D0508950E9414
S1130B80B505E0E7F0E080818E7F8083209142010B
S1130B90309143014091440150914501808181602D
S1130BA08083B901CA0108958FEF64E00E943D0675
S1130BB00895CF93DF930E94BF059B01AC01809100
S1130BC0280190912901A0912A01B0912B012817A5
S1130BD039074A075B07B9F081E867E00E943D06E0
S1130BE0C2E5D1E00E94D405899381E0CF35D807CE
S1130BF0C9F70E94BF05609328017093290180936F
S1130C002A0190932B01DF91CF9108950E94D90579
S1130C1080915D0190915E0108956F9364E06A95FF
S1130C20F1F76F910197C9F70895A1E0B0E0EBE106
S1130C30F6E00C94ED06182F249909C02C9907C0EE
S1130C402C9A8EE190E069830E940D06698184B13B
S1130C50806A84B92698812F837080656C7A862B8C
S1130C608CBD81E012FF80E08DBD81E090E00E94A8
S1130C708C052196E3E00C9409070F931F93082F2A
S1130C80162F0CB406FC04C080E064E00E94150634
S1130C900CB404FC03C08CB580618CBD0EBD03C0D4
S1130CA00CB404FE0BC00DB407FEFACF112321F0DF
S1130CB0812F90E00E940D068EB501C080E01F9147
S1130CC00F910895DB018F939F930E94D306BF91E8
S1130CD0AF91A29F800D911DA39F900DB29F900D87
S1130CE011240895991B79E004C0991F961708F000
S1130CF0961B881F7A95C9F780950895AA1BBB1B7C
S1130D0051E107C0AA1FBB1FA617B70710F0A61B07
S1130D10B70B881F991F5A95A9F780959095BC0128
S1130D20CD010895A1E21A2EAA1BBB1BFD010DC023
S1130D30AA1FBB1FEE1FFF1FA217B307E407F50787
S1130D4020F0A21BB30BE40BF50B661F771F881F63
S1130D50991F1A9469F760957095809590959B01F9
S1130D60AC01BD01CF010895052E97FB1EF400943C
S1130D700E94CB0657FD07D00E94920607FC03D0C1
S1130D804EF40C94CB0650954095309521953F4FE9
S1130D904F4F5F4F089590958095709561957F4F63
S1130DA08F4F9F4F08950E941507A59F900DB49FE4
S1130DB0900DA49F800D911D112408952F923F92B0
S1130DC04F925F926F927F928F929F92AF92BF9257
S1130DD0CF92DF92EF92FF920F931F93CF93DF9303
S1130DE0CDB7DEB7CA1BDB0B0FB6F894DEBF0FBE60
S1130DF0CDBF09942A88398848885F846E847D84AD
S1130E008C849B84AA84B984C884DF80EE80FD80AE
S1130E100C811B81AA81B981CE0FD11D0FB6F89424
S1130E20DEBF0FBECDBFED010895A29FB001B39FF9
S1130E30C001A39F700D811D1124911DB29F700DDF
S10F0E40811D1124911D0895F894FFCF2A
S1130E4C01040400D007F4010F009C01B501CF018B
S1130E5CEA0107022602470269028E02B502DE028B
S10F0E6C0A030210FFFFFFFFFFFFFFFF5F
S9030000FC
