:100000000C944B000C946A000C946A000C946A00E7
:100010000C946A000C946A000C946A000C946A00B8
:100020000C946A000C946A000C946A000C945009B9
:100030000C946A000C946A000C946A000C943B04C3
:100040000C946A000C946A000C946A000C946A0088
:100050000C94C4070C94F6080C946A000C946A0083
:100060000C946A000C946A000C946A000C946A0068
:100070000C94EF070C941F090C946A000C946A000E
:100080000C946A000C946A000C946A003E67333248
:100090003E3E6333320011241FBECFEFD0E4DEBFFB
:1000A000CDBF11E0A0E0B1E0E8EAF6E100E00BBF6F
:1000B00002C007900D92AC34B107D9F721E0ACE44F
:1000C000B1E001C01D92A438B207E1F70E946C00B4
:1000D0000C94520B0C9400008CE890E00E949E045B
:1000E00086E490E00E941A0780ED97E00E9498094C
:1000F00080E090E00E941A0784E690E00E94980950
:100100008AEB9FEF0E941A0780ED97E00E94980902
:1001100080E090E00E941A070CED10E120E030E052
:1001200088E8E82E83E1F82EC901B7010E94AC0AE5
:10013000892BE9F40E94BF0560E080E00E9423065D
:1001400080E00E946B01EC010496801791072CF06F
:100150000897081719070CF0E801BE01882777FDFA
:100160008095982F0E9400068E0120E030E02F5FDE
:100170003F4FDACF80917C0090E025E09595879500
:100180002A95E1F78170089580917A0090E036E039
:10019000959587953A95E1F781700895803200F141
:1001A00091E090934C01803819F40E94040A13C026
:1001B000813819F40E940B0A0EC0823819F40E948B
:1001C000120A09C0833819F40E94190A04C084383D
:1001D000F9F40E94200A90934E0180934D010895F6
:1001E00010924C0197E890937A0090917C00292F0F
:1001F0002064662311F0906C02C0922F9F77907E4E
:10020000982B90937C0080917A00806480937A0090
:100210000895A3E0B0E0EFE0F1E00C941B0BBC010B
:1002200080E090E0209100013091010140E050E039
:100230000E947C0A182F69837A839B830E94BA00EC
:1002400069817A819B81882371F09B01412F592F0D
:10025000CA01B90161587F4F8F4F9F4F2FEF30E098
:1002600040E050E00DC09B01412F592FCA01B90158
:1002700061507E4F8F4F9F4F2FEF33E040E050E0B3
:100280000E94C00AC9012396E3E00C94370B8091C9
:100290004C01882329F080914D0190914E010895E1
:1002A0000E94BA00882331F08091790090E00E948A
:1002B0000901089580917800909179000E940901C8
:1002C000089560E00E94CE000E94C4008823E1F7F8
:1002D0000E94470108950E94610108959091540180
:1002E000E0915001F0915101992311F0849101C0E6
:1002F0008081282F21542A3110F4805E08958032A5
:1003000071F42091500130915101A9014F5F5F4F6D
:1003100050935101409350012115310509F708957B
:10032000EF92FF92CF93DF930E946E01C0E0D0E086
:100330001BC09E01220F331F93E0CC0FDD1F9A9547
:10034000E1F7C20FD31F992787FD9095C80FD91FDA
:10035000E097809150019091510101969093510145
:10036000809350010E946E01982F90539A3008F3A9
:10037000CE01DF91CF91FF90EF90089510926F0022
:1003800083E28093800081E180938100109282005B
:1003900080E197E2909389008093880010928B000F
:1003A00010928A00549A7894089580914F0188237E
:1003B00029F481E080934F010E94BE010895A0E0DE
:1003C000B0E0E5EEF1E00C94120B8C015B01E42E41
:1003D0000E94D5011092020117FF04C01F77AAE006
:1003E000FA2E02C0FF24F394C0908100DD2428EF90
:1003F000C222DD2488EC3F2D389FC00111248017D4
:100400009107D8F4E80167E20131160710F0C0E166
:10041000D7E2BE017695679580E090E06058794616
:1004200087469F4F9E0140E050E00E94C00A89012C
:1004300081E090E0C82AD92A2CC098E2F99E902D3C
:10044000112480E0892EE4014E01982EE4018016EB
:10045000910608F4E801BE01769567959E0140E09B
:1004600050E08F2D8A3039F480E090E0605E734474
:1004700081449F4F06C080E090E060537D4E8C4EDB
:100480009F4F0E94C00A890152E0852E912CC828F6
:10049000D9282F2D2A3039F4CE0105966AE070E074
:1004A0000E94980AEB0133E0C83ED30779F0BE0101
:1004B00080E090E0950140E050E00E947C0A28EE48
:1004C00033E040E050E00E94E20A01C09501109242
:1004D0006F00C092810010938900009388004091C2
:1004E0008800509189006E2D603108F06FE080E146
:1004F00090E0861B9109BA0102C0769567958A95AE
:10050000E2F770938B0060938A0030935701209339
:10051000560186B38FEF86BB81E080936F00CDB725
:10052000DEB7ECE00C942E0B9B018F3F11F04423BF
:1005300029F488EE93E0B90140E049C0813130F000
:10054000582F5051503618F05FE501C050E0852F0C
:100550006CE00E948C0AA82FB0E0E4EFFFEFAE9FA2
:10056000B001AF9F700DBE9F700D1124650F711DFE
:100570006C30710540F4FB01EE0FFF1FE45FFE4F8E
:100580006081718102C060E070E0873081F0082EE8
:1005900002C0660F771F0A94E2F7823028F0CB0181
:1005A00005966AE070E00CC0605070480BC0CB014B
:1005B000B6E0880F991FBA95E1F7029665E070E002
:1005C0000E94980A403108F04FE0CB01B9010E9427
:1005D000DF010895A0E0B0E0E0EFF2E00C94110B31
:1005E000B090030180915201882361F06091530122
:1005F000662341F08FEF70E040E00E949402109279
:10060000530134C1C0ECDDE5AA24A39414E0712E9B
:1006100000ED17E0B4E0EB2EF12CA4EFCA2EA1E020
:10062000DA2EFFE08F2E912C0E946E012091500156
:10063000309151012F5F3F4F309351012093500172
:100640008636F1F18736CCF4823609F4AFC08336B2
:100650007CF48E3349F18F333CF4813209F487C046
:100660008C3309F09BC022C0813609F097C09BC033
:10067000843601F185360CF51BC08F3609F447C06E
:10068000803744F48C3611F18D3661F1873609F0EC
:1006900085C019C0843709F444C0863709F460C0A6
:1006A000823709F07BC039C0B394BECFBA94BCCFB7
:1006B000EE2435C0EE2482E07BC0EE2484E078C0D6
:1006C000EE2485E075C0EE2487E072C00E949001A0
:1006D000BC019093050180930401809106019091E3
:1006E000070137C00E946E018C3619F41092520136
:1006F00004C0A09252011092530180915001909138
:100700005101019690935101809350018DCF0E9429
:100710009001B82E8093030187CFEE24E39480E00C
:1007200047C00E949001BC01CE010E94980ACB01F3
:10073000880F991F53E0660F771F5A95E1F7860FD0
:10074000971F9093070180930601609104017091B7
:1007500005010E94980A709309016093080164CF13
:100760000E94900190930B0180930A015DCF7092DB
:1007700003011093070100930601F0920501E09236
:100780000401D0920901C092080190920B0180925D
:100790000A011092520144E0B42E46CF109251014A
:1007A0001092500163C0EE2489E002C0EE248BE079
:1007B0009CE0B99EB02C1124B80E0E946E018B32C1
:1007C00011F08332B9F4809150019091510101965A
:1007D0009093510180935001B394EFCF80915001D9
:1007E0009091510101969093510180935001BA94D8
:1007F0000E946E018D3291F3C0910801D0910901E0
:100800008153883058F4C0910601D09107010E94AD
:100810009001BC01CE010E94980AEB018E010BC031
:1008200080915001909151010196909351018093D4
:100830005001C00FD11F169507950E946E018E3290
:1008400079F380915201882339F0CE0196958795EE
:1008500080935301C81BD109EE2011F0BB24BA9438
:100860008B2DBE0140910A010E949402CDB7DEB7E4
:10087000EDE00C942D0B1F920F920FB60F920BB65A
:100880000F9211242F933F934F935F936F937F9316
:100890008F939F93AF93BF93EF93FF9380915601F4
:1008A000909157019C012150304030935701209383
:1008B0005601009711F510926F0078948091810095
:1008C000887F81608093810080E197E29093890026
:1008D0008093880010928B0010928A0081E08093B0
:1008E00002018091500190915101009731F0809167
:1008F0005501882311F40E94EA02FF91EF91BF9104
:10090000AF919F918F917F916F915F914F913F91A7
:100910002F910F900BBE0F900FBE0F901F90189548
:1009200010926F00909351018093500181E0809369
:100930005401109253010E94EA0208950E9490040B
:10094000089581E090E06F9364E06A95F1F76F910C
:100950000197C9F708950F931F93CF93DF9317B1B2
:100960003D982898299AC0E0D0E00E94A1042A9AD4
:100970000E94A10406B12A980E94A1042A9A0E940A
:10098000A1042A98249605FF10C09E0140E050E083
:1009900080915C0190915D01A0915E01B0915F0139
:1009A000281739074A075B0700F39E0140E050E033
:1009B00080915C0190915D01A0915E01B0915F0119
:1009C000281739074A075B0728F082E390E0A0E088
:1009D000B0E004C080E395E7A0E0B0E080935C0164
:1009E00090935D01A0935E01B0935F0117B9DF9111
:1009F000CF911F910F91089528B190E08F70907062
:100A0000880F991F880F991F237C282B28B92A9AB1
:100A10000E94A1042A980E94A1040895A2E0B0E0D7
:100A2000E4E1F5E00C94190B182F4A8369830E94C6
:100A300089050E94AB04F7B008B1299869814A8101
:100A4000662311F0289A01C0289887B18C6387B972
:100A5000413029F0812F82958F700E94FC04812FF4
:100A60008F700E94FC04F7B808B92296E5E00C9458
:100A7000350B60E042E00E940E05089561E042E01F
:100A80000E940E05089560E041E00E940E05089561
:100A90003D98459A80E395E7A0E0B0E080935C0143
:100AA00090935D01A0935E01B0935F01209A219A1B
:100AB000229A8EE190E00E94980983E00E9443050B
:100AC00086E090E00E94980983E00E94430582E05E
:100AD00090E00E94980983E00E94430582E090E044
:100AE0000E94980982E00E94430582E090E00E9403
:100AF000980988E20E94390588E00E94390581E062
:100B00000E94390586E00E9439058CE00E94390573
:100B1000089580916001882329F481E08093600129
:100B20000E944805089581E00E943905809158018E
:100B300090915901009711F1A0E0B0E208C0E09156
:100B40005801F0915901E20FF31FB083AF5F2A2FD4
:100B500030E08091240190E001976091250170E0E0
:100B6000869FA001879F500D969F500D112424173A
:100B700035072CF310925B0110925A0108950E94E0
:100B800093050895AAE0B0E0E8ECF5E00C94140BAE
:100B90009B01AC011AE06AE0C62ED12CE12CF12CAD
:100BA0005E010894A11CB11C022FCA01B901A70162
:100BB00096010E94C00A1150F501E10FF11D005D80
:100BC000922F990F892F880F880F890F081B008398
:100BD000211531054105510539F708C0F601E10F2E
:100BE000F11D80810E943E051F5F04C06E010894C4
:100BF000C11CD11C1A3090F32A96EAE00C94300BF9
:100C00000E94C2050895A5E0B0E0E9E0F6E00C948A
:100C10001B0B182F80E8898380EC8A8384E98B83FF
:100C200084ED8C83FE01E60FF11D8181810F6D83C0
:100C30000E94390510935B016D8160935A012596DE
:100C4000E3E00C94370B0E9403060895FC01118227
:100C5000108213821282158214821682683068F420
:100C600089E290E0918380838BE290E0938382839A
:100C70008AE290E09583848323C0603180F483E22C
:100C800090E09183808385E290E09383828384E285
:100C900090E09583848370E06850704011C06831A3
:100CA000C0F486E290E09183808388E290E09383B1
:100CB000828387E290E09583848370E06051704086
:100CC00081E090E002C0880F991F6A95E2F7868361
:100CD00008956032C0F480E290E09183808382E2E4
:100CE00090E09383828381E290E0958384832FE177
:100CF00030E0261B310981E090E002C0880F991F87
:100D00002A95E2F786830895FC01A481B581868146
:100D1000662321F09C91982B9C9308959C9180953B
:100D200089238C930895FC016F3F31F4A281B38134
:100D30008C91968189270CC0A281B381868166231C
:100D400021F09C91982B9C9308959C9180958923E8
:100D50008C930895A7E0B0E0E0EBF6E00C94190B5B
:100D6000282FF62E8E010F5F1F4FC801622F0E94A1
:100D70002606C8016F2D0E949306C80161E00E94FB
:100D800084062796E5E00C94350B83E08093B00051
:100D900082E08093B100E4EBF0E0108280818093E8
:100DA000B30087E160E00E94AA0686E160E00E944D
:100DB000AA0687E060E00E94AA0686E060E00E9442
:100DC000AA06089580916101882329F481E0809327
:100DD00061010E94C5060895CF93DF93EC010E9444
:100DE000E206D7FF05C0D095C195DF4F91E001C065
:100DF00090E0CF3FD10519F014F0CFEFD0E0C093D1
:100E0000B300209731F48091B0008F778093B000C9
:100E10000EC08091B00080688093B000992319F0D3
:100E200087E161E002C087E160E00E94AA06DF91ED
:100E3000CF9108950E94EC060895282F30E0F90123
:100E4000EE0FFF1FB3E0220F331FBA95E1F7E20F59
:100E5000F31FEA5DFE4F408551854115510509F4A8
:100E600052C0282F30E0F901EE0FFF1F73E0220F70
:100E7000331F7A95E1F7E20FF31FEA5DFE4F7281AF
:100E8000282F30E0F901EE0FFF1FB3E0220F331FD0
:100E9000BA95E1F7E20FF31FEA5DFE4F94817917EF
:100EA00090F5282F30E0F901EE0FFF1F73E0220FBD
:100EB000331F7A95E1F7E20FF31FEA5DFE4F92814F
:100EC000490F511DFA016083282F30E0F901EE0F20
:100ED000FF1F53E0220F331F5A95E1F7E20FF31F74
:100EE000EA5DFE4F92819F5F282F30E0F901EE0FFF
:100EF000FF1FB3E0220F331FBA95E1F7E20FF31F94
:100F0000EA5DFE4F9283282F30E0F901EE0FFF1FBC
:100F100073E0220F331F7A95E1F7E20FF31FEA5DCA
:100F2000FE4F4281282F30E0F901EE0FFF1F53E002
:100F3000220F331F5A95E1F7E20FF31FEA5DFE4FD0
:100F40009481491701F5282F30E0F901EE0FFF1FBA
:100F500093E0220F331F9A95E1F7E20FF31FEA5D4A
:100F6000FE4F9581992379F0282F30E0F901EE0F9B
:100F7000FF1FB3E0220F331FBA95E1F7E20FF31F13
:100F8000EA5DFE4F128208951F920F920FB60F92E4
:100F90000BB60F9211242F933F934F935F936F9350
:100FA0007F938F939F93AF93BF93EF93FF93609142
:100FB000C60080E00E941D07FF91EF91BF91AF91A5
:100FC0009F918F917F916F915F914F913F912F9161
:100FD0000F900BBE0F900FBE0F901F9018951F9291
:100FE0000F920FB60F920BB60F9211242F933F93CF
:100FF0004F935F936F937F938F939F93AF93BF9321
:10100000EF93FF936091CE0081E00E941D07FF9156
:10101000EF91BF91AF919F918F917F916F915F9170
:101020004F913F912F910F900BBE0F900FBE0F90DD
:101030001F901895882319F4E1ECF0E002C0E9EC68
:10104000F0E08081806280830895882319F4E1ECC8
:10105000F0E002C0E9ECF0E080818F7D80830895AC
:10106000282F30E0F901EE0FFF1F93E0220F331F0E
:101070009A95E1F7E20FF31FEA5DFE4F2681378173
:1010800021153105A1F1282F30E0F901EE0FFF1FE6
:10109000A3E0220F331FAA95E1F7E20FF31FEA5DE9
:1010A000FE4F4181282F30E0F901EE0FFF1F63E072
:1010B000220F331F6A95E1F7E20FF31FEA5DFE4F3F
:1010C00093814917A0F4282F30E0F901EE0FFF1F9C
:1010D00043E0220F331F4A95E1F7E20FF31FEA5D69
:1010E000FE4F9081992319F40E941A0808950E94D6
:1010F00025080895282F30E0F901EE0FFF1F73E057
:10110000220F331F7A95E1F7E20FF31FEA5DFE4FDE
:10111000468157814115510509F465C0282F30E0FB
:10112000F901EE0FFF1F93E0220F331F9A95E1F7AD
:10113000E20FF31FEA5DFE4F6181282F30E0F901D5
:10114000EE0FFF1FA3E0220F331FAA95E1F7E20F76
:10115000F31FEA5DFE4F9381691708F044C08823AE
:1011600019F4E0ECF0E002C0E8ECF0E0908195FFCB
:101170003AC0882319F4A6ECB0E002C0AEECB0E0AF
:10118000282F30E0F901EE0FFF1F63E0220F331F1D
:101190006A95E1F7E20FF31FEA5DFE4F9181490F77
:1011A000511DFA0190819C93282F30E0F901EE0F38
:1011B000FF1F93E0220F331F9A95E1F7E20FF31F11
:1011C000EA5DFE4F91819F5F282F30E0F901EE0F1D
:1011D000FF1FA3E0220F331FAA95E1F7E20FF31FD1
:1011E000EA5DFE4F91830E94300808951F920F928E
:1011F0000FB60F920BB60F9211242F933F934F937C
:101200005F936F937F938F939F93AF93BF93EF936E
:10121000FF9380E00E947A08FF91EF91BF91AF9118
:101220009F918F917F916F915F914F913F912F91FE
:101230000F900BBE0F900FBE0F901F9018951F922E
:101240000F920FB60F920BB60F9211242F933F936C
:101250004F935F936F937F938F939F93AF93BF93BE
:10126000EF93FF9381E00E947A08FF91EF91BF9185
:10127000AF919F918F917F916F915F914F913F912E
:101280002F910F900BBE0F900FBE0F901F901895CF
:101290006F9364E06A95F1F76F910197C9F708952C
:1012A0002F928F939F932FB6809163019091640149
:1012B0000196809363019093640190E080916501B1
:1012C000891F8093650190916B019C5F90936B01E6
:1012D00080916A0180519742C0F090936B01809396
:1012E0006A01809166019091670101968093660181
:1012F0009093670190E080916801891F8093680155
:1013000080916901891F809369012FBE9F918F9100
:101310002F901895CF93DF93EC0105C088EE93E0F2
:101320000E94480921972097C9F7DF91CF9108952E
:101330000E948A090895E0E7F0E080818E7F808333
:10134000A0EBB0E08C9183608C93A1EBB0E08C912A
:10135000807F8C938C9182608C93B89A808181601D
:1013600080837894089580916C01882329F481E02A
:1013700080936C010E949B0908950E94B309E0E7E5
:10138000F0E080818E7F808320916601309167013B
:101390004091680150916901808181608083B90129
:1013A000CA0108958FEF64E00E94570A0895CF9311
:1013B000DF930E94BD099B01AC018091480190918F
:1013C0004901A0914A01B0914B01281739074A07FA
:1013D0005B07B9F081E867E00E94570AC6E7D1E0F1
:1013E0000E94D209899381E0C338D807C9F70E94C7
:1013F000BD09609348017093490180934A0190931D
:101400004B01DF91CF9108950E94D70980917F0110
:101410009091800108950E94D70980917701909161
:10142000780108950E94D7098091790190917A01FD
:1014300008950E94D70980917B0190917C010895C5
:101440000E94D70980917D0190917E0108956F934C
:1014500064E06A95F1F76F910197C9F70895A1E0EB
:10146000B0E0E5E3FAE00C941B0B182F249909C0B7
:101470002C9907C02C9A8EE190E069830E94270A7C
:10148000698184B1806A84B92698812F83708065D0
:101490006C7A862B8CBD81E012FF80E08DBD81E0EF
:1014A00090E00E948A092196E3E00C94370B0F9399
:1014B0001F93082F162F0CB406FC04C080E064E0D4
:1014C0000E942F0A0CB404FC03C08CB580618CBD53
:1014D0000EBD03C00CB404FE0BC00DB407FEFACF62
:1014E000112321F0812F90E00E94270A8EB501C0C0
:1014F00080E01F910F910895DB018F939F930E94CD
:10150000010BBF91AF91A29F800D911DA39F900DE4
:10151000B29F900D11240895991B79E004C0991F82
:10152000961708F0961B881F7A95C9F7809508953D
:10153000AA1BBB1B51E107C0AA1FBB1FA617B707F9
:1015400010F0A61BB70B881F991F5A95A9F7809515
:101550009095BC01CD01089597FB072E16F40094D9
:1015600007D077FD09D00E94980A07FC05D03EF409
:10157000909581959F4F0895709561957F4F08953F
:10158000A1E21A2EAA1BBB1BFD010DC0AA1FBB1F87
:10159000EE1FFF1FA217B307E407F50720F0A21BF9
:1015A000B30BE40BF50B661F771F881F991F1A9466
:1015B00069F760957095809590959B01AC01BD0190
:1015C000CF010895052E97FB1EF400940E94F90A9E
:1015D00057FD07D00E94C00A07FC03D04EF40C94BC
:1015E000F90A50954095309521953F4F4F4F5F4FE9
:1015F000089590958095709561957F4F8F4F9F4F7F
:1016000008950E94430BA59F900DB49F900DA49F39
:10161000800D911D112408952F923F924F925F9259
:101620006F927F928F929F92AF92BF92CF92DF92F2
:10163000EF92FF920F931F93CF93DF93CDB7DEB757
:10164000CA1BDB0B0FB6F894DEBF0FBECDBF0994EB
:101650002A88398848885F846E847D848C849B8442
:10166000AA84B984C884DF80EE80FD800C811B8150
:10167000AA81B981CE0FD11D0FB6F894DEBF0FBE7F
:10168000CDBFED010895A29FB001B39FC001A39FFC
:10169000700D811D1124911DB29F700D811D1124AB
:0816A000911D0895F894FFCF9D
:1016A800881301040400D007F4010F009C01B50160
:1016B800CF01EA0107022602470269028E02B5023B
:1016C800DE020A0302100000000000000000000013
:1016D8000000000000000000000001000000000001
:0C16E80000000000FFFFFFFFFFFFFFFFFE
:00000001FF
