:100000000C944B000C946A000C946A000C946A00E7
:100010000C946A000C946A000C946A000C9487019A
:100020000C946A000C946A000C946A000C941E07ED
:100030000C946A000C946C000C946A000C942705D4
:100040000C946A000C946A000C946A000C946A0088
:100050000C946A000C946A000C946A000C946A0078
:100060000C946A000C946A000C946A000C946A0068
:100070000C946A000C946A000C946A000C946A0058
:100080000C946A000C946A000C946A003E67333248
:100090003E3E6333320011241FBECFEFD0E4DEBFFB
:1000A000CDBF11E0A0E0B1E0E8EBF4E100E00BBF70
:1000B00002C007900D92AC33B107D9F721E0ACE351
:1000C000B1E001C01D92A037B207E1F70E9417020C
:1000D0000C945A0A0C9400001F920F920FB60F92C4
:1000E00011240BB60F92CF92DF92EF92FF922F93D3
:1000F0003F934F935F936F937F938F939F93AF93B0
:10010000BF93EF93FF93E0906E01F0906F01C701F2
:1001100069EC78E00E94B409882777FD8095982FD4
:100120000E946D086093650170936601809367017A
:100130009093680180916C0190916D01B701681BEB
:10014000790B882777FD8095982F0E946D082AE00B
:1001500037ED43E25CE30E94D20720E030E040E765
:1001600052E40E94210920E030E94CE055E40E946D
:10017000D207609361017093620180936301909351
:100180006401F0926D01E0926C0160912201709126
:1001900023018091240190912501209161013091EA
:1001A000620140916301509164010E9469076B01F3
:1001B0007C010E943A089B0177FF04C02227332765
:1001C000261B370BB901882777FD8095982F0E9451
:1001D0006D082DEC3CEC4CEC5DE30E941D091816FB
:1001E000E4F42AE037ED43E25CE3C701B6010E9484
:1001F00021099B01AC016091590170915A018091D4
:100200005B0190915C010E946A07609359017093B1
:100210005A0180935B0190935C012DEC3CEC4CE81F
:100220005FE3C701B6010E9421096B017C0120E058
:1002300030E040E251E46091590170915A0180919F
:100240005B0190915C010E9421099B01AC01C701F7
:10025000B6010E946A0720E030E0A9010E946A0707
:1002600060935D0170935E0180935F0190936001E4
:1002700060915D0170915E0180915F0190916001DC
:1002800020E030E04FE753E40E941D09181664F4A3
:1002900080E090E0AFE7B3E480935D0190935E016E
:1002A000A0935F01B093600160915D0170915E0168
:1002B00080915F019091600120E030E04FE753ECC6
:1002C0000E94CE0787FF0CC080E090E0AFE7B3EC60
:1002D00080935D0190935E01A0935F01B0936001F4
:1002E000FF91EF91BF91AF919F918F917F916F910E
:1002F0005F914F913F912F91FF90EF90DF90CF90C2
:100300000F900BBE0F900FBE0F901F9018951F926D
:100310000F920FB60F9211242F933F934F935F9339
:100320008F939F9331E04B9B30E021E04A9B20E08C
:100330004091690150916A01341749F080916E0132
:1003400090916F01019690936F0180936E01251734
:1003500049F080916E0190916F01019790936F0128
:1003600080936E01351729F0241719F081E08093EE
:100370006B0130936A01209369019F918F915F9186
:100380004F913F912F910F900FBE0F901F90189596
:1003900083E88093B00082E08093B10057983F9A41
:1003A000579A3F9A86E48093B30080ED97E00C94CF
:1003B00066071AB817B88AB18C608AB989B18C609F
:1003C00089B988E0809368008CE080937300089579
:1003D00082EC8093800085E18093810081E690E04B
:1003E000909389008093880083EC90E0909387003D
:1003F0008093860082E080936F000895CF93DF930F
:1004000086E291E00E949306C3EBD0E088E7888300
:1004100080ED97E00E94660786E48883DF91CF91A4
:1004200008950E94C8010E94D9010C94E8018CE84B
:1004300090E00E948A050E9411020E94FE017894B9
:10044000C6E4C093B30080ED97E00E946607C093B6
:10045000B30060E080E00E94130783E391E00E9414
:10046000930664E088E00E94130760916101709137
:10047000620180916301909164010E943A080E9498
:10048000F00661E080E00E94130787E391E00E949C
:10049000930661E084E00E9413076091220170914D
:1004A000230180912401909125010E943A080E9425
:1004B000F006CFCF90914101E0913D01F0913E01D6
:1004C000992311F0849101C08081282F21542A3171
:1004D00010F4805E0895803271F420913D013091D6
:1004E0003E01A9014F5F5F4F50933E0140933D0194
:1004F0002115310509F70895EF92FF92CF93DF930D
:100500000E945A02C0E0D0E01BC09E01220F331FA0
:1005100093E0CC0FDD1F9A95E1F7C20FD31F992707
:1005200087FD9095C80FD91FE09780913D0190916C
:100530003E01019690933E0180933D010E945A0234
:10054000982F90539A3008F3CE01DF91CF91FF900E
:10055000EF90089510926F0083E28093800081E114
:10056000809381001092820080E197E2909389004D
:100570008093880010928B0010928A00549A78948D
:10058000089580913C01882329F481E080933C0107
:100590000E94AA020895A0E0B0E0E1EDF2E00C9420
:1005A0001A0A8C015B01E42E0E94C1021092000124
:1005B00017FF04C01F77AAE0FA2E02C0FF24F394AD
:1005C000C0908100DD2428EFC222DD2488EC3F2D7D
:1005D000389FC001112480179107D8F4E80167E221
:1005E0000131160710F0C0E1D7E2BE01769567959C
:1005F00080E090E06058794687469F4F9E0140E03A
:1006000050E00E94C809890181E090E0C82AD92AF7
:100610002CC098E2F99E902D112480E0892EE401EF
:100620004E01982EE4018016910608F4E801BE01FF
:10063000769567959E0140E050E08F2D8A3039F421
:1006400080E090E0605E734481449F4F06C080E08C
:1006500090E060537D4E8C4E9F4F0E94C8098901E7
:1006600052E0852E912CC828D9282F2D2A3039F414
:10067000CE0105966AE070E00E94A009EB0133E02C
:10068000C83ED30779F0BE0180E090E0950140E0DC
:1006900050E00E94840928EE33E040E050E00E94E0
:1006A000EA0901C0950110926F00C0928100109379
:1006B00089000093880040918800509189006E2D38
:1006C000603108F06FE080E190E0861B9109BA018B
:1006D00002C0769567958A95E2F770938B006093D8
:1006E0008A00309344012093430186B38FEF86BB89
:1006F00081E080936F00CDB7DEB7ECE00C94360A52
:100700009B018F3F11F0442329F488EE93E0B90157
:1007100040E049C0813130F0582F5051503618F028
:100720005FE501C050E0852F6CE00E949409A82F7E
:10073000B0E0E4EFFFEFAE9FB001AF9F700DBE9F42
:10074000700D1124650F711D6C30710540F4FB01B3
:10075000EE0FFF1FE65FFE4F6081718102C060E017
:1007600070E0873081F0082E02C0660F771F0A9470
:10077000E2F7823028F0CB0105966AE070E00CC009
:10078000605070480BC0CB01B6E0880F991FBA9536
:10079000E1F7029665E070E00E94A009403108F0A0
:1007A0004FE0CB01B9010E94CB020895A0E0B0E078
:1007B000ECEDF3E00C94190AB090010180913F0137
:1007C000882361F060914001662341F08FEF70E073
:1007D00040E00E9480031092400134C1C0ECDDE58E
:1007E000AA24A39414E0712E00ED17E0B4E0EB2EE0
:1007F000F12CA4EFCA2EA1E0DA2EFFE08F2E912C6F
:100800000E945A0220913D0130913E012F5F3F4FDF
:1008100030933E0120933D018636F1F18736CCF4CA
:10082000823609F4AFC083367CF48E3349F18F33BE
:100830003CF4813209F487C08C3309F09BC022C09C
:10084000813609F097C09BC0843601F185360CF5DE
:100850001BC08F3609F447C0803744F48C3611F141
:100860008D3661F1873609F085C019C0843709F4E7
:1008700044C0863709F460C0823709F07BC039C0B4
:10088000B394BECFBA94BCCFEE2435C0EE2482E040
:100890007BC0EE2484E078C0EE2485E075C0EE24B1
:1008A00087E072C00E947C02BC0190930301809398
:1008B0000201809104019091050137C00E945A0203
:1008C0008C3619F410923F0104C0A0923F0110929F
:1008D000400180913D0190913E01019690933E012F
:1008E00080933D018DCF0E947C02B82E8093010140
:1008F00087CFEE24E39480E047C00E947C02BC01D5
:10090000CE010E94A009CB01880F991F53E0660F0A
:10091000771F5A95E1F7860F971F909305018093F3
:10092000040160910201709103010E94A00970937B
:1009300007016093060164CF0E947C029093090135
:10094000809308015DCF709201011093050100931F
:100950000401F0920301E0920201D0920701C092DB
:100960000601909209018092080110923F0144E033
:10097000B42E46CF10923E0110923D0163C0EE248A
:1009800089E002C0EE248BE09CE0B99EB02C1124DB
:10099000B80E0E945A028B3211F08332B9F4809162
:1009A0003D0190913E01019690933E0180933D015F
:1009B000B394EFCF80913D0190913E0101969093C9
:1009C0003E0180933D01BA940E945A028D3291F308
:1009D000C0910601D09107018153883058F4C0912D
:1009E0000401D09105010E947C02BC01CE010E944D
:1009F000A009EB018E010BC080913D0190913E0159
:100A0000019690933E0180933D01C00FD11F169532
:100A100007950E945A028E3279F380913F01882314
:100A200039F0CE019695879580934001C81BD10976
:100A3000EE2011F0BB24BA948B2DBE014091080129
:100A40000E948003CDB7DEB7EDE00C94350A1F920B
:100A50000F920FB60F920BB60F9211242F933F9364
:100A60004F935F936F937F938F939F93AF93BF93B6
:100A7000EF93FF9380914301909144019C01215099
:100A800030403093440120934301009711F51092B8
:100A90006F00789480918100887F816080938100CD
:100AA00080E197E2909389008093880010928B00F8
:100AB00010928A0081E08093000180913D01909125
:100AC0003E01009731F080914201882311F40E9489
:100AD000D603FF91EF91BF91AF919F918F917F913D
:100AE0006F915F914F913F912F910F900BBE0F909F
:100AF0000FBE0F901F90189510926F0090933E01BB
:100B000080933D0181E080934101109240010E9459
:100B1000D60308950E947C05089581E090E06F93CC
:100B200064E06A95F1F76F910197C9F708950F9303
:100B30001F93CF93DF9317B13D982898299AC0E06F
:100B4000D0E00E948D052A9A0E948D0506B12A9850
:100B50000E948D052A9A0E948D052A98249605FFE9
:100B600010C09E0140E050E08091490190914A01FF
:100B7000A0914B01B0914C01281739074A075B0738
:100B800000F39E0140E050E08091490190914A01BC
:100B9000A0914B01B0914C01281739074A075B0718
:100BA00028F082E390E0A0E0B0E004C080E395E7A5
:100BB000A0E0B0E08093490190934A01A0934B01DB
:100BC000B0934C0117B9DF91CF911F910F91089508
:100BD00028B190E08F709070880F991F880F991F2F
:100BE000237C282B28B92A9A0E948D052A980E94D6
:100BF0008D050895A2E0B0E0E0E0F6E00C94210A53
:100C0000182F4A8369830E9475060E949705F7B0E2
:100C100008B1299869814A81662311F0289A01C098
:100C2000289887B18C6387B9413029F0812F82954C
:100C30008F700E94E805812F8F700E94E805F7B839
:100C400008B92296E5E00C943D0A60E042E00E947B
:100C5000FA05089561E042E00E94FA05089560E017
:100C600041E00E94FA0508953D98459A80E395E792
:100C7000A0E0B0E08093490190934A01A0934B011A
:100C8000B0934C01209A219A229A8EE190E00E9422
:100C9000660783E00E942F0686E090E00E946607C8
:100CA00083E00E942F0682E090E00E94660783E0C6
:100CB0000E942F0682E090E00E94660782E00E9478
:100CC0002F0682E090E00E94660788E20E942506D7
:100CD00088E00E94250681E00E94250686E00E94A9
:100CE00025068CE00E942506089580914D018823F9
:100CF00029F481E080934D010E9434060895EF921B
:100D0000FF92CF93DF93E82EE7017E01F92EE701F2
:100D100002C00E942A0689918823D9F7DF91CF91DA
:100D2000FF90EF9008950E947F060895AAE0B0E03A
:100D3000ECE9F6E00C941C0A9B01AC011AE06AE0B5
:100D4000C62ED12CE12CF12C5E010894A11CB11C03
:100D5000022FCA01B901A70196010E94C8091150CA
:100D6000F501E10FF11D005D922F990F892F880F7A
:100D7000880F890F081B0083211531054105510596
:100D800039F708C0F601E10FF11D80810E942A06A3
:100D90001F5F04C06E010894C11CD11C1A3090F36F
:100DA0002A96EAE00C94380AEF92FF920F931F9371
:100DB0007B018C0197FF0BC010950095F094E09497
:100DC000E11CF11C011D111D8DE20E942A06C801C3
:100DD000B7010E9496061F910F91FF90EF90089522
:100DE0000E94D4060895A5E0B0E0E9EFF6E00C9487
:100DF000230A182F80E8898380EC8A8384E98B8317
:100E000084ED8C83FE01E60FF11D8181810F6D83DE
:100E10000E942506109348016D8160934701259635
:100E2000E3E00C943F0A0E94F30608956F9364E098
:100E30006A95F1F76F910197C9F708952F928F93F3
:100E40009F932FB680914F0190915001019680930E
:100E50004F019093500190E080915101891F809340
:100E60005101909157019C5F9093570180915601D9
:100E700080519742C0F09093570180935601809122
:100E80005201909153010196809352019093530126
:100E900090E080915401891F809354018091550105
:100EA000891F809355012FBE9F918F912F90189588
:100EB000CF93DF93EC0105C088EE93E00E94160704
:100EC00021972097C9F7DF91CF9108950E94580785
:100ED00008955058BB27AA270ED075C166D130F0AF
:100EE0006BD120F031F49F3F11F41EF45BC10EF47E
:100EF000E095E7FB51C1E92F77D180F3BA1762077C
:100F000073078407950718F071F49EF58FC10EF4EE
:100F1000E0950B2EBA2FA02D0B01B90190010C0109
:100F2000CA01A0011124FF27591B99F0593F50F421
:100F3000503E68F11A16F040A22F232F342F442779
:100F4000585FF3CF469537952795A795F040539571
:100F5000C9F77EF41F16BA0B620B730B840BBAF041
:100F60009150A1F0FF0FBB1F661F771F881FC2F7AC
:100F70000EC0BA0F621F731F841F48F487957795C0
:100F80006795B795F7959E3F08F0B3CF9395880F77
:100F900008F09927EE0F979587950895D9D008F412
:100FA00081E008950CD00FC107D140F0FED030F0A1
:100FB00021F45F3F19F0F0C0511139C1F3C014D1D1
:100FC00098F39923C9F35523B1F3951B550BBB2710
:100FD000AA2762177307840738F09F5F5F4F220FBD
:100FE000331F441FAA1FA9F333D00E2E3AF0E0E8B6
:100FF00030D091505040E695001CCAF729D0FE2F02
:1010000027D0660F771F881FBB1F26173707480793
:10101000AB07B0E809F0BB0B802DBF01FF27935849
:101020005F4F2AF09E3F510568F0B6C000C15F3F98
:10103000ECF3983EDCF3869577956795B795F79531
:101040009F5FC9F7880F911D9695879597F9089529
:10105000E1E0660F771F881FBB1F621773078407C5
:10106000BA0720F0621B730B840BBA0BEE1F88F7D4
:10107000E095089504D06894B111D9C00895BCD00A
:1010800088F09F5790F0B92F9927B751A0F0D1F071
:10109000660F771F881F991F1AF0BA95C9F712C0FB
:1010A000B13081F0C3D0B1E00895C0C0672F782F70
:1010B0008827B85F39F0B93FCCF386957795679567
:1010C000B395D9F73EF490958095709561957F4FD3
:1010D0008F4F9F4F0895E89409C097FB3EF4909579
:1010E0008095709561957F4F8F4F9F4F9923A9F001
:1010F000F92F96E9BB279395F69587957795679590
:10110000B795F111F8CFFAF4BB0F11F460FF1BC0D3
:101110006F5F7F4F8F4F9F4F16C0882311F096E966
:1011200011C0772321F09EE8872F762F05C0662314
:1011300071F096E8862F70E060E02AF09A95660FCD
:10114000771F881FDAF7880F9695879597F9089586
:10115000990F0008550FAA0BE0E8FEEF16161706C8
:10116000E807F907C0F012161306E407F50798F030
:10117000621B730B840B950B39F40A2661F0232B49
:10118000242B252B21F408950A2609F4A140A695C5
:101190008FEF811D811D089597F99F6780E870E0AA
:1011A00060E008959FEF80EC089500240A941616DD
:1011B000170618060906089500240A941216130645
:1011C000140605060895092E0394000C11F48823D3
:1011D00052F0BB0F40F4BF2B11F460FF04C06F5FEF
:1011E0007F4F8F4F9F4F089557FD9058440F551FC5
:1011F00059F05F3F71F04795880F97FB991F61F099
:101200009F3F79F087950895121613061406551F0F
:10121000F2CF4695F1DF08C0161617061806991F7B
:10122000F1CF86957105610508940895E894BB2770
:1012300066277727CB0197F908958ADF08F48FEFA7
:1012400008950BD0C0CFB1DF28F0B6DF18F095239A
:1012500009F0A2CFA7CF1124EACFC6DFA0F3959F54
:10126000D1F3950F50E0551F629FF001729FBB278D
:10127000F00DB11D639FAA27F00DB11DAA1F649F39
:101280006627B00DA11D661F829F2227B00DA11DEC
:10129000621F739FB00DA11D621F839FA00D611D72
:1012A000221F749F3327A00D611D231F849F600D93
:1012B000211D822F762F6A2F11249F5750408AF0CC
:1012C000E1F088234AF0EE0FFF1FBB1F661F771F58
:1012D000881F91505040A9F79E3F510570F05CCF98
:1012E000A6CF5F3FECF3983EDCF386957795679544
:1012F000B795F795E7959F5FC1F7FE2B880F911D76
:101300009695879597F90895DB018F939F930E9497
:10131000090ABF91AF91A29F800D911DA39F900DCF
:10132000B29F900D11240895991B79E004C0991F74
:10133000961708F0961B881F7A95C9F7809508952F
:10134000AA1BBB1B51E107C0AA1FBB1FA617B707EB
:1013500010F0A61BB70B881F991F5A95A9F7809507
:101360009095BC01CD01089597FB072E16F40094CB
:1013700007D077FD09D00E94A00907FC05D03EF4F4
:10138000909581959F4F0895709561957F4F089531
:10139000A1E21A2EAA1BBB1BFD010DC0AA1FBB1F79
:1013A000EE1FFF1FA217B307E407F50720F0A21BEB
:1013B000B30BE40BF50B661F771F881F991F1A9458
:1013C00069F760957095809590959B01AC01BD0182
:1013D000CF010895052E97FB1EF400940E94010A88
:1013E00057FD07D00E94C80907FC03D04EF40C94A7
:1013F000010A50954095309521953F4F4F4F5F4FD3
:10140000089590958095709561957F4F8F4F9F4F70
:1014100008950E944B0AA59F900DB49F900DA49F24
:10142000800D911D112408952F923F924F925F924B
:101430006F927F928F929F92AF92BF92CF92DF92E4
:10144000EF92FF920F931F93CF93DF93CDB7DEB749
:10145000CA1BDB0B0FB6F894DEBF0FBECDBF0994DD
:101460002A88398848885F846E847D848C849B8434
:10147000AA84B984C884DF80EE80FD800C811B8142
:10148000AA81B981CE0FD11D0FB6F894DEBF0FBE71
:10149000CDBFED010895A29FB001B39FC001A39FEE
:1014A000700D811D1124911DB29F700D811D11249D
:0814B000911D0895F894FFCF8F
:1014B80001040400D007F4010F009C01B501CF011D
:1014C800EA0107022602470269028E02B502DE021D
:1014D8000A0300008C4274657374206D6F746F7218
:0C14E80020310072706D00746172000011
:00000001FF
