:1000000025C1000041C100003FC100003DC100000A
:100010003BC1000039C1000037C1000074C10000BD
:1000200033C1000031C100002FC100000C94AF119A
:100030002BC10000C1C1000027C1000025C1000084
:1000400023C1000021C100001FC100001DC100002C
:100050000C945F0F0C94571117C1000015C10000DC
:1000600013C1000011C100000FC100000DC100004C
:100070000C94890F0C947F1107C1000005C100008A
:1000800003C1000001C10000FFC00000620A810A34
:10009000810A4C0A550A3F0A810A810A810A620ACA
:1000A000320A810A5E0AC609810A810A810A250A82
:1000B000810AD109FB09570A810ACD09810A810AFF
:1000C000810A810A810A810A810A810A810A810AD8
:1000D000810A4C0A550A3F0A810A810A810A620A8A
:1000E000320A810A5E0AC609810A810A810A250A42
:1000F000810AD109FB09570A810ACD096E616E0098
:10010000696E66006364696E6F70737578585B65BD
:10011000666745464700616E006E66696E69747970
:1001200000CDCCCC3D0AD7233C17B7D13877CC2BA8
:10013000329595E6241FB14F0A000020410000C807
:100140004200401C4620BCBE4CCA1B0E5AAEC59D88
:100150007400407A10F35A00A0724E18090010A5DE
:10016000D4E80000E87648170000E40B54020000D1
:10017000CA9A3B000000E1F5050000809698000057
:100180000040420F000000A0860100000010270080
:10019000000000E803000000006400000000000A06
:1001A00000000000000100000000002C76D888DC70
:1001B000674F0823DFC1DFAE59E1B1B796E5E3E44D
:1001C00053C63AE651997696E8E6C28426EB898CC6
:1001D0009B62ED407C6FFCEFBC9C9F40F2BAA56F28
:1001E000A5F490055A2AF75C936B6CF9676DC11BF7
:1001F000FCE0E40D47FEF520E6B500D0ED902E03BF
:1002000000943577050080841E080000204E0A0007
:100210000000C80C333333330F986E12831141EF53
:100220008D2114893BE65516CFFEE6DB18D1844BB1
:10023000381BF77C1D901DA4BBE424203284725E21
:10024000228100C9F124ECA1E53D270011241FBE45
:10025000CFEFD0E4DEBFCDBF13E0A0E0B1E0E6E039
:10026000F2E400E00BBF02C007900D92A43CB1077E
:10027000D9F724E0A4ECB3E001C01D92A13AB20783
:10028000E1F753D40C940121BBCE579A3F9A83E8EF
:100290008093B00022E02093B1001092B30080E878
:1002A000809380008AE08093810088EA91E69093B1
:1002B00089008093880020936F008FE08093730003
:1002C0008FEF809368008BBB089597FF02C047981B
:1002D00001C0479A97FF03C091958195910990932A
:1002E000FC038093FB038091FB039091FC038F3F01
:1002F000910514F08FEF04C08091FB039091FC03F3
:100300008093B30008951F920F920FB60F9211249D
:100310002F933F934F935F938F939F93AF93BF938D
:1003200031E04B9B30E021E04A9B20E040912904E2
:1003300050912A04341799F080913004909131043F
:10034000A0913204B09133040196A11DB11D809398
:10035000300490933104A0933204B09333042517F2
:1003600099F08091300490913104A0913204B091C1
:1003700033040197A109B1098093300490933104AB
:10038000A0933204B0933304351729F0241719F0E1
:1003900081E080932B0430932A0420932904BF9199
:1003A000AF919F918F915F914F913F912F910F90BE
:1003B0000FBE0F901F9018951F920F920FB60F92BD
:1003C00011240BB60F924F925F926F927F928F9291
:1003D0009F92AF92BF92CF92DF92EF92FF922F93B4
:1003E0003F934F935F936F937F938F939F93AF93BD
:1003F000BF93EF93FF93CF93DF93CDB7DEB76897AB
:10040000DEBFCDBF8091FD03882309F485C18091B3
:100410001D0490911E04A0911F04B0912004019628
:10042000A11DB11D80931D0490931E04A0931F0471
:10043000B093200481E08093210480911D04909169
:100440001E04A0911F04B091200483709927AA274D
:10045000BB27892B8A2B8B2B09F04FC1C09030040E
:10046000D0903104E0903204F090330480912C0459
:1004700090912D04A0912E04B0912F0446015701B4
:10048000881A990AAA0ABB0AC501B4010E94651319
:1004900060930B0470930C0480930D0490930E04EE
:1004A000C0922C04D0922D04E0922E04F0922F04DE
:1004B00060910F04709110048091110490911204C6
:1004C00020910B0430910C0440910D0450910E04C6
:1004D0000E9461126093F5037093F6038093F70313
:1004E0009093F8036091F5037091F6038091F70300
:1004F0009091F8032AE037ED43E25CE30E9419147F
:100500002091E1033091E2034091E3035091E40331
:100510000E9462126B017C0120E030E04AE754E463
:100520000E94151418162CF480E090E0AAE7B4E4B9
:1005300017C020E030E04AE754ECC701B6010E9442
:10054000C61287FD09C0C092E103D092E203E09297
:10055000E303F092E4030CC080E090E0AAE7B4EC7F
:100560008093E1039093E203A093E303B093E40349
:100570008090F5039090F603A090F703B090F803F5
:1005800089829A82AB82BC828090E5039090E603D8
:10059000A090E703B090E8038D829E82AF82B88678
:1005A0008091F5039091F603A091F703B091F803C1
:1005B0008093E5039093E603A093E703B093E803E9
:1005C0008090070490900804A0900904B0900A0459
:1005D00040900F0450901004609011047090120429
:1005E00020910B0430910C0440910D0450910E04A5
:1005F0008091030490910404A0910504B091060435
:1006000089879A87AB87BC878091F5039091F60321
:10061000A091F703B091F8038D879E87AF87B88BC1
:100620008091FF0390910004A0910104B091020415
:10063000898B9A8BAB8BBC8B6091F9037091FA0319
:10064000882777FD8095982F2D8B3E8B4F8B588F69
:100650000E9465136B017C012D893E894F89588D5D
:10066000C301B2010E9461129B01AC01C501B4013A
:100670000E9419144B015C012D853E854F855889D8
:1006800069857A858B859C850E9419149B01AC0134
:10069000C501B4010E9462124B015C012D813E81B3
:1006A0004F81588569817A818B819C810E9461127A
:1006B0002AE037ED43E25CE30E94CA129B01AC01E1
:1006C00069897A898B899C890E9419149B01AC01E4
:1006D000C501B4010E9462129B01AC01C701B601C1
:1006E0000E9462120E9432137093FA036093F9031E
:1006F0008091F9039091FA03E8DD80911D049091B7
:100700001E04A0911F04B0912004853F9140A105D3
:10071000B1050CF403C1F8C080911D0490911E0432
:10072000A0911F04B09120040196A11DB11D8093DA
:100730001D0490931E04A0931F04B093200481E035
:1007400080932104609130047091310480913204CF
:10075000909133040E946513609313047093140402
:1007600080931504909316046091170470911804F7
:100770008091190490911A0420911304309114046B
:1007800040911504509116040E9461126093F50384
:100790007093F6038093F7039093F8036091F50349
:1007A0007091F6038091F7039091F8032AE037EDFA
:1007B00043E25CE30E9419142091E1033091E203CB
:1007C0004091E3035091E4030E9462126B017C01AB
:1007D0006093E1037093E2038093E3039093E40357
:1007E0008090F5039090F603A090F703B090F80383
:1007F00089829A82AB82BC828090E5039090E60366
:10080000A090E703B090E8038D829E82AF82B88605
:1008100060910704709108048091090490910A0482
:100820002091F5033091F6034091F7035091F803BE
:1008300040900304509004046090050470900604F6
:100840008090FF0390900004A0900104B0900204F7
:1008500089869A86AB86BC860E9419144B015C017E
:10086000A7019601C301B2010E9419149B01AC01BA
:10087000C501B4010E9462126B017C012D813E8191
:100880004F81588569817A818B819C810E94611298
:100890002AE037ED43E25CE30E94CA129B01AC01FF
:1008A00069857A858B859C850E9419149B01AC0112
:1008B000C701B6010E9462120E9432137093FA03BC
:1008C0006093F9038091F9039091FA03FEDC809123
:1008D000F5039091F603A091F703B091F80380938C
:1008E000E5039093E603A093E703B093E8038091B8
:1008F0001D0490911E04A0911F04B0912004853F17
:100900009140A105B10554F01092260410921D04E7
:1009100010921E0410921F041092200468960FB6C5
:10092000F894DEBF0FBECDBFDF91CF91FF91EF9165
:10093000BF91AF919F918F917F916F915F914F91F7
:100940003F912F91FF90EF90DF90CF90BF90AF90AD
:100950009F908F907F906F905F904F900F900BBE05
:100960000F900FBE0F901F9018958091FD0360E0CF
:10097000882391F180E04AD780910B0490910C0478
:10098000A0910D04B0910E04BF93AF939F938F93EA
:100990008AE391E09F938F930E94042061E080E0BE
:1009A00035D780910F0490911004A0911104B0915B
:1009B0001204BF93AF939F938F9382E491E09F9330
:1009C0008F930E9404208DB79EB70C960FB6F894B3
:1009D0009EBF0FBE8DBF089580E018D7809113048D
:1009E00090911404A0911504B0911604BF93AF9395
:1009F0009F938F938AE391E09F938F930E940420AB
:100A000061E080E003D78091170490911804A091D1
:100A10001904B0911A04BF93AF939F938F9389E405
:100A200091E09F938F930E9404208DB79EB70C9600
:100A30000FB6F8949EBF0FBE8DBF089560E080E0B2
:100A4000E5D68091F1039091F203A091F303B09168
:100A5000F403BF93AF939F938F9381E591E09F93AE
:100A60008F930E94042060E088E0D0D68091F50347
:100A70009091F603A091F703B091F803BF93AF9361
:100A80009F938F9389E591E09F938F930E94042019
:100A900061E080E0BBD68091ED039091EE03A091E0
:100AA000EF03B091F003BF93AF939F938F9381E6D1
:100AB00091E09F938F930E9404208DB79EB742963A
:100AC0000FB6F8949EBF0FBE8DBF089589E190E0E8
:100AD000FCDB88EE93E00E94F61187EE9FEFF5DBDA
:100AE00088EE93E00E94F6111092B30008951092E0
:100AF0000704109208041092090410920A0410923C
:100B0000030410920404109205041092060410923B
:100B1000FF0310920004109201041092020480E07E
:100B200090E0D3DB1092FE030895CF93DF93CDB70F
:100B3000DEB7E4970FB6F894DEBF0FBECDBF45D643
:100B4000B6D746D3A2DB78948E010F5F1F4F8EE994
:100B5000282E81E0382E80912804882339F035D65C
:100B60008091280421E08227809328048091FE034D
:100B7000882309F4B1C0209126013091270180918A
:100B80001B0490911C042817390709F4A5C0E090B4
:100B90002601F090270132E0E316F10479F183E0B9
:100BA000E816F10409F461C091E0E916F10409F0D6
:100BB00081C060911704709118048091190490917C
:100BC0001A042FED3FE84CE054E40E946212609357
:100BD0001704709318048093190490931A04809159
:100BE000170490911804A0911904B0911A04BF93AE
:100BF000AF939F938F93A9E6B1E024C0609117044F
:100C0000709118048091190490911A042FED3FE817
:100C10004CE055E40E94611260931704709318042D
:100C20008093190490931A048091170490911804EA
:100C3000A0911904B0911A04BF93AF939F938F931F
:100C4000A7E7B1E0BF93AF931F930F930E941620C5
:100C5000BC01C8013CD2F0921C04E0921B040FB608
:100C6000F894DEBF0FBECDBF37C0609117047091FE
:100C700018048091190490911A0424E533EE49EF89
:100C800051E40E94621260931704709318048093D9
:100C9000190490931A048091170490911804A0915C
:100CA0001904B0911A04BF93AF939F938F93A5E853
:100CB000B1E0C8CF63E971E0C8010E94381F6AE063
:100CC00070E0C80104D21092FE0381E090E090939E
:100CD0002701809326010BDF80912704882309F4E4
:100CE00059C080912604882309F454C080912404BB
:100CF000909125040196909325048093240480917B
:100D0000FD032091F9033091FA03882389F0409183
:100D10000F0450911004609111047091120480919D
:100D2000E9039091EA03A091EB03B091EC0310C0AA
:100D300040911704509118046091190470911A049D
:100D40008091130490911404A0911504B09116049D
:100D50003F932F937F936F935F934F93BF93AF9383
:100D60009F938F933F922F921F930F930E94162071
:100D7000BC01C801ACD11092260410921D0410923F
:100D80001E0410921F04109220040FB6F894DEBFC8
:100D90000FBECDBF8091270481110CC08091240427
:100DA00090912504181619062CF4BED11092250432
:100DB0001092240480912204882309F471C0C09009
:100DC000FF03D0900004E0900104F09002044091F1
:100DD000030450910404609105047091060480910D
:100DE000070490910804A0910904B0910A04FF92AD
:100DF000EF92DF92CF927F936F935F934F93BF9366
:100E0000AF939F938F93AFEAB1E0BF93AF931F93DC
:100E10000F930E941620BC01C80159D120911B04D8
:100E200030911C0480912601909127013F932F93CC
:100E30009F938F93AEECB1E0BF93AF931F930F934B
:100E40000E941620BC01C80142D180911D049091DE
:100E50001E04A0911F04B091200430912104209120
:100E60002604BF93AF939F938F931F923F931F923C
:100E70002F93A4EEB1E0BF93AF931F930F930E9403
:100E800016200FB6F894DEBF0FBECDBFBC01C8015F
:100E90001ED18091220431E083278093220444D123
:100EA00080912104882309F406C18091FE038823E0
:100EB00039F12091F9033091FA03409117045091D0
:100EC00018046091190470911A0480911304909190
:100ED0001404A0911504B09116043F932F937F93AF
:100EE0006F935F934F93BF93AF939F938F93A1EFB4
:100EF000B1E0BF93AF931F930F930E941620D1C010
:100F000080912304882311F099DD01C02EDD8091AA
:100F1000FD03882309F45EC080912604882309F428
:100F200059C080911D0490911E04A0911F04B0919E
:100F3000200489AB9AABABABBCAB2091F9033091E9
:100F4000FA0340900F0450901004609011047090C8
:100F5000120480900B0490900C04A0900D04B090AB
:100F60000E04C090ED03D090EE03E090EF03F090FC
:100F7000F0034091F1035091F2036091F3037091FB
:100F8000F4038091F5039091F603A091F703B091DB
:100F9000F803ECA9EF93EBA9EF93EAA9EF93E9A982
:100FA000EF933F932F937F926F925F924F92BF92F6
:100FB000AF929F928F92FF92EF92DF92CF927F93A8
:100FC0006F935F934F93BF93AF939F938F93A2E0E1
:100FD000B2E061C08091FD0381116BC08091260455
:100FE000882309F466C080911D0490911E04A0918D
:100FF0001F04B091200489AB9AABABABBCAB209182
:10100000F9033091FA03409017045090180460904F
:10101000190470901A048090130490901404A09006
:101020001504B0901604C090ED03D090EE03E0904C
:10103000EF03F090F0038091F1039091F203A091FF
:10104000F303B091F4034091F5035091F6036091DE
:10105000F7037091F803ECA9EF93EBA9EF93EAA9DA
:10106000EF93E9A9EF933F932F937F926F925F9253
:101070004F92BF92AF929F928F92FF92EF92DF9228
:10108000CF92BF93AF939F938F937F936F935F9311
:101090004F93A6E2B2E0BF93AF931F930F930E94CA
:1010A0001620BC01C80113D00FB6F894DEBF0FBEE6
:1010B000CDBF109221040E94211137D24CCD82E085
:1010C00008D5811103C00E942111F9CF0895462F40
:1010D000BC0182E00E945511F2CF0F931F93CF9372
:1010E000DF93CDB7DEB7E0970FB6F894DEBF0FBE43
:1010F000CDBF9F938F938E010F5F1F4F1F930F9351
:101100000E941620BC01C801E2DF0F900F900F90E3
:101110000F90E0960FB6F894DEBF0FBECDBFDF9103
:10112000CF911F910F9108950F931F93CF93DF934A
:10113000CDB7DEB7E0970FB6F894DEBF0FBECDBFD8
:10114000809102048F93809101048F938091000419
:101150008F938091FF038F93809106048F938091EA
:1011600005048F93809104048F93809103048F93DF
:1011700080910A048F93809109048F9380910804D1
:101180008F93809107048F938FEA91E09F938F93C1
:101190008E010F5F1F4F1F930F930E941620BC01FB
:1011A000C80195DF8AE492E098DF81E692E095DF5E
:1011B0000FB6F894DEBF0FBECDBFE0960FB6F89421
:1011C000DEBF0FBECDBFDF91CF911F910F9108956C
:1011D00040E855E260E070E082E085D740E366E3F6
:1011E00074E082E06AD687E792E077DF9DCF80E007
:1011F00090E0A0E0BFE38093070490930804A093DD
:101200000904B0930A0480E090E0A0ECBFE380936F
:10121000030490930404A0930504B093060487E1AB
:1012200097EBA1EDB8E38093FF0390930004A093A4
:101230000104B093020408958AE999E9A9E9BEE39B
:101240008093070490930804A0930904B0930A04C0
:1012500080E090E0A0E0BFE3809303049093040457
:10126000A0930504B09306048DEC9CECACECBDE3BC
:101270008093FF0390930004A0930104B0930204B1
:1012800008958AE999E9A9E9BEE380930704909358
:101290000804A0930904B0930A0486EA9BE9A4EC2D
:1012A000BBE38093030490930404A0930504B093DC
:1012B00006048AE999E9A9E1BEE38093FF039093CC
:1012C0000004A0930104B09302040895109207044F
:1012D000109208041092090410920A041092030458
:1012E0001092040410920504109206041092FF0359
:1012F00010920004109201041092020408950F93BA
:101300001F93CF93DF93CDB7DEB7E5970FB6F89471
:10131000DEBF0FBECDBF9E012F5C3F4F3F932F938B
:101320002C5F3F4F3F932F9322E932E03F932F935F
:101330009F938F930E9445208CA98F938BA98F93A5
:101340008AA98F9389A98F938DA91F928F9388E97A
:1013500092E09F938F938E010F5F1F4F1F930F9308
:101360000E941620BC01C801B2DE0FB6F894DEBFA1
:101370000FBECDBF8DA990E0FC01FF97E833F105CA
:1013800008F0BFC0EA5BFF4F0C94BD1C809127049E
:1013900091E0892780932704B8C081E080932204DC
:1013A000B4C020E030E0A901609107047091080406
:1013B0008091090490910A040E94C612811101C013
:1013C0003BDF1092FD0381E08093260410921D0400
:1013D00010921E0410921F041092200489A99AA949
:1013E000ABA9BCA98093170490931804A093190487
:1013F000B0931A048AC020E030E0A901609107048C
:10140000709108048091090490910A040E94C61208
:10141000811101C0ECDE81E08093FD0380932604FE
:1014200010921D0410921E0410921F0410922004AA
:1014300089A99AA9ABA9BCA980930F049093100421
:10144000A0931104B093120460C089A99AA9ABA912
:10145000BCA98093070490930804A0930904B09357
:101460000A0453C089A99AA9ABA9BCA98093030413
:1014700090930404A0930504B093060446C089A980
:101480009AA9ABA9BCA98093FF0390930004A093F1
:101490000104B093020439C091E090932804809134
:1014A000230489278093230430C010DB2EC0E9DE9B
:1014B00081E08093FE031092FD0327C00E94650126
:1014C00005DF23C085EA92E008DE82EC92E005DECB
:1014D0008EED92E002DE81E093E0FFDD82E293E0B8
:1014E000FCDD8AE393E0F9DD82E593E0F6DD8AE650
:1014F00093E0F3DD8BE793E0F0DD88E993E0EDDD49
:1015000004C08FEA93E0E9DD05C0809122048111D7
:1015100001C00ADEE5960FB6F894DEBF0FBECDBF60
:10152000DF91CF911F910F910895CF93DF93CDB7A6
:10153000DEB7A0970FB6F894DEBF0FBECDBF82E036
:10154000B8D2909166042091340430913504891703
:10155000D9F0A1E0B0E0AC0FBD1FA20FB31FE92F7F
:10156000F0E0EA5CFB4F80818C932F5F3F4F30931C
:101570003504209334049F3219F410926604DFCFAF
:101580009F5F90936604DBCF21153105B1F02130C8
:10159000310529F489818A3061F08D3051F0E1E024
:1015A000F0E0EC0FFD1FE20FF31F1082CE01019659
:1015B000A6DE1092350410923404A0960FB6F8946B
:1015C000DEBF0FBECDBFDF91CF91089580E090E0E8
:1015D000089581E090E06F9364E06A95F1F76F9170
:1015E0000197C9F708950F931F93CF93DF9317B116
:1015F0003D982898299AC0E0D0E0EBDF2A9AE9DFED
:1016000006B12A98E6DF2A9AE4DF2A98249605FF95
:1016100010C09E0140E050E08091C8039091C90342
:10162000A091CA03B091CB03281739074A075B077B
:1016300020F39E0140E050E08091C8039091C903DF
:10164000A091CA03B091CB03281739074A075B075B
:1016500028F082E390E0A0E0B0E004C080E395E7EA
:10166000A0E0B0E08093C8039093C903A093CA039D
:10167000B093CB0317B9DF91CF911F910F910895CC
:1016800028B190E08F709070880F991F880F991F74
:10169000237C282B28B92A9A9CDF2A989ACFA2E08B
:1016A000B0E0E5E5FBE00C94DA1C182F4A8369836F
:1016B00058D099DFF7B008B1299869814A8166232B
:1016C00011F0289A01C0289887B18C6387B94130FE
:1016D00021F0812F82958F70D3DF812F8F70D0DF23
:1016E000F7B808B92296E5E00C94F61C60E042E0F9
:1016F000D6CF61E042E0D3CF60E041E0D0CF3D986B
:10170000459A80E395E7A0E0B0E08093C80390930A
:10171000C903A093CA03B093CB03209A219A229ABB
:101720008EE190E063D683E0E7DF86E090E05ED66E
:1017300083E0E2DF82E090E059D683E0DDDF82E003
:1017400090E054D682E0D8DF82E090E04FD688E285
:10175000CDDF88E0CBDF81E0C9DF86E0C7DF8CE04A
:10176000C5CF8091CC03882321F481E08093CC0302
:10177000C6CF089581E0BADF8091C4039091C5037C
:10178000009711F1A0E0B0E208C0E091C403F0912D
:10179000C503E20FF31FB083AF5F2A2F30E08091C3
:1017A000000190E001976091010170E0869FA00127
:1017B000879F500D969F500D1124241735072CF349
:1017C0001092C7031092C6030895D4CF0895A5E0E0
:1017D000B0E0EDEEFBE00C94DC1C182F80E8898370
:1017E00080EC8A8384E98B8384ED8C83FE01E60F91
:1017F000F11D8181810F6D8379DF1093C7036D81A6
:101800006093C6032596E3E00C94F81CE0CF08959E
:10181000A0E0B0E0EEE0FCE00C94D71CD82E809164
:10182000C4039091C503009709F4F2C02D2D2A300E
:1018300009F442C02830C9F48091C70381508093D5
:10184000C7038F3F51F48091C60381508093C60334
:101850008091010181508093C7038091C6038F3F1F
:1018600009F0D1C01092C603CCC08D2D42DF80910B
:10187000C6038823B9F090E001974091010150E040
:10188000849F9001859F300D949F300D112480918D
:10189000C703E091C403F091C503E20FF31FE80F03
:1018A000F11DD0828091C7038F5F8093C703909111
:1018B0000101891709F0ACC04091C603242F30E024
:1018C0008091000190E001972817390709F096C030
:1018D000C0E0D0E03FC080E06C2F79DFCC248E01E7
:1018E0000F5F1F4F32C0EC2CFF2430E0C29FC001BD
:1018F000C39F900DD29F900D1124E091C403F091ED
:10190000C503EE0DFF1DE80FF91F8081F2DE809107
:10191000C4039091C5032091010130E0C29FF00102
:10192000C39FF00DD29FF00D11248E0D9F1DE80F67
:10193000F91F029FD001039FB00D129FB00D11241B
:10194000A80FB91F8C918083C39420910101C21606
:1019500050F2E80160910001862F90E00297C817CD
:10196000D9070CF4B8CF6230D0F1625080E02FDF9D
:1019700000E010E230C0C02FD0E08091000190E084
:10198000029750E0849F9001859F300D949F300D09
:101990001124E091C403F091C503EC0FFD1FE20F89
:1019A000F31F8081A6DE8091000190E002974091B4
:1019B000010150E0849F9001859F300D949F300D70
:1019C0001124E091C403F091C503EC0FFD1FE20F59
:1019D000F31F10830F5F40910101041760F26091C3
:1019E0000001615080E0F3DE10E003C080E281DEA0
:1019F0001F5F809101011817C8F303C04F5F409328
:101A0000C6031092C7038091C7036091C603DFDE4F
:101A10002D2D332727FD3095C901CDB7DEB7E8E07E
:101A20000C94F31C8091C4039091C503009711F0AE
:101A30000E94AB1D2091000130E021503040809188
:101A4000010190E0AC01249FC001259F900D349FBF
:101A5000900D11240E94131D9093C5038093C4031D
:101A6000009721F1A0E0B0E208C0E091C403F0913A
:101A7000C503E20FF31FB083AF5F2A2F30E08091E0
:101A8000000190E001976091010170E0869FA00144
:101A9000879F500D969F500D1124241735072CF366
:101AA00088E09CE066EE7AE00C944A1F0895BACF75
:101AB0000895282F30E0F901EE0FFF1F43E0220FB9
:101AC000331F4A95E1F7E20FF31FEE5FFE4F82816D
:101AD0000895282F30E0F901EE0FFF1F73E0220F69
:101AE000331F7A95E1F7E20FF31FEE5FFE4F41815E
:101AF000282F30E0F901EE0FFF1F53E0220F331FB4
:101B00005A95E1F7E20FF31FEE5FFE4F81E09381FC
:101B1000491380E00895282F30E0F901EE0FFF1FF0
:101B2000B3E0220F331FBA95E1F7E20FF31FEE5F28
:101B3000FE4F408551854115510509F452C0282FAB
:101B400030E0F901EE0FFF1F73E0220F331F7A958B
:101B5000E1F7E20FF31FEE5FFE4F7281282F30E0B6
:101B6000F901EE0FFF1FB3E0220F331FBA95E1F723
:101B7000E20FF31FEE5FFE4F9481791790F5282F47
:101B800030E0F901EE0FFF1F73E0220F331F7A954B
:101B9000E1F7E20FF31FEE5FFE4F9281490F511DF7
:101BA000FA016083282F30E0F901EE0FFF1F53E0A8
:101BB000220F331F5A95E1F7E20FF31FEE5FFE4F3E
:101BC00092819F5F282F30E0F901EE0FFF1FB3E0F5
:101BD000220F331FBA95E1F7E20FF31FEE5FFE4FBE
:101BE0009283282F30E0F901EE0FFF1F73E0220FE0
:101BF000331F7A95E1F7E20FF31FEE5FFE4F42814C
:101C0000282F30E0F901EE0FFF1F53E0220F331FA2
:101C10005A95E1F7E20FF31FEE5FFE4F94814917EB
:101C200001F5282F30E0F901EE0FFF1F93E0220F9E
:101C3000331F9A95E1F7E20FF31FEE5FFE4F958198
:101C4000992379F0282F30E0F901EE0FFF1FB3E060
:101C5000220F331FBA95E1F7E20FF31FEE5FFE4F3D
:101C6000128208950F931F93182F823009F474C0C5
:101C7000882319F4E1ECF0E002C0E9ECF0E08081A7
:101C80008F778083812F90E0FC01EE0FFF1F03E030
:101C9000880F991F0A95E1F7E80FF91FEE5FFE4FD5
:101CA000808591850097A1F1212F30E0F901EE0F99
:101CB000FF1FA3E0220F331FAA95E1F7E20FF31FE6
:101CC000EE5FFE4F9281212F30E0F901EE0FFF1FF2
:101CD00063E0220F331F6A95E1F7E20FF31FEE5F17
:101CE000FE4F84819817A0F4112319F4E0ECF0E082
:101CF00002C0E8ECF0E0808187FF0AC0112319F4EC
:101D0000E6ECF0E002C0EEECF0E06081812F03DF52
:101D1000212F30E0F901EE0FFF1F43E0220F331FA8
:101D20004A95E1F7E20FF31FEE5FFE4F80818823B3
:101D300009F057C0112319F4E1ECF0E002C0E9EC1E
:101D4000F0E08081806880834CC080911B018823F3
:101D500019F01092180145C080911E0190911F0149
:101D6000009709F43EC09091180180911A019817CC
:101D7000C0F58091CD03882399F43DD38093CD03A2
:101D800010E00AC035D3E02FF0E03197E11BF109F4
:101D9000E253FC4F80831F5F0091CD03101790F337
:101DA000A091CD03AA23E9F080911801E0911E01D2
:101DB000F0911F01E80FF11DA150A093CD03B0E0F9
:101DC000A253BC4F8C918083809118018F5F8093C8
:101DD00018019091180180911A01981709F0BCCF51
:101DE000B4CF1F910F910895823051F0882319F4D8
:101DF000E1ECF0E002C0E9ECF0E090819F779083A5
:101E0000A82FB0E0FD01EE0FFF1F53E0AA0FBB1F8C
:101E10005A95E1F7EA0FFB1FEE5FFE4F718760876F
:101E2000682F70E0FB01EE0FFF1F93E0660F771F36
:101E30009A95E1F7E60FF71FEE5FFE4F1282682FCB
:101E400070E0FB01EE0FFF1FA3E0660F771FAA955E
:101E5000E1F7E60FF71FEE5FFE4F4483482F50E097
:101E6000FA01EE0FFF1F63E0440F551F6A95E1F77B
:101E7000E40FF51FEE5FFE4F25838230D9F0282F47
:101E800030E0F901EE0FFF1F43E0220F331F4A95A8
:101E9000E1F7E20FF31FEE5FFE4F9081992351F4BB
:101EA000882319F4E1ECF0E002C0E9ECF0E0808175
:101EB00080688083089521E097CFFDCF08951F9219
:101EC0000F920FB60F920BB60F9211242F933F93E0
:101ED0004F935F936F937F938F939F93AF93BF9332
:101EE000EF93FF936091C60080E015DEFF91EF91C4
:101EF000BF91AF919F918F917F916F915F914F9122
:101F00003F912F910F900BBE0F900FBE0F901F901F
:101F100018951F920F920FB60F920BB60F921124C5
:101F20002F933F934F935F936F937F938F939F93E1
:101F3000AF93BF93EF93FF936091CE0081E0EBDD11
:101F4000FF91EF91BF91AF919F918F917F916F9191
:101F50005F914F913F912F910F900BBE0F900FBE4D
:101F60000F901F901895882319F4E1ECF0E002C05F
:101F7000E9ECF0E08081806280830895882319F481
:101F8000E1ECF0E002C0E9ECF0E080818F7D80833D
:101F90000895282F30E0F901EE0FFF1F93E0220F84
:101FA000331F9A95E1F7E20FF31FEE5FFE4F268194
:101FB00037812115310591F1282F30E0F901EE0F1D
:101FC000FF1FA3E0220F331FAA95E1F7E20FF31FD3
:101FD000EE5FFE4F4181282F30E0F901EE0FFF1F29
:101FE00063E0220F331F6A95E1F7E20FF31FEE5F04
:101FF000FE4F9381491790F4282F30E0F901EE0F3E
:10200000FF1F43E0220F331F4A95E1F7E20FF31F52
:10201000EE5FFE4F9081992309F4A5CFAFCF8230B8
:1020200029F1282F30E0F901EE0FFF1F53E0220FB6
:10203000331F5A95E1F7E20FF31FEE5FFE4F9081D9
:10204000992349F4882319F4E1ECF0E002C0E9ECAB
:10205000F0E098E908C0882319F4E1ECF0E002C050
:10206000E9ECF0E098E1908394DF78940895882378
:1020700019F0813029F402C080E0D1CF81E0CFCFC8
:102080000895A0E0B0E0E7E4F0E10C94D81CD82E6D
:102090007A018B01ECDF8D2D823001F1DD2019F406
:1020A000C4ECD0E002C0CCECD0E0C801B70128EF0E
:1020B0003FEF4FEF5FEF0E948C1C6050734D8E4CD2
:1020C0009E4FA8019701E4E0220F331F441F551FC4
:1020D000EA95D1F70E949B1C39832883CDB7DEB7E0
:1020E000E7E00C94F41CCDCF0895282F30E0F901DF
:1020F000EE0FFF1F73E0220F331F7A95E1F7E20F17
:10210000F31FEE5FFE4F468157814115510509F4DB
:1021100065C0282F30E0F901EE0FFF1F93E0220F7A
:10212000331F9A95E1F7E20FF31FEE5FFE4F6181D7
:10213000282F30E0F901EE0FFF1FA3E0220F331F1D
:10214000AA95E1F7E20FF31FEE5FFE4F9381691747
:1021500008F044C0882319F4E0ECF0E002C0E8EC99
:10216000F0E0908195FF3AC0882319F4A6ECB0E026
:1021700002C0AEECB0E0282F30E0F901EE0FFF1FF7
:1021800063E0220F331F6A95E1F7E20FF31FEE5F62
:10219000FE4F9181490F511DFA0190819C93282F88
:1021A00030E0F901EE0FFF1F93E0220F331F9A95E5
:1021B000E1F7E20FF31FEE5FFE4F91819F5F282F43
:1021C00030E0F901EE0FFF1FA3E0220F331FAA95A5
:1021D000E1F7E20FF31FEE5FFE4F9183DACE1F931C
:1021E000182F823021F0CADE812F7FDF1CC0809142
:1021F0001C0190911D010097B1F0309117012091C1
:102200001901321780F406C0809117018F5F809307
:102210001701EDCF20911701820F911DFC018081E4
:10222000EED0882389F71F91089580E0D8DF81E000
:10223000D6DF82E0D4DF80E015DD81E013DD82E0CF
:1022400011CDF3CF0895282F30E0F901EE0FFF1FD5
:1022500093E0220F331F9A95E1F7E20FF31FEE5F31
:10226000FE4F77836683282F30E0F901EE0FFF1FC2
:10227000A3E0220F331FAA95E1F7E20FF31FEE5FF1
:10228000FE4F1182282F30E0F901EE0FFF1F63E0AF
:10229000220F331F6A95E1F7E20FF31FEE5FFE4F47
:1022A0004383823009F075CE0895CDCF08951F92F3
:1022B0000F920FB60F920BB60F9211242F933F93EC
:1022C0004F935F936F937F938F939F93AF93BF933E
:1022D000EF93FF9380E009DFFF91EF91BF91AF9102
:1022E0009F918F917F916F915F914F913F912F912E
:1022F0000F900BBE0F900FBE0F901F9018951F925E
:102300000F920FB60F920BB60F9211242F933F939B
:102310004F935F936F937F938F939F93AF93BF93ED
:10232000EF93FF9381E0E1DEFF91EF91BF91AF91D9
:102330009F918F917F916F915F914F913F912F91DD
:102340000F900BBE0F900FBE0F901F9018956F93BC
:1023500064E06A95F1F76F910197C9F708952F929C
:102360008F939F932FB68091D7039091D8030196B6
:102370008093D7039093D80390E08091D903891F6D
:102380008093D9039091DF039C5F9093DF0380914A
:10239000DE0380519742C0F09093DF038093DE0309
:1023A0008091DA039091DB0301968093DA03909396
:1023B000DB0390E08091DC03891F8093DC03809134
:1023C000DD03891F8093DD032FBE9F918F912F9096
:1023D0001895CF93DF93EC0104C088EE93E0B7DF4C
:1023E00021972097D1F7DF91CF910895F2CF0895EB
:1023F0008FEF64E043C083E867E040D0F9CF1F93DC
:10240000182F982F9095991F9927991F85E8891B58
:1024100065E034D0812F8F7765E030D01F9108952B
:102420006F9364E06A95F1F76F910197C9F708958A
:10243000A1E0B0E0EEE1F2E10C94DC1C182F24994D
:1024400008C02C9906C02C9A8EE190E06983E8DFE1
:10245000698184B1806A84B92698812F83708065F0
:102460006C7A862B8CBD81E012FF80E08DBD81E00F
:1024700090E0AFDF2196E3E00C94F81C0F931F93DC
:10248000082F162F0CB406FC03C080E064E0D0DFF8
:102490000CB404FC03C08CB580618CBD0EBD03C0C0
:1024A0000CB404FE0AC00DB407FEFACF112319F0D4
:1024B000812F90E0B5DF8EB501C080E01F910F91B4
:1024C00008955058BB27AA270ED075C166D130F0A9
:1024D0006BD120F031F49F3F11F41EF45BC10EF478
:1024E000E095E7FB51C1E92F77D180F3BA17620776
:1024F00073078407950718F071F49EF58FC10EF4E9
:10250000E0950B2EBA2FA02D0B01B90190010C0103
:10251000CA01A0011124FF27591B99F0593F50F41B
:10252000503E68F11A16F040A22F232F342F442773
:10253000585FF3CF469537952795A795F04053956B
:10254000C9F77EF41F16BA0B620B730B840BBAF03B
:102550009150A1F0FF0FBB1F661F771F881FC2F7A6
:102560000EC0BA0F621F731F841F48F487957795BA
:102570006795B795F7959E3F08F0B3CF9395880F71
:1025800008F09927EE0F979587950895D9D008F40C
:1025900081E008950CD00FC107D140F0FED030F09B
:1025A00021F45F3F19F0F0C0511139C1F3C014D1CB
:1025B00098F39923C9F35523B1F3951B550BBB270A
:1025C000AA2762177307840738F09F5F5F4F220FB7
:1025D000331F441FAA1FA9F333D00E2E3AF0E0E8B0
:1025E00030D091505040E695001CCAF729D0FE2FFC
:1025F00027D0660F771F881FBB1F2617370748078E
:10260000AB07B0E809F0BB0B802DBF01FF27935843
:102610005F4F2AF09E3F510568F0B6C000C15F3F92
:10262000ECF3983EDCF3869577956795B795F7952B
:102630009F5FC9F7880F911D9695879597F9089523
:10264000E1E0660F771F881FBB1F621773078407BF
:10265000BA0720F0621B730B840BBA0BEE1F88F7CE
:10266000E095089504D06894B111D9C00895BCD004
:1026700088F09F5790F0B92F9927B751A0F0D1F06B
:10268000660F771F881F991F1AF0BA95C9F712C0F5
:10269000B13081F0C3D0B1E00895C0C0672F782F6A
:1026A0008827B85F39F0B93FCCF386957795679561
:1026B000B395D9F73EF490958095709561957F4FCD
:1026C0008F4F9F4F0895E89409C097FB3EF4909573
:1026D0008095709561957F4F8F4F9F4F9923A9F0FB
:1026E000F92F96E9BB279395F6958795779567958A
:1026F000B795F111F8CFFAF4BB0F11F460FF1BC0CE
:102700006F5F7F4F8F4F9F4F16C0882311F096E960
:1027100011C0772321F09EE8872F762F05C066230E
:1027200071F096E8862F70E060E02AF09A95660FC7
:10273000771F881FDAF7880F9695879597F9089580
:10274000990F0008550FAA0BE0E8FEEF16161706C2
:10275000E807F907C0F012161306E407F50798F02A
:10276000621B730B840B950B39F40A2661F0232B43
:10277000242B252B21F408950A2609F4A140A695BF
:102780008FEF811D811D089597F99F6780E870E0A4
:1027900060E008959FEF80EC089500240A941616D7
:1027A000170618060906089500240A94121613063F
:1027B000140605060895092E0394000C11F48823CD
:1027C00052F0BB0F40F4BF2B11F460FF04C06F5FE9
:1027D0007F4F8F4F9F4F089557FD9058440F551FBF
:1027E00059F05F3F71F04795880F97FB991F61F093
:1027F0009F3F79F087950895121613061406551F0A
:10280000F2CF4695F1DF08C0161617061806991F75
:10281000F1CF86957105610508940895E894BB276A
:1028200066277727CB0197F908958ADF08F48FEFA1
:1028300008950BD0C0CFB1DF28F0B6DF18F0952394
:1028400009F0A2CFA7CF1124EACFC6DFA0F3959F4E
:10285000D1F3950F50E0551F629FF001729FBB2787
:10286000F00DB11D639FAA27F00DB11DAA1F649F33
:102870006627B00DA11D661F829F2227B00DA11DE6
:10288000621F739FB00DA11D621F839FA00D611D6C
:10289000221F749F3327A00D611D231F849F600D8D
:1028A000211D822F762F6A2F11249F5750408AF0C6
:1028B000E1F088234AF0EE0FFF1FBB1F661F771F52
:1028C000881F91505040A9F79E3F510570F05CCF92
:1028D000A6CF5F3FECF3983EDCF38695779567953E
:1028E000B795F795E7959F5FC1F7FE2B880F911D70
:1028F0009695879597F908952F923F924F925F9200
:102900006F927F928F929F92AF92BF92CF92DF92FF
:10291000EF92FF920F931F93CF93DF93CDB7DEB764
:1029200063970FB6F894DEBF0FBECDBF7C011B01CD
:102930006A01FC0117821682838181FF62C3BE0196
:102940006F5F7F4F4B01F7019381F10193FD8591FB
:1029500093FF81911F01882309F44FC3853239F415
:1029600093FD859193FF81911F01853239F4B70161
:1029700090E00E94D21F56016501E5CF10E0512C76
:1029800020E02032A0F48B3269F030F4803259F02C
:10299000833269F420612CC08D3239F0803339F4F0
:1029A000216026C02260246023C0286021C027FD4A
:1029B00027C030ED380F3A3078F426FF06C0FAE031
:1029C0001F9F300D1124132F13C06AE0569E300D47
:1029D0001124532E20620CC08E3221F426FD0DC32B
:1029E000206406C08C3611F4206802C0883641F499
:1029F000F10193FD859193FF81911F018111C1CF59
:102A00009BEB980F933018F42061805E06C09BE921
:102A1000980F933008F0AAC12F7E26FF16E02F737F
:102A2000722E853621F4F22FF0647F2E08C0863690
:102A300021F4622F6068762E02C01111115077FECA
:102A400007C01C3348F444244394410E27E00BC0D4
:102A5000183030F4212F06C027E04CE3442E03C089
:102A600027E017E0412C560174E0A70EB11CF601D7
:102A70006081718182819381042DA4010E943A1E9C
:102A80006C01098100FF02C003FF06C071FC07C092
:102A900072FC08C0612C08C03DE2632E05C02BE229
:102AA000622E02C090E2692E802F8C7099F1662010
:102AB00011F084E001C083E0851510F0512C0BC0AB
:102AC000581A73FC08C0B70180E290E00E94D21F40
:102AD0005A94C9F7F3CF662029F0B701862D90E00C
:102AE0000E94D21F03FD03C000E011E002C00CEF02
:102AF00010E0F72DF0717F2EF8018491882309F4FE
:102B000073C271108052B70190E00E94D21F0F5F14
:102B10001F4FF2CF77FE0FC04C0C04FF04C08A8118
:102B2000813309F44A94141474F5F8E0F41578F537
:102B300088E0482E2CC076FC2AC0812F90E08C15AE
:102B40009D059CF06CEFC6166FEFD60674F0772DDE
:102B50007068772E0AC0E2E0F0E0EC0FFD1FE10F95
:102B6000F11D8081803319F411501111F4CF77FEDB
:102B70000EC044244394410E812F90E0C816D9061C
:102B80002CF41C1904C04424439401C010E077FEC7
:102B900007C01C141D043CF496012F5F3F4F05C075
:102BA00025E030E002C021E030E0662011F02F5F28
:102BB0003F4F112331F0412F50E04F5F5F4F240F03
:102BC000351F452D50E02417350714F4521A01C063
:102BD000512C872D897049F4552039F0B70180E2D6
:102BE00090E00E94D21F5A94F7CF662029F0B701D7
:102BF000862D90E00E94D21F73FC09C0552039F049
:102C0000B70180E390E00E94D21F5A94F7CF77FE7D
:102C10005FC09C2D8D2DD7FE02C090E080E0692E14
:102C2000782E40E050E0C601841991099D878C8779
:102C3000960126193709280D391D812F90E0EE27BE
:102C4000FF27E81BF90BFF87EE87FFEF6F167F0664
:102C500069F4B7018EE290E02B8B3A8B488B598B4D
:102C60000E94D21F598948893A892B89C614D704F2
:102C700054F06C857D85661577052CF4F901E40F19
:102C8000F51F818101C080E371E0671A71084F5F11
:102C90005F4FEE85FF856E167F066CF0B70190E002
:102CA0002B8B3A8B488B598B0E94D21F2B893A89E8
:102CB00048895989CACF6C147D0439F49A819633B6
:102CC00018F4953311F404FF81E3B70190E04BC091
:102CD0008A81813309F00F7EB70190E00E94D21FF4
:102CE000111105C074FE18C085E490E017C0B7014B
:102CF0008EE290E00E94D21F82E066246394680E08
:102D0000F401E80FF11D8081B70190E00E94D21F0D
:102D1000115041F3862DF1CF85E690E0B7010E9476
:102D2000D21FD7FC05C0C114D10439F404FF05C07B
:102D3000D194C194D1088DE201C08BE2B70190E03B
:102D40000E94D21F80E36AE0C616D1042CF08F5F88
:102D5000FAE0CF1AD108F7CFB70190E00E94D21F56
:102D6000B701C601C0960E94D21F3EC1833631F022
:102D7000833779F0833509F058C021C0560172E0DD
:102D8000A70EB11CF6018081898301E010E0640187
:102D900014C05601F2E0AF0EB11CF601C080D18024
:102DA00026FF03C0612F70E002C06FEF7FEFC60106
:102DB0002B8B0E943F1F8C012B892F7715C056014A
:102DC000F2E0AF0EB11CF601C080D18026FF03C037
:102DD000612F70E002C06FEF7FEFC6012B8B0E9466
:102DE0002D1F8C012B892068722E23FD1AC0852D82
:102DF00090E008171907A8F4B70180E290E00E945C
:102E0000D21F5A94F4CFF60177FC859177FE819119
:102E10006F01B70190E00E94D21F51105A940150E7
:102E200011090115110579F7DFC0843611F08936D3
:102E300051F5560127FF09C0F4E0AF0EB11CF601B1
:102E400060817181828193810AC0F2E0AF0EB11C72
:102E5000F60160817181882777FD8095982F022F78
:102E60000F7697FF08C090958095709561957F4F7C
:102E70008F4F9F4F00682AE030E0A4010E947F201E
:102E8000C82EC8183EC0022F853721F40F7E2AE0D5
:102E900030E01DC0097F8F3691F018F4883559F065
:102EA000ACC0803719F0883711F0A7C0006104FF6B
:102EB00009C0046007C024FF08C0066006C028E0FF
:102EC00030E005C020E130E002C020E132E05601F0
:102ED00007FF09C0F4E0AF0EB11CF60160817181FB
:102EE0008281938108C0F2E0AF0EB11CF6016081CF
:102EF000718180E090E0A4010E947F20C82EC81854
:102F00000F7706FF0BC0202F2E7FC11650F404FF51
:102F10000AC002FD08C0202F2E7E05C0DC2C202F09
:102F200003C0DC2C01C0D12E24FF0DC0FE01EC0D2E
:102F3000F11D8081803311F4297E09C022FF06C073
:102F4000D394D39404C0822F867809F0D39423FDC0
:102F500013C020FF06C01C2DD51418F4150D1D1923
:102F6000D52CD51468F4B70180E290E02B8B0E9439
:102F7000D21FD3942B89F5CFD51410F45D1801C05E
:102F8000512C24FF12C0B70180E390E02B8B0E94EC
:102F9000D21F2B8922FF16C021FF03C088E590E0D5
:102FA00002C088E790E0B7010CC0822F867851F00C
:102FB00021FD02C080E201C08BE227FD8DE2B70156
:102FC00090E0F0D7C11630F4B70180E390E0EAD783
:102FD0001150F8CFCA94F401EC0DF11D8081B701B6
:102FE00090E0E0D7C110F6CF552009F4C5CCB70169
:102FF00080E290E0D7D75A94F7CFF7018681978186
:1030000002C08FEF9FEF63960FB6F894DEBF0FBE3E
:10301000CDBFDF91CF911F910F91FF90EF90DF9087
:10302000CF90BF90AF909F908F907F906F905F9068
:103030004F903F902F90089520FD09C0FC0123FD83
:1030400005C022FF02C073836283518340830895C9
:1030500044FD10C046FD10C0DB01FC01AA0FBB1FE0
:10306000EE1FFF1F1094D1F76A0F7B1F8E1F9F1F4B
:1030700031E003C033E001C034E0660F771F881FE2
:10308000991F3150D1F7620F711D811D911D089557
:103090000F931F93CF93DF938C01C80145D7EC01A9
:1030A00097FD07C0BFD6892BC1F7B801CE010E949A
:1030B0006620CE01DF91CF911F910F9108956F92FD
:1030C0007F929F92AF92BF92CF92DF92EF92FF9248
:1030D0000F931F93CF93DF931F92CDB7DEB78C0171
:1030E0003B015A01298320D7AC01552729814B3256
:1030F000510521F04D32510579F4206831E0631A11
:1031000071086114710411F480E078C0C80129834A
:103110000BD7298197FDF8CFE22FED7F9E2E322F1E
:10312000307369F5803359F57301F1E0EF1AF10856
:10313000E114F10409F44FC0C8012983F5D62981AF
:1031400097FD49C0382F3F7D383579F4292D226409
:10315000922E32E0631A71086114710409F43BC0C5
:10316000C801E2D697FF0BC036C026FF04C0E92D88
:10317000E2609E2E03C0F92DF2619F2E3701C12C13
:10318000D12C760120ED280F283078F094FE03C072
:10319000B8019CD71DC02A3040F096FEF9CF2F7D94
:1031A0003FEE320F3630A0F72750492DC701B60148
:1031B0004FDF6B017C01292D2260922E31E0631AD2
:1031C00071086114710451F0C801AED697FFDACFCF
:1031D00091FC04C099CFC12CD12C760197FE08C078
:1031E000F094E094D094C094C11CD11CE11CF11C5B
:1031F000292DB701A601C5011FDF81E00F90DF91E6
:10320000CF911F910F91FF90EF90DF90CF90BF90E3
:10321000AF909F907F906F9008954F925F926F92C2
:103220007F928F929F92AF92BF92CF92DF92EF9256
:10323000FF920F931F93CF93DF93CDB7DEB7A09785
:103240000FB6F894DEBF0FBECDBF5C014B017A0113
:103250008E010F5F1F4F680180E2F80111928A957D
:10326000E9F7F501638080E090E0712C412CB0E03B
:1032700041E050E0F90163FC559063FE51908F01ED
:10328000A52D9F01511003C080E090E07DC0FEE5B8
:103290005F1202C0009761F16B2F70E06817790729
:1032A0004CF46DE5561661F1EDE25E1203C0442068
:1032B00009F103C0411001C0752C6A2F669566950F
:1032C0006695F601E60FF11D6A2F67708A0102C04C
:1032D000000F111F6A95E2F7B8017081762B708399
:1032E000A71559F0A71510F4AF5FE7CFA150E5CFB0
:1032F000B1E004C04424439401C0412C0196BACFEC
:10330000442019F08E8180628E83B11103C077242E
:10331000739419C0F601CE018196208120952193E6
:10332000E817F907D1F7F3CFE114F10429F0F70119
:103330008083C70101967C0191E0891A910881146C
:103340009104E1F0712CC501EFD597FD15C0282F30
:10335000269526952695F601E20FF11D208130E095
:10336000AC014770552702C0359527954A95E2F77D
:1033700020FDDACFB501AAD6711086CFE114F10491
:1033800011F0F7011082C801A0960FB6F894DEBFC5
:103390000FBECDBFDF91CF911F910F91FF90EF90A6
:1033A000DF90CF90BF90AF909F908F907F906F9065
:1033B0005F904F9008952F923F924F925F926F923D
:1033C0007F929F92AF92BF92CF92DF92EF92FF9245
:1033D0000F931F93CF93DF9300D000D000D0CDB7D1
:1033E000DEB76C018B011A019FD59E838D839927CF
:1033F0008B32910529F08D9791F480E8982E01C0C9
:10340000912C015011090115110511F480E028C11A
:10341000C6018AD59E838D8397FF02C0F7CF912C7A
:103420008D819E8107D58936910541F08E369105B3
:10343000C1F5B6E16B2EB1E07B2E04C0A9E16A2E86
:10344000A1E07A2E8FEF681A780AF3013197B490D1
:10345000BB20D9F0015011090115110559F0C60121
:1034600063D57C0197FD06C0E5D4B81659F3B601C3
:10347000C7012CD62CE1621621E0720609F0C6CFF6
:1034800080E090E0A0E8BFE709C099E1691691E00B
:103490007906B1F780E090E0A0ECBFE7BC01CD0178
:1034A000CFC0412C512C3201E12CF12C2D81205325
:1034B0002A3020F5E92DE260BE2E892D887092FE1B
:1034C00006C0811122C0FFEFEF1AFF0A1EC0882339
:1034D00019F081E0E81AF10840E2C301B201B8DD59
:1034E0002B013C0198E9491699E95906690699E1C9
:1034F000790658F0E92DE660BE2E07C02E3F99F4FC
:1035000093FC11C0F92DF860BF2E0150110901156F
:10351000110541F0C60108D59E838D839B2C97FD34
:1035200002C0C4CF9B2C91FE71CF8D818F7D8534DD
:1035300009F052C0580121E0A21AB108A114B10447
:1035400009F464CFC601F0D49E838D8397FD5ECFCE
:1035500099278B32910529F08D9779F4892D806117
:10356000982E580192E0A91AB108A114B10409F4E7
:103570004DCFC601D9D49E838D838D819E81C09706
:103580000A9708F043CF8501A12CB12CB5018827FB
:1035900077FD8095982F2D81205340E259DDAB01B6
:1035A000BC015A01015011090115110569F0C6014C
:1035B00049835A836B837C83B7D49E838D83C09762
:1035C00049815A810A9710F394FE04C0AA24BB24AF
:1035D000A41AB50AEA0CFB1C012B39F0ED81FE811F
:1035E000F7FD03C0B601CF0171D5C301B2016BD89D
:1035F000F7FE08C0F194E194F108F5E3AF2EF1E095
:10360000BF2E04C0EDE4AE2EE1E0BE2E6501F8E170
:10361000CF1AD10800E210E0E016F10648F0F501FB
:10362000259135914591549104D9E01AF10AF4CFCE
:1036300024E0A21AB10816950795AC14BD0461F7F1
:1036400097FE05C0DC01CB01B058BC01CD012114AF
:10365000310429F0F101608371838283938381E0D7
:1036600026960FB6F894DEBF0FBECDBFDF91CF9187
:103670001F910F91FF90EF90DF90CF90BF90AF9090
:103680009F907F906F905F904F903F902F90089504
:103690004F925F926F927F928F929F92AF92BF9262
:1036A000CF92DF92EF92FF920F931F93CF93DF930E
:1036B0001F92CDB7DEB78C012B017A01FC01178276
:1036C0001682A12CF801D380F201D3FC8591D3FEA0
:1036D0008191382F2F01882309F407C190E03983A5
:1036E000A1D33981892B19F0C801D2DCEBCF353257
:1036F00041F4F201D3FC3591D3FE31912F013532E3
:1037000059F4C801398310D4398197FDECC03817BA
:10371000C9F2B801DBD4E9C03A3241F4D3FC3591A7
:10372000D3FE31912F01BB24B39401C0B12C812C65
:10373000912C20ED230F2A3080F4FB2DF260BF2E58
:10374000B40180E090E040E283DC4B01F201D3FC65
:103750003591D3FE31912F01ECCFB1FE04C081141D
:10376000910421F4C2C088248A94982C383619F028
:103770003C3661F014C0F201D3FC3591D3FE319197
:103780002F01383661F4FB2DF860BF2E8B2D84603D
:10379000B82EF201D3FC3591D3FE31912F013323A2
:1037A00009F4A3C0632F70E084E091E039834AD329
:1037B0003981892B09F499C0B0FC07C0F701C0809A
:1037C000D180C70102967C0102C0C12CD12C3E36AB
:1037D00049F4F8014681578160E070E02B2DC60165
:1037E0002BDC70CF3336C1F4B1FC03C08824839442
:1037F000912CC80199D397FD76C0C114D10429F04A
:10380000F6018083C60101966C0191E0891A910846
:103810008114910471F763C03B3551F49201A60104
:10382000B401C801FADC2C01009709F058C052C05D
:10383000C80139832DDC398197FD55C03F36D9F158
:1038400040F43436A1F13936C9F1383509F03CC0BD
:103850002AC03337B9F018F4303729F135C035377D
:1038600031F1383701F130C0C114D10429F0F6012B
:103870006082C60101966C0191E0891A9108811459
:10388000910459F0C80150D33C0197FD06C0CAD23B
:10389000892B51F3B801C30119D4C114D104F9F033
:1038A000F60110821CC0FB2DF064BF2E07C08B2DCB
:1038B0008062B82E03C09B2D9061B92E2B2DA601DE
:1038C000B401C801FCDB04C0A601B401C80173DD6A
:1038D000811105C0F8018381807329F406C0B0FC12
:1038E000F1CEA394EFCEAA2019F08A2D90E002C069
:1038F0008FEF9FEF0F90DF91CF911F910F91FF906E
:10390000EF90DF90CF90BF90AF909F908F907F907F
:103910006F905F904F900895DB018F939F9333D00A
:10392000BF91AF91A29F800D911DA39F900DB29F5B
:10393000900D11240895A1E21A2EAA1BBB1BFD01B4
:103940000DC0AA1FBB1FEE1FFF1FA217B307E4077E
:10395000F50720F0A21BB30BE40BF50B661F771FD6
:10396000881F991F1A9469F76095709580959095B6
:103970009B01AC01BD01CF010895EE0FFF1F059023
:10398000F491E02D099440D0A59F900DB49F900D27
:10399000A49F800D911D112408952F923F924F9264
:1039A0005F926F927F928F929F92AF92BF92CF92CF
:1039B000DF92EF92FF920F931F93CF93DF93CDB7D8
:1039C000DEB7CA1BDB0B0FB6F894DEBF0FBECDBF50
:1039D00009942A88398848885F846E847D848C8421
:1039E0009B84AA84B984C884DF80EE80FD800C812A
:1039F0001B81AA81B981CE0FD11D0FB6F894DEBF0D
:103A00000FBECDBFED010895A29FB001B39FC001CD
:103A1000A39F700D811D1124911DB29F700D811DFA
:103A20001124911D0895CF93DF938230910510F4F6
:103A300082E090E0E0919904F0919A0420E030E077
:103A4000A0E0B0E0309739F1408151814817590723
:103A5000B8F04817590771F482819381109729F0C3
:103A600013969C938E9312972CC090939A048093F4
:103A7000990427C02115310531F04217530718F07A
:103A8000A901DB0101C0EF019A01BD01DF01028044
:103A9000F381E02DD7CF21153105F9F0281B390B23
:103AA0002430310580F48A819B816115710521F0F4
:103AB000FB019383828304C090939A0480939904BA
:103AC000FE01329644C0FE01E20FF31F81939193F1
:103AD00022503109398328833AC0209197043091CC
:103AE0009804232B41F4209122013091230130933B
:103AF00098042093970420912001309121012115F1
:103B0000310541F42DB73EB7409124015091250174
:103B1000241B350BE0919704F0919804E217F3070A
:103B2000A0F42E1B3F0B2817390778F0AC014E5F2D
:103B30005F4F2417350748F04E0F5F1F50939804CE
:103B4000409397048193919302C0E0E0F0E0CF01AD
:103B5000DF91CF910895CF93DF93009709F487C049
:103B6000FC01329713821282C0919904D0919A0479
:103B7000209781F420813181280F391F809197048B
:103B8000909198048217930779F5F0939804E09345
:103B900097046DC0DE0120E030E0AE17BF0750F49F
:103BA00012964D915C9113979D014115510509F1B4
:103BB000DA01F3CFB383A28340815181840F951F33
:103BC0008A179B0771F48D919C911197840F951F13
:103BD00002969183808312968D919C911397938383
:103BE00082832115310529F4F0939A04E093990416
:103BF0003EC0D9011396FC93EE9312974D915D91BF
:103C0000A40FB51FEA17FB0779F480819181840F17
:103C1000951F0296D90111969C938E938281938170
:103C200013969C938E931297E0E0F0E08A819B813B
:103C3000009719F0FE01EC01F9CFCE010296288120
:103C40003981820F931F209197043091980428178F
:103C5000390769F4309729F410929A041092990464
:103C600002C013821282D0939804C0939704DF910C
:103C7000CF910895283008F027E03327DA01990F13
:103C8000311D87FD916000966105710539F4326040
:103C90002E5F3D9330E32A95E1F708959F3F30F082
:103CA00080387105610509F03C5F3C5F3D939130C0
:103CB00008F08068911DDF93CF931F930F93FF92BD
:103CC000EF92192F987F9695E92F96959695E90F83
:103CD000FF27E555FE4F99273327EE24FF24A70140
:103CE000E70105900894079428F4360FE71EF81EA4
:103CF000491F511D660F771F881F991F0694A1F752
:103D00000590079428F4E70EF81E491F561FC11DA1
:103D1000770F881F991F661F0694A1F705900794D7
:103D200028F4F80E491F561FC71FD11D880F991F71
:103D3000661F771F0694A1F70590079420F4490F9A
:103D4000561FC71FD81F990F661F771F881F06941D
:103D5000A9F784911095177041F0D695C79557959E
:103D60004795F794E7941A95C1F7E1E5F1E0689477
:103D70001590159135916591959105907FE2739518
:103D8000E118F10A430B560BC90BD009C0F7E10C3F
:103D9000F11E431F561FC91FD01D7EF4703311F44E
:103DA0008A95E6CFE894015030F0080F0AF4002716
:103DB000021708F4202F2395022F7A3328F079E395
:103DC0007D932A95E9F710C07D932A9589F606948C
:103DD00097956795379517951794E118F10A430B56
:103DE000560BC90BD00998F023957E9173957A33C1
:103DF00008F070E37C932013B8F77E9170617D9397
:103E000030F0839571E37D9370E32A95E1F71124F7
:103E1000EF90FF900F911F91CF91DF91992787FD30
:103E2000909508959111E3C1803219F08950855021
:103E3000D0F708959111089581548A5108F4805E55
:103E4000855A0895FC010590061621F00020D9F747
:103E5000C00108953197CF010895FC01059061508C
:103E600070400110D8F7809590958E0F9F1F089590
:103E7000FB01DC0101900D920020E1F70895FC01A7
:103E80006150704001900110D8F7809590958E0F89
:103E90009F1F08950F931F93CF93DF93EC018B0126
:103EA000009731F46115710519F480E090E037C096
:103EB0006EE070E081E090E080D1FC010097A9F312
:103EC00080E883830115110571F01387028781E86B
:103ED000838380919B0490919C04892B21F4F0931F
:103EE0009C04E0939B042097C9F0D187C08783810D
:103EF0008260838380919D0490919E04892B71F44C
:103F0000F0939E04E0939D0480919F049091A004FF
:103F1000892B21F4F093A004E0939F04CF01DF915B
:103F2000CF911F910F910895CF93DF93EC012B81D7
:103F300020FF33C026FF0AC02F7B2B838E819F81F9
:103F400001969F838E838A8190E029C022FF0FC053
:103F5000E881F9818081992787FD9095009719F470
:103F600020622B831AC03196F983E8830EC0EA855C
:103F7000FB85099597FF09C02B81019611F480E11B
:103F800001C080E2822B8B8308C02E813F812F5F8E
:103F90003F4F3F832E83992702C08FEF9FEFDF9122
:103FA000CF9108950F931F93CF93DF93182F092F6D
:103FB000EB018B8181FD03C08FEF9FEF20C082FF5B
:103FC00010C04E815F812C813D81421753077CF4E4
:103FD000E881F9819F012F5F3F4F39832883108348
:103FE00006C0E885F985812F0995892B29F72E814F
:103FF0003F812F5F3F4F3F832E83812F902FDF9193
:10400000CF911F910F910895CF93DF93CDB7DEB776
:10401000FE01359661917191AF0180919D0490915F
:104020009E040E947C14DF91CF9108950F931F93FB
:10403000CF93DF93CDB7DEB72E970FB6F894DEBFE0
:104040000FBECDBF0D891E8986E08C831A8309833C
:104050008FEF9FE79E838D83AE01475E5F4F6F8931
:10406000788DCE0101960E947C14EF81F885E00FD7
:10407000F11F10822E960FB6F894DEBF0FBECDBF93
:10408000DF91CF911F910F910895CF93DF93CDB71B
:10409000DEB72E970FB6F894DEBF0FBECDBF85E01A
:1040A0008C838B899C899A838983AE01495E5F4F9B
:1040B0006D897E89CE010196EBDA2E960FB6F894C3
:1040C000DEBF0FBECDBFDF91CF910895FB012381ED
:1040D00020FF12C026FD10C08F3F3FEF930761F015
:1040E00082832F7D206423832681378121503109EB
:1040F00037832683992708958FEF9FEF0895FA015C
:10410000AA27283051F1203181F1E8946F936E7F16
:104110006E5F7F4F8F4F9F4FAF4FB1E03ED0B4E007
:104120003CD0670F781F891F9A1FA11D680F791F48
:104130008A1F911DA11D6A0F711D811D911DA11D59
:1041400020D009F468943F912AE0269F1124301969
:10415000305D3193DEF6CF010895462F4770405D04
:104160004193B3E00FD0C9F7F6CF462F4F70405DB3
:104170004A3318F0495D31FD4052419302D0A9F70E
:10418000EACFB4E0A6959795879577956795BA9508
:10419000C9F700976105710508959B01AC010A2ECE
:1041A00006945795479537952795BA95C9F7620FA5
:1041B000731F841F951FA01D08950F931F93CF9306
:1041C000DF93869F8001879F100D969F100D11240D
:1041D000C80129DCEC01009721F0A80160E070E043
:1041E00009D0CE01DF91CF911F910F9108959927AA
:1041F00088270895DC0101C06D9341505040E0F7DD
:064200000895F894FFCFC1
:104206000210000000000000000000000000000096
:104216000000000000000100000000000000000097
:104226000000A1042000010074636E743A25206426
:104236000065636E743A252064004D3A25202E33BE
:104246006600743A2520336600543A25202E3366DC
:1042560000493A25202E326600503A25202E326635
:1042660000443A25202E3266000D0A733120507222
:104276003A25202E3366000D0A73322050723A25F5
:10428600202E3366000D0A53332050723A25202E15
:104296003366000D0A5320446F6E650D0A000D0A41
:1042A60025202E34662C25202E34662C2564000D00
:1042B6000A4B703A25202E3466204B693A25202E6B
:1042C6003466204B643A25202E34660D0A0053745A
:1042D60065703A2564204C617374537465703A2591
:1042E600640D0A0025642C25642C743A25640D0A95
:1042F600000D0A25202E32662C25202E32662C250E
:1043060064000D0A563A20252E33662C252E336678
:104316002C252E33662C252E30662C252E30662C29
:1043260025642C2564000D0A503A20252E33662C70
:10433600252E33662C252E33662C252E30662C250D
:104346002E30662C25642C2564004D656E753A204A
:104356003C636861723E203C666C6F61743E0D0A78
:104366000054595045207B48683F7D20666F722077
:1043760068656C703A20000D0A0D0A5553422053A9
:10438600657269616C20496E697469616C697A65E8
:1043960064002563202566004F703A256320563A4F
:1043A60025640D0A004C2F6C3A546F67676C6520C4
:1043B6006C6F6767696E672050722C506D2C540DB8
:1043C6000A00562F763A56696577204B642C4B7057
:1043D6002C566D2C50722C506D2C540D0A00522FF9
:1043E600723A5365742072656620706F7320287563
:1043F600736520756E697420636F756E74290D0A76
:1044060000532F733A536574207265662073706586
:1044160065642028636F756E74732F736563290D49
:104426000A00502F703A536574204B70202D2031AE
:1044360030202D3E202E310D0A00442F643A53655C
:1044460074204B64202D203130202D3E202E310D3E
:104456000A00492F693A536574204B69202D203193
:1044660030202D3E202E310D0A00422F623A546F25
:1044760067676C65204C43440D0A00432F633A522C
:10448600756E20746573742066756E632E20466F94
:1044960072206462670D0A00743A45786563757424
:1044A60065207472616A6563746F72790D0A0043E0
:1044B6006D6420756E6B6E2E20547279207B3F7D65
:0444C6000D0A0000DB
:00000001FF
