:100000002AC1000046C1000044C1000042C10000F6
:1000100040C100003EC100003CC100007FC10000A3
:1000200038C1000036C1000034C100000C945510E6
:1000300030C10000B7C100002CC100000C943F0883
:1000400028C1000026C1000024C1000022C1000018
:100050000C94050E0C94FD0F1CC100001AC1000089
:1000600018C1000016C1000014C1000012C1000038
:100070000C942F0E0C9425100CC100000AC1000036
:1000800008C1000006C1000004C1000007052305E7
:100090002305F604FA04DF042305230523050705D9
:1000A000C804230523058404230523052305B1047F
:1000B00023058F04A004FC0423058B0423052305DA
:1000C00023052305230523052305230523052305F0
:1000D0002305F604FA04DF04230523052305070599
:1000E000C804230523058404230523052305B1043F
:1000F00023058F04A004FC0423058B043E673332E0
:100100003E3E633332006E616E00696E660063646A
:10011000696E6F70737578585B6566674546470012
:10012000616E006E66696E69747900CDCCCC3D0A53
:10013000D7233C17B7D13877CC2B329595E6241FBF
:10014000B14F0A000020410000C84200401C462078
:10015000BCBE4CCA1B0E5AAEC59D7400407A10F34B
:100160005A00A0724E18090010A5D4E80000E876E5
:1001700048170000E40B54020000CA9A3B0000003C
:10018000E1F505000080969800000040420F000055
:1001900000A08601000000102700000000E8030016
:1001A0000000006400000000000A000000000001E0
:1001B00000000000002C76D888DC674F0823DFC1E0
:1001C000DFAE59E1B1B796E5E3E453C63AE651999B
:1001D0007696E8E6C28426EB898C9B62ED407C6FC4
:1001E000FCEFBC9C9F40F2BAA56FA5F490055A2A7B
:1001F000F75C936B6CF9676DC11BFCE0E40D47FE87
:10020000F520E6B500D0ED902E030094357705007B
:1002100080841E080000204E0A000000C80C333302
:1002200033330F986E12831141EF8D2114893BE611
:100230005516CFFEE6DB18D1844B381BF77C1D909A
:100240001DA4BBE424203284725E228100C9F12403
:10025000ECA1E53D270011241FBECFEFD0E4DEBFA7
:10026000CDBF12E0A0E0B1E0E2EEFFE300E00BBFA3
:1002700002C007900D92A03EB107D9F723E0A0EE8F
:10028000B2E001C01D92AE3AB207E1F736D20C944B
:10029000EF1FB6CE579A3F9A83E88093B00022E0D2
:1002A0002093B1001092B30080E8809380008AE030
:1002B0008093810088EA91E690938900809388007A
:1002C00020936F0087B1826187B989B1826189B952
:1002D0008CE0809373008FEF809368008BBB089550
:1002E00097FF02C0479801C0479A97FF03C09195B6
:1002F00081959109909308038093070380910703E8
:10030000909108038F3F910514F08FEF04C0809106
:100310000703909108038093B30008951F920F92F2
:100320000FB60F9211242F933F934F935F938F93A8
:100330009F9381E08093360331E04B9B30E021E0D6
:100340004A9B20E040913A0350913B03341749F017
:1003500080913F03909140030196909340038093D6
:100360003F03251749F080913F0390914003019787
:100370009093400380933F03351729F0241719F019
:1003800081E080933C0330933B0320933A039F9199
:100390008F915F914F913F912F910F900FBE0F90D2
:1003A0001F9018951F920F920FB60F9211240BB643
:1003B0000F924F925F926F927F928F929F92AF9225
:1003C000BF92CF92DF92EF92FF920F931F932F93E2
:1003D0003F934F935F936F937F938F939F93AF93CD
:1003E000BF93EF93FF93CF93DF93CDB7DEB72897FB
:1003F000DEBFCDBFE0903F03F0904003C70169EC42
:1004000078E00E94611B882777FD8095982F0E94D5
:10041000071260930D0370930E0380930F03909364
:10042000100380913703882309F417C180913D039D
:1004300090913E03B701681B790B882777FD809563
:10044000982F0E9407122AE037ED43E25CE30E94F6
:100450006C1120E030E040E752E40E94971220E067
:1004600030E94CE055E40E946C11609309037093ED
:100470000A0380930B0390930C03F0923E03E092E7
:100480003D0360912D0370912E0380912F03909175
:1004900030032091090330910A0340910B035091DE
:1004A0000C030E9407116093290370932A03809321
:1004B0002B0390932C036091190370911A03809180
:1004C0001B0390911C0320E030E0A9010E949312CD
:1004D00018160CF054C060912D0370912E0380917A
:1004E0002F039091300320E030E0A9010E94931285
:1004F00018160CF044C06091290370912A03809172
:100500002B0390912C030E94D4119B0177FF04C010
:1005100022273327261B370BB901882777FD8095C3
:10052000982F0E9407122DEC3CEC4CEC5DE30E94EE
:100530009312181624F5C0902503D0902603E0905E
:100540002703F09028036091290370912A0380917A
:100550002B0390912C032AE037ED43E25CE30E94E9
:1005600097129B01AC01C701B6010E94081160936C
:1005700025037093260380932703909328036091AB
:100580001D0370911E0380911F0390912003209101
:10059000290330912A0340912B0350912C03809022
:1005A000190390901A03A0901B03B0901C03409075
:1005B0002503509026036090270370902803E09055
:1005C0001503F09016030091170310911803E982A8
:1005D000FA820B831C83E0902103F09022030091A8
:1005E000230310912403ED82FE820F8318870E945B
:1005F00097126B017C01A3019201C501B4010E9415
:1006000097129B01AC01C701B6010E9408116B0152
:100610007C012D813E814F81588569817A818B8152
:100620009C810E9497129B01AC01C701B6010E94F8
:100630000811609311037093120380931303909336
:100640001403609111037091120380911303909130
:1006500014030E94D411CB0143DE28960FB6F89400
:10066000DEBF0FBECDBFDF91CF91FF91EF91BF9164
:10067000AF919F918F917F916F915F914F913F913A
:100680002F911F910F91FF90EF90DF90CF90BF902F
:10069000AF909F908F907F906F905F904F900F9052
:1006A0000BBE0F900FBE0F901F90189560E080E07A
:1006B00068D6809140038F9380913F038F9388E4A5
:1006C00091E09F938F930E94F21E61E080E059D6E3
:1006D00080913E038F9380913D038F938DE491E051
:1006E0009F938F930E94F21E8DB79EB708960FB608
:1006F000F8949EBF0FBE8DBF0895CF93DF93CDB703
:10070000DEB7E0970FB6F894DEBF0FBECDBF8AD735
:10071000A7D0C0DD78948CEF90E011D511D6C6DF5C
:1007200082E5E82E81E0F82E8E010F5F1F4FDD2459
:10073000D394109236038091390380913803882333
:10074000B9F18090150390901603A0901703B09014
:1007500018038091190390911A03A0911B03B09183
:100760001C0340911D0350911E0360911F03709163
:100770002003BF92AF929F928F92BF93AF939F93AC
:100780008F937F936F935F934F93FF92EF921F939B
:100790000F930E94041FBC01C8012FD08091380321
:1007A0008D25809338030FB6F894DEBF0FBECDBF02
:1007B00080913603882319F079DF109236030E9466
:1007C000C70F51D1B6CF89E190E08ADD88EE93E082
:1007D0000E949C1087EE9FEF83DD88EE93E00E94DD
:1007E0009C101092B300089582E00E940F0C8111BA
:1007F00003C00E94C70FF8CF0895462FBC0182E0C6
:100800000E94FB0FF1CF0F931F93CF93DF93CDB7D0
:10081000DEB7E0970FB6F894DEBF0FBECDBF9F9353
:100820008F938E010F5F1F4F1F930F930E94041F22
:10083000BC01C801E2DF0F900F900F900F90E0967F
:100840000FB6F894DEBF0FBECDBFDF91CF911F91E1
:100850000F91089581E891E0D6DF88E991E0D3CF48
:1008600040E855E260E070E082E00E94190F40E34A
:1008700063E473E082E00E94030E8FEA91E0C3DF3D
:10088000E9CF0F931F93CF93DF93CDB7DEB7E397F5
:100890000FB6F894DEBF0FBECDBF9E012F5C3F4F59
:1008A0003F932F932E5F3F4F3F932F932CEC31E0DC
:1008B0003F932F939F938F930E94331F8AA98F9307
:1008C00089A98F938BA91F928F9382ED91E09F93BB
:1008D0008F938E010F5F1F4F1F930F930E94041F72
:1008E000BC01C8018ADF0FB6F894DEBF0FBECDBFD2
:1008F0008BA990E0FC01FF97E833F10508F0A3C055
:10090000EA5BFF4F0C94B21B8091390391E0892779
:10091000809339039CC081E08093380398C069A913
:100920007AA9882777FD8095982F0E9407126093F7
:10093000310370933203809333039093340387C061
:1009400069A97AA9882777FD8095982F0E940712B8
:1009500060932D0370932E0380932F0390933003A5
:1009600076C069A97AA9882777FD8095982F0E947B
:10097000071220E030E040E251E40E946C116093E5
:100980001D0370931E0380931F03909320035FC089
:1009900069A97AA9882777FD8095982F0E94071268
:1009A00020E030E040E251E40E946C1160931903B2
:1009B00070931A0380931B0390931C0348C069A98A
:1009C0007AA9882777FD8095982F0E94071220E04A
:1009D00030E040E251E40E946C1160931503709383
:1009E0001603809317039093180331C081E080931E
:1009F00035032DC0E8DE2BC081E08093370389A941
:100A00009AA99093080380930703F7D620C08FED2F
:100A100091E0F9DE8CEF91E0F6DE88E192E0F3DE22
:100A20008BE392E0F0DE8CE592E0EDDE84E792E08D
:100A3000EADE8CE892E0E7DE84EA92E0E4DE85EB31
:100A400092E0E1DE04C08CEC92E0DDDE01C002DF6A
:100A5000E3960FB6F894DEBF0FBECDBFDF91CF9106
:100A60001F910F910895CF93DF93CDB7DEB7A09775
:100A70000FB6F894DEBF0FBECDBF82E0C0D6909116
:100A8000730320914103309142038917D9F0A1E00B
:100A9000B0E0AC0FBD1FA20FB31FE92FF0E0ED5B7C
:100AA000FC4F80818C932F5F3F4F30934203209304
:100AB00041039F3219F410927303DFCF9F5F90932D
:100AC0007303DBCF21153105B1F02130310529F455
:100AD00089818A3061F08D3051F0E1E0F0E0EC0F77
:100AE000FD1FE20FF31F1082CE010196CADE1092A5
:100AF000420310924103A0960FB6F894DEBF0FBEDA
:100B0000CDBFDF91CF9108959091E502E091E10290
:100B1000F091E202992311F0849101C08081282F85
:100B200021542A3110F4805E0895803271F42091AE
:100B3000E1023091E202A9014F5F5F4F5093E20260
:100B40004093E1022115310509F70895EF92FF92D4
:100B5000CF93DF93D9DFC0E0D0E01AC09E01220F0F
:100B6000331F93E0CC0FDD1F9A95E1F7C20FD31F1F
:100B7000992787FD9095C80FD91FE0978091E102D2
:100B80009091E20201969093E2028093E102BCDF31
:100B9000982F90539A3010F3CE01DF91CF91FF90B0
:100BA000EF90089510926F0083E28093800081E1BE
:100BB000809381001092820080E197E290938900F7
:100BC0008093880010928B0010928A00549A789437
:100BD00008958091E002882321F481E08093E0026F
:100BE000E1CF0895A0E0B0E0E8EFF5E00C94C81B79
:100BF0008C015B01E42EEDDF1092000117FF04C0B1
:100C00001F77AAE0FA2E02C0FF24F394C09081005F
:100C1000DD2428EFC222DD2488EC3F2D389FC0015F
:100C2000112480179107D8F4E80167E20131160713
:100C300010F0C0E1D7E2BE017695679580E090E0C4
:100C40006058794687469F4F9E0140E050E00E94E1
:100C5000741B890181E090E0C82AD92A2CC098E24F
:100C6000F99E902D112480E0892EE4014E01982EEA
:100C7000E4018016910608F4E801BE0176956795B7
:100C80009E0140E050E08F2D8A3039F480E090E002
:100C9000605E734481449F4F06C080E090E06053E3
:100CA0007D4E8C4E9F4F0E94741B890152E0852E11
:100CB000912CC828D9282F2D2A3039F4CE01059639
:100CC0006AE070E00E944D1BEB0133E0C83ED307A1
:100CD00079F0BE0180E090E0950140E050E00E9494
:100CE000321B28EE33E040E050E00E94961B01C02A
:100CF000950110926F00C0928100109389000093BB
:100D0000880040918800509189006E2D603108F074
:100D10006FE080E190E0861B9109BA0102C07695F0
:100D200067958A95E2F770938B0060938A00309301
:100D3000E8022093E70286B38FEF86BB81E08093C1
:100D40006F00CDB7DEB7ECE00C94E41B9B018F3F46
:100D500011F0442329F488EE93E0B90140E049C042
:100D6000813130F0582F5051503618F05FE501C0F6
:100D700050E0852F6CE00E94411BA82FB0E0E4EF0B
:100D8000FFEFAE9FB001AF9F700DBE9F700D11249D
:100D9000650F711D6C30710540F4FB01EE0FFF1FF4
:100DA000E65FFE4F6081718102C060E070E08730D5
:100DB00081F0082E02C0660F771F0A94E2F7823096
:100DC00028F0CB0105966AE070E00CC060507048D6
:100DD0000BC0CB01B6E0880F991FBA95E1F70296D8
:100DE00065E070E00E944D1B403108F04FE0CB0100
:100DF000B901F8CEA0E0B0E0E0E0F7E00C94C71B4A
:100E0000B09001018091E302882359F06091E402DF
:100E1000662339F08FEF70E040E098DF1092E40233
:100E200029C1C0ECDDE5AA24A39414E0712E00EDE5
:100E300017E0B4E0EB2EF12CA4EFCA2EA1E0DA2EDD
:100E4000FFE08F2E912C60DE2091E1023091E202D2
:100E50002F5F3F4F3093E2022093E1028636F1F19B
:100E60008736CCF4823609F4AAC083367CF48E33FC
:100E700049F18F333CF4813209F482C08C3309F09C
:100E800096C022C0813609F092C096C0843601F126
:100E900085360CF51BC08F3609F445C0803744F405
:100EA0008C3611F18D3659F1873609F080C019C0A2
:100EB000843709F441C0863709F45CC0823709F0F1
:100EC00076C036C0B394BFCFBA94BDCFEE2432C043
:100ED000EE2482E076C0EE2484E073C0EE2485E048
:100EE00070C0EE2487E06DC031DEBC019093030139
:100EF00080930201809104019091050134C004DEC9
:100F00008C3619F41092E30204C0A092E30210920E
:100F1000E4028091E1029091E20201969093E20254
:100F20008093E10290CF12DEB82E809301018BCF27
:100F3000EE24E39480E045C009DEBC01CE010E94AE
:100F40004D1BCB01880F991F53E0660F771F5A95F1
:100F5000E1F7860F971F909305018093040160913C
:100F60000201709103010E944D1B70930701609371
:100F7000060169CFEBDD909309018093080163CFEF
:100F8000709201011093050100930401F092030196
:100F9000E0920201D0920701C092060190920901ED
:100FA000809208011092E30244E0B42E4CCF1092DC
:100FB000E2021092E1025EC0EE2489E002C0EE245B
:100FC0008BE09CE0B99EB02C1124B80E9DDD8B32D5
:100FD00011F08332B1F48091E1029091E202019626
:100FE0009093E2028093E102B394F0CF8091E1020A
:100FF0009091E20201969093E2028093E102BA940A
:1010000083DD8D3299F3C0910601D09107018153A0
:10101000883050F4C0910401D091050197DDBC01E6
:10102000CE010E944D1BEB018E010BC08091E102AD
:101030009091E20201969093E2028093E102C00F48
:10104000D11F1695079560DD8E3281F38091E30202
:10105000882339F0CE01969587958093E402C81BCA
:10106000D109EE2011F0BB24BA948B2DBE01409122
:1010700008016CDECDB7DEB7EDE00C94E31B1F92E8
:101080000F920FB60F920BB60F9211242F933F932E
:101090004F935F936F937F938F939F93AF93BF9380
:1010A000EF93FF938091E7029091E8029C01215019
:1010B00030403093E8022093E702009709F5109240
:1010C0006F00789480918100887F81608093810097
:1010D00080E197E2909389008093880010928B00C2
:1010E00010928A0081E0809300018091E10290914A
:1010F000E202009729F08091E602882309F47ADE63
:10110000FF91EF91BF91AF919F918F917F916F91DF
:101110005F914F913F912F910F900BBE0F900FBE9B
:101120000F901F90189510926F009093E202809399
:10113000E10281E08093E5021092E4025BCEF3CFFE
:10114000089580E090E0089581E090E06F9364E07E
:101150006A95F1F76F910197C9F708950F931F935F
:10116000CF93DF9317B13D982898299AC0E0D0E03B
:10117000EBDF2A9AE9DF06B12A98E6DF2A9AE4DF54
:101180002A98249605FF10C09E0140E050E080910F
:10119000ED029091EE02A091EF02B091F0022817BB
:1011A00039074A075B0720F39E0140E050E0809139
:1011B000ED029091EE02A091EF02B091F00228179B
:1011C00039074A075B0728F082E390E0A0E0B0E02F
:1011D00004C080E395E7A0E0B0E08093ED02909337
:1011E000EE02A093EF02B093F00217B9DF91CF9116
:1011F0001F910F91089528B190E08F709070880F23
:10120000991F880F991F237C282B28B92A9A9CDFC5
:101210002A989ACFA2E0B0E0E0E1F9E00C94CF1B6D
:10122000182F4A83698358D099DFF7B008B12998FD
:1012300069814A81662311F0289A01C0289887B1F4
:101240008C6387B9413021F0812F82958F70D3DF75
:10125000812F8F70D0DFF7B808B92296E5E00C94A3
:10126000EB1B60E042E0D6CF61E042E0D3CF60E02C
:1012700041E0D0CF3D98459A80E395E7A0E0B0E00B
:101280008093ED029093EE02A093EF02B093F002F0
:10129000209A219A229A8EE190E04ED783E0E7DFF0
:1012A00086E090E049D783E0E2DF82E090E044D737
:1012B00083E0DDDF82E090E03FD782E0D8DF82E0AC
:1012C00090E03AD788E2CDDF88E0CBDF81E0C9DF6C
:1012D00086E0C7DF8CE0C5CF8091F102882321F43E
:1012E00081E08093F102C6CF089581E0BADF80915A
:1012F000E9029091EA02009711F1A0E0B0E208C083
:10130000E091E902F091EA02E20FF31FB083AF5FD0
:101310002A2F30E08091220190E001976091230113
:1013200070E0869FA001879F500D969F500D11245D
:10133000241735072CF31092EC021092EB0208955B
:10134000D4CF0895A5E0B0E0E8EAF9E00C94D11B11
:10135000182F80E8898380EC8A8384E98B8384ED6D
:101360008C83FE01E60FF11D8181810F6D8379DF92
:101370001093EC026D816093EB022596E3E00C94F0
:10138000ED1BE0CF0895A0E0B0E0E9ECF9E00C94AB
:10139000CC1BD82E8091E9029091EA02009709F4C3
:1013A000F2C02D2D2A3009F442C02830C9F48091B2
:1013B000EC0281508093EC028F3F51F48091EB025C
:1013C00081508093EB028091230181508093EC0245
:1013D0008091EB028F3F09F0D1C01092EB02CCC09C
:1013E0008D2D42DF8091EB028823B9F090E00197C8
:1013F0004091230150E0849F9001859F300D949F80
:10140000300D11248091EC02E091E902F091EA02A2
:10141000E20FF31FE80FF11DD0828091EC028F5F85
:101420008093EC0290912301891709F0ACC04091A0
:10143000EB02242F30E08091220190E001972817E1
:10144000390709F096C0C0E0D0E03FC080E06C2FC3
:1014500079DFCC248E010F5F1F4F32C0EC2CFF24AC
:1014600030E0C29FC001C39F900DD29F900D112408
:10147000E091E902F091EA02EE0DFF1DE80FF91F7D
:101480008081F2DE8091E9029091EA0220912301AD
:1014900030E0C29FF001C39FF00DD29FF00D1124E8
:1014A0008E0D9F1DE80FF91F029FD001039FB00D05
:1014B000129FB00D1124A80FB91F8C918083C39483
:1014C00020912301C21650F2E80160912201862F7B
:1014D00090E00297C817D9070CF4B8CF6230D0F16A
:1014E000625080E02FDF00E010E230C0C02FD0E07B
:1014F0008091220190E0029750E0849F9001859FA7
:10150000300D949F300D1124E091E902F091EA0230
:10151000EC0FFD1FE20FF31F8081A6DE80912201F8
:1015200090E002974091230150E0849F9001859FB5
:10153000300D949F300D1124E091E902F091EA0200
:10154000EC0FFD1FE20FF31F10830F5F409123018B
:10155000041760F260912201615080E0F3DE10E038
:1015600003C080E281DE1F5F809123011817C8F35A
:1015700003C04F5F4093EB021092EC028091EC02AB
:101580006091EB02DFDE2D2D332727FD3095C90159
:10159000CDB7DEB7E8E00C94E81B8091E9029091AA
:1015A000EA02009711F00E94A01C2091220130E075
:1015B000215030408091230190E0AC01249FC00174
:1015C000259F900D349F900D11240E94081C90932C
:1015D000EA028093E902009721F1A0E0B0E208C09E
:1015E000E091E902F091EA02E20FF31FB083AF5FEE
:1015F0002A2F30E08091220190E001976091230131
:1016000070E0869FA001879F500D969F500D11247A
:10161000241735072CF383EC99E061EA78E00C9409
:10162000381E0895BACF0895FC01118210821382EA
:101630001282158214821682683068F489E290E082
:10164000918380838BE290E0938382838AE290E0AF
:101650009583848323C0603180F483E290E091839A
:10166000808385E290E09383828384E290E0958397
:10167000848370E06850704011C06831C0F486E225
:1016800090E09183808388E290E09383828387E275
:1016900090E09583848370E06051704081E090E039
:1016A00002C0880F991F6A95E2F786830895603219
:1016B000C0F480E290E09183808382E290E09383A3
:1016C000828381E290E0958384832FE130E0261BC2
:1016D000310981E090E002C0880F991F2A95E2F756
:1016E00086830895FC01A481B5818681662321F05B
:1016F0009C91982B9C9308959C91809589238C9321
:101700000895FC016F3F31F4A281B3818C919681E1
:1017100089270CC0A281B3818681662321F09C9128
:10172000982B9C9308959C91809589238C93089580
:10173000A7E0B0E0EEE9FBE00C94CF1B282FF62EDB
:101740008E010F5F1F4FC801622F6EDFC8016F2D22
:10175000D8DFC80161E0C6DF2796E5E00C94EB1BFB
:1017600083E08093B00082E08093B100E4EBF0E08E
:10177000108280818093B30087E160E0D9DF86E149
:1017800060E0D6DF87E060E0D3DF86E060E0D0CFC6
:101790008091F202882321F481E08093F202E0CF6D
:1017A0000895CF93DF93EC01F3DFD7FF05C0D09509
:1017B000C195DF4F91E001C090E0CF3FD10519F016
:1017C00014F0CFEFD0E0C093B300209731F48091B4
:1017D000B0008F778093B0000DC08091B00080681A
:1017E0008093B000992319F087E161E002C087E19E
:1017F00060E09EDFDF91CF910895D3CF0895282F29
:1018000030E0F901EE0FFF1F43E0220F331F4A952E
:10181000E1F7E20FF31FEC5DFE4F82810895282F60
:1018200030E0F901EE0FFF1F73E0220F331F7A95AE
:10183000E1F7E20FF31FEC5DFE4F4181282F30E00E
:10184000F901EE0FFF1F53E0220F331F5A95E1F706
:10185000E20FF31FEC5DFE4F81E09381491380E0BE
:101860000895282F30E0F901EE0FFF1FB3E0220F9B
:10187000331FBA95E1F7E20FF31FEC5DFE4F408591
:1018800051854115510509F452C0282F30E0F90166
:10189000EE0FFF1F73E0220F331F7A95E1F7E20F7F
:1018A000F31FEC5DFE4F7281282F30E0F901EE0F3F
:1018B000FF1FB3E0220F331FBA95E1F7E20FF31FCA
:1018C000EC5DFE4F9481791790F5282F30E0F901F7
:1018D000EE0FFF1F73E0220F331F7A95E1F7E20F3F
:1018E000F31FEC5DFE4F9281490F511DFA01608399
:1018F000282F30E0F901EE0FFF1F53E0220F331FB6
:101900005A95E1F7E20FF31FEC5DFE4F92819F5F66
:10191000282F30E0F901EE0FFF1FB3E0220F331F35
:10192000BA95E1F7E20FF31FEC5DFE4F9283282F8B
:1019300030E0F901EE0FFF1F73E0220F331F7A959D
:10194000E1F7E20FF31FEC5DFE4F4281282F30E0FC
:10195000F901EE0FFF1F53E0220F331F5A95E1F7F5
:10196000E20FF31FEC5DFE4F9481491701F5282F1C
:1019700030E0F901EE0FFF1F93E0220F331F9A951D
:10198000E1F7E20FF31FEC5DFE4F9581992379F0AB
:10199000282F30E0F901EE0FFF1FB3E0220F331FB5
:1019A000BA95E1F7E20FF31FEC5DFE4F1282089546
:1019B0000F931F93182F823009F474C0882319F4F1
:1019C000E1ECF0E002C0E9ECF0E080818F77808309
:1019D000812F90E0FC01EE0FFF1F03E0880F991F9D
:1019E0000A95E1F7E80FF91FEC5DFE4F80859185C0
:1019F0000097A1F1212F30E0F901EE0FFF1FA3E0C6
:101A0000220F331FAA95E1F7E20FF31FEC5DFE4FA3
:101A10009281212F30E0F901EE0FFF1F63E0220FCA
:101A2000331F6A95E1F7E20FF31FEC5DFE4F8481EF
:101A30009817A0F4112319F4E0ECF0E002C0E8ECF0
:101A4000F0E0808187FF0AC0112319F4E6ECF0E092
:101A500002C0EEECF0E06081812F03DF212F30E047
:101A6000F901EE0FFF1F43E0220F331F4A95E1F704
:101A7000E20FF31FEC5DFE4F8081882309F057C011
:101A8000112319F4E1ECF0E002C0E9ECF0E0808110
:101A9000806880834CC080913D01882319F01092AA
:101AA0003A0145C08091400190914101009709F4AD
:101AB0003EC090913A0180913C019817C0F5809109
:101AC000F302882399F43DD38093F30210E00AC017
:101AD00035D3E02FF0E03197E11BF109EC50FD4FD9
:101AE00080831F5F0091F302101790F3A091F3021F
:101AF000AA23E9F080913A01E0914001F09141017F
:101B0000E80FF11DA150A093F302B0E0AC50BD4F1F
:101B10008C91808380913A018F5F80933A019091FC
:101B20003A0180913C01981709F0BCCFB4CF1F91C6
:101B30000F910895823051F0882319F4E1ECF0E020
:101B400002C0E9ECF0E090819F779083A82FB0E08D
:101B5000FD01EE0FFF1F53E0AA0FBB1F5A95E1F7DF
:101B6000EA0FFB1FEC5DFE4F71876087682F70E006
:101B7000FB01EE0FFF1F93E0660F771F9A95E1F7C9
:101B8000E60FF71FEC5DFE4F1282682F70E0FB013D
:101B9000EE0FFF1FA3E0660F771FAA95E1F7E60F90
:101BA000F71FEC5DFE4F4483482F50E0FA01EE0F23
:101BB000FF1F63E0440F551F6A95E1F7E40FF51F1F
:101BC000EC5DFE4F25838230D9F0282F30E0F901FB
:101BD000EE0FFF1F43E0220F331F4A95E1F7E20F9C
:101BE000F31FEC5DFE4F9081992351F4882319F483
:101BF000E1ECF0E002C0E9ECF0E0808180688083F5
:101C0000089521E097CFFDCF08951F920F920FB650
:101C10000F920BB60F9211242F933F934F935F9324
:101C20006F937F938F939F93AF93BF93EF93FF93A4
:101C30006091C60080E015DEFF91EF91BF91AF91FA
:101C40009F918F917F916F915F914F913F912F91D4
:101C50000F900BBE0F900FBE0F901F9018951F9204
:101C60000F920FB60F920BB60F9211242F933F9342
:101C70004F935F936F937F938F939F93AF93BF9394
:101C8000EF93FF936091CE0081E0EBDDFF91EF9148
:101C9000BF91AF919F918F917F916F915F914F9184
:101CA0003F912F910F900BBE0F900FBE0F901F9082
:101CB0001895882319F4E1ECF0E002C0E9ECF0E0BB
:101CC0008081806280830895882319F4E1ECF0E03C
:101CD00002C0E9ECF0E080818F7D80830895282F99
:101CE00030E0F901EE0FFF1F93E0220F331F9A95AA
:101CF000E1F7E20FF31FEC5DFE4F268137812115DE
:101D0000310591F1282F30E0F901EE0FFF1FA3E01C
:101D1000220F331FAA95E1F7E20FF31FEC5DFE4F90
:101D20004181282F30E0F901EE0FFF1F63E0220F01
:101D3000331F6A95E1F7E20FF31FEC5DFE4F9381CD
:101D4000491790F4282F30E0F901EE0FFF1F43E010
:101D5000220F331F4A95E1F7E20FF31FEC5DFE4FB0
:101D60009081992309F4A5CFAFCF823029F1282F94
:101D700030E0F901EE0FFF1F53E0220F331F5A9599
:101D8000E1F7E20FF31FEC5DFE4F9081992349F4D8
:101D9000882319F4E1ECF0E002C0E9ECF0E098E906
:101DA00008C0882319F4E1ECF0E002C0E9ECF0E0AF
:101DB00098E1908394DF78940895882319F0813016
:101DC00029F402C080E0D1CF81E0CFCF0895A0E018
:101DD000B0E0EDEEFEE00C94CD1BD82E7A018B0125
:101DE000ECDF8D2D823001F1DD2019F4C4ECD0E060
:101DF00002C0CCECD0E0C801B70128EF3FEF4FEFB5
:101E00005FEF0E94321B6050734D8E4C9E4FA801B5
:101E10009701E4E0220F331F441F551FEA95D1F7C5
:101E20000E94741B39832883CDB7DEB7E7E00C949A
:101E3000E91BCDCF0895282F30E0F901EE0FFF1FE9
:101E400073E0220F331F7A95E1F7E20FF31FEC5D89
:101E5000FE4F468157814115510509F465C0282F71
:101E600030E0F901EE0FFF1F93E0220F331F9A9528
:101E7000E1F7E20FF31FEC5DFE4F6181282F30E0A8
:101E8000F901EE0FFF1FA3E0220F331FAA95E1F720
:101E9000E20FF31FEC5DFE4F9381691708F044C019
:101EA000882319F4E0ECF0E002C0E8ECF0E0908167
:101EB00095FF3AC0882319F4A6ECB0E002C0AEEC5E
:101EC000B0E0282F30E0F901EE0FFF1F63E0220F92
:101ED000331F6A95E1F7E20FF31FEC5DFE4F91812E
:101EE000490F511DFA0190819C93282F30E0F90190
:101EF000EE0FFF1F93E0220F331F9A95E1F7E20FD9
:101F0000F31FEC5DFE4F91819F5F282F30E0F901B8
:101F1000EE0FFF1FA3E0220F331FAA95E1F7E20F98
:101F2000F31FEC5DFE4F9183DACE1F93182F8230A2
:101F300021F0CADE812F7FDF1CC080913E0190918D
:101F40003F010097B1F03091390120913B013217E8
:101F500080F406C0809139018F5F80933901EDCF05
:101F600020913901820F911DFC018081EED08823E0
:101F700089F71F91089580E0D8DF81E0D6DF82E005
:101F8000D4DF80E015DD81E013DD82E011CDF3CFF9
:101F90000895282F30E0F901EE0FFF1F93E0220F84
:101FA000331F9A95E1F7E20FF31FEC5DFE4F778345
:101FB0006683282F30E0F901EE0FFF1FA3E0220F08
:101FC000331FAA95E1F7E20FF31FEC5DFE4F11827C
:101FD000282F30E0F901EE0FFF1F63E0220F331FBF
:101FE0006A95E1F7E20FF31FEC5DFE4F4383823009
:101FF00009F075CE0895CDCF08951F920F920FB6B8
:102000000F920BB60F9211242F933F934F935F9330
:102010006F937F938F939F93AF93BF93EF93FF93B0
:1020200080E009DFFF91EF91BF91AF919F918F9178
:102030007F916F915F914F913F912F910F900BBEC8
:102040000F900FBE0F901F9018951F920F920FB612
:102050000F920BB60F9211242F933F934F935F93E0
:102060006F937F938F939F93AF93BF93EF93FF9360
:1020700081E0E1DEFF91EF91BF91AF919F918F9150
:102080007F916F915F914F913F912F910F900BBE78
:102090000F900FBE0F901F9018956F9364E06A9594
:1020A000F1F76F910197C9F708952F928F939F933E
:1020B0002FB68091FD029091FE0201968093FD0261
:1020C0009093FE0290E08091FF02891F8093FF02AF
:1020D000909105039C5F90930503809104038051C8
:1020E0009742C0F09093050380930403809100030E
:1020F000909101030196809300039093010390E077
:1021000080910203891F8093020380910303891F3A
:10211000809303032FBE9F918F912F901895CF939B
:10212000DF93EC0104C088EE93E0B7DF219720979E
:10213000D1F7DF91CF910895F2CF08958FEF64E04A
:1021400043C083E867E040D0F9CF1F93182F982F42
:102150009095991F9927991F85E8891B65E034D0D0
:10216000812F8F7765E030D01F9108956F9364E0E1
:102170006A95F1F76F910197C9F70895A1E0B0E072
:10218000E4ECF0E10C94D11B182F249908C02C9991
:1021900006C02C9A8EE190E06983E8DF698184B102
:1021A000806A84B92698812F837080656C7A862B2B
:1021B0008CBD81E012FF80E08DBD81E090E0AFDF5B
:1021C0002196E3E00C94ED1B0F931F93082F162F1D
:1021D0000CB406FC03C080E064E0D0DF0CB404FC67
:1021E00003C08CB580618CBD0EBD03C00CB404FE71
:1021F0000AC00DB407FEFACF112319F0812F90E029
:10220000B5DF8EB501C080E01F910F910895505841
:10221000BB27AA270ED04DC13ED130F043D120F0CC
:1022200031F49F3F11F41EF433C10EF4E095E7FB47
:1022300029C1E92F4FD180F3BA17620773078407CA
:10224000950718F071F49EF567C10EF4E0950B2E1A
:10225000BA2FA02D0B01B90190010C01CA01A001F8
:102260001124FF27591B99F0593F50F4503E68F153
:102270001A16F040A22F232F342F4427585FF3CF94
:10228000469537952795A795F0405395C9F77EF465
:102290001F16BA0B620B730B840BBAF09150A1F0AE
:1022A000FF0FBB1F661F771F881FC2F70EC0BA0F34
:1022B000621F731F841F48F4879577956795B795BC
:1022C000F7959E3F08F0B3CF9395880F08F09927B4
:1022D000EE0F9795879508950CD0EBC0E3D040F0B2
:1022E000DAD030F021F45F3F19F0CCC0511115C1A4
:1022F000CFC0F0D098F39923C9F35523B1F3951BC0
:10230000550BBB27AA2762177307840738F09F5F16
:102310005F4F220F331F441FAA1FA9F333D00E2E85
:102320003AF0E0E830D091505040E695001CCAF7F2
:1023300029D0FE2F27D0660F771F881FBB1F2617B7
:1023400037074807AB07B0E809F0BB0B802DBF018A
:10235000FF2793585F4F2AF09E3F510568F092C0C7
:10236000DCC05F3FECF3983EDCF38695779567958C
:10237000B795F7959F5FC9F7880F911D969587953B
:1023800097F90895E1E0660F771F881FBB1F62175A
:1023900073078407BA0720F0621B730B840BBA0B18
:1023A000EE1F88F7E095089504D06894B111B5C088
:1023B000089598D088F09F5790F0B92F9927B7517A
:1023C000A0F0D1F0660F771F881F991F1AF0BA95F9
:1023D000C9F712C0B13081F09FD0B1E008959CC020
:1023E000672F782F8827B85F39F0B93FCCF38695EF
:1023F00077956795B395D9F73EF49095809570954C
:1024000061957F4F8F4F9F4F0895E89409C097FBC8
:102410003EF490958095709561957F4F8F4F9F4FBB
:102420009923A9F0F92F96E9BB279395F6958795FF
:1024300077956795B795F111F8CFFAF4BB0F11F4C2
:1024400060FF1BC06F5F7F4F8F4F9F4F16C0882369
:1024500011F096E911C0772321F09EE8872F762F9F
:1024600005C0662371F096E8862F70E060E02AF0E0
:102470009A95660F771F881FDAF7880F96958795CC
:1024800097F9089597F99F6780E870E060E00895F4
:102490009FEF80EC089500240A941616170618067C
:1024A0000906089500240A94121613061406050658
:1024B0000895092E0394000C11F4882352F0BB0FE9
:1024C00040F4BF2B11F460FF04C06F5F7F4F8F4F4C
:1024D0009F4F089557FD9058440F551F59F05F3F87
:1024E00071F04795880F97FB991F61F09F3F79F036
:1024F00087950895121613061406551FF2CF4695B8
:10250000F1DF08C0161617061806991FF1CF869539
:102510007105610508940895E894BB27662777271D
:10252000CB0197F9089566D008F48FEF08950BD08A
:10253000C0CFB1DF28F0B6DF18F0952309F0A2CFA5
:10254000A7CF1124EACFC6DFA0F3959FD1F3950F53
:1025500050E0551F629FF001729FBB27F00DB11D27
:10256000639FAA27F00DB11DAA1F649F6627B00DB7
:10257000A11D661F829F2227B00DA11D621F739FA0
:10258000B00DA11D621F839FA00D611D221F749FAE
:102590003327A00D611D231F849F600D211D822FF5
:1025A000762F6A2F11249F5750408AF0E1F088233C
:1025B0004AF0EE0FFF1FBB1F661F771F881F915049
:1025C0005040A9F79E3F510570F05CCFA6CF5F3F0A
:1025D000ECF3983EDCF3869577956795B795F7957C
:1025E000E7959F5FC1F7FE2B880F911D9695879504
:1025F00097F90895990F0008550FAA0BE0E8FEEF30
:1026000016161706E807F907C0F012161306E407B6
:10261000F50798F0621B730B840B950B39F40A26AF
:1026200061F0232B242B252B21F408950A2609F48D
:10263000A140A6958FEF811D811D08952F923F9295
:102640004F925F926F927F928F929F92AF92BF92C2
:10265000CF92DF92EF92FF920F931F93CF93DF936E
:10266000CDB7DEB763970FB6F894DEBF0FBECDBF10
:102670007C011B016A01FC0117821682838181FFA4
:1026800066C3BE016F5F7F4F4B01F7019381F1017C
:1026900093FD859193FF81911F01882309F453C312
:1026A000853239F493FD859193FF81911F01853225
:1026B00039F4B70190E00E94C01E56016501E5CFD4
:1026C00010E0512C20E02032A0F48B3269F030F47D
:1026D000803259F0833269F420612CC08D3239F098
:1026E000803339F4216026C02260246023C0286032
:1026F00021C027FD27C030ED380F3A3078F426FF8F
:1027000006C0FAE01F9F300D1124132F13C06AE09A
:10271000569E300D1124532E20620CC08E3221F4AF
:1027200026FD11C3206406C08C3611F4206802C057
:10273000883641F4F10193FD859193FF81911F014A
:102740008111C1CF9BEB980F933018F42061805E0C
:1027500006C09BE9980F933008F0AAC12F7E26FF90
:1027600016E02F73722E853621F4F22FF0647F2E3F
:1027700008C0863621F4622F6068762E02C01111DF
:10278000115077FE07C01C3348F444244394410E93
:1027900027E00BC0183030F4212F06C027E04CE3AF
:1027A000442E03C027E017E0412C560174E0A70E29
:1027B000B11CF6016081718182819381042DA40195
:1027C0000E942F1D6C01098100FF02C003FF06C09B
:1027D00071FC07C072FC08C0612C08C03DE2632E8A
:1027E00005C02BE2622E02C090E2692E802F8C7011
:1027F00099F1662011F084E001C083E0851510F0A6
:10280000512C0BC0581A73FC08C0B70180E290E04D
:102810000E94C01E5A94C9F7F3CF662029F0B70171
:10282000862D90E00E94C01E03FD03C00AE011E067
:1028300002C006E011E0F72DF0717F2EF8018491BF
:10284000882309F476C271108052B70190E00E948B
:10285000C01E0F5F1F4FF2CF77FE0FC04C0C04FF5E
:1028600004C08A81813309F44A94141474F5F8E0A1
:10287000F41578F588E0482E2CC076FC2AC0812F0C
:1028800090E08C159D059CF06CEFC6166FEFD60698
:1028900074F0772D7068772E0AC0E2E0F0E0EC0F5C
:1028A000FD1FE10FF11D8081803319F411501111CA
:1028B000F4CF77FE0EC044244394410E812F90E064
:1028C000C816D9062CF41C1904C04424439401C032
:1028D00010E077FE07C01C141D043CF496012F5F26
:1028E0003F4F05C025E030E002C021E030E0662027
:1028F00011F02F5F3F4F112331F0412F50E04F5F18
:102900005F4F240F351F452D50E02417350714F471
:10291000521A01C0512C872D897049F4552039F085
:10292000B70180E290E00E94C01E5A94F7CF662063
:1029300029F0B701862D90E00E94C01E73FC09C0EB
:10294000552039F0B70180E390E00E94C01E5A94F0
:10295000F7CF77FE5FC09C2D8D2DD7FE02C090E093
:1029600080E0692E782E40E050E0C601841991097C
:102970009D878C87960126193709280D391D812FCF
:1029800090E0EE27FF27E81BF90BFF87EE87FFEFAC
:102990006F167F0669F4B7018EE290E02B8B3A8BBD
:1029A000488B598B0E94C01E598948893A892B89C6
:1029B000C614D70454F06C857D85661577052CF414
:1029C000F901E40FF51F818101C080E371E0671A0E
:1029D00071084F5F5F4FEE85FF856E167F066CF0C6
:1029E000B70190E02B8B3A8B488B598B0E94C01E0D
:1029F0002B893A8948895989CACF6C147D0439F4E6
:102A00009A81963318F4953311F404FF81E3B701EA
:102A100090E04BC08A81813309F00F7EB70190E0CE
:102A20000E94C01E111105C074FE18C085E490E01C
:102A300017C0B7018EE290E00E94C01E82E06624BB
:102A40006394680EF401E80FF11D8081B70190E0F6
:102A50000E94C01E115041F3862DF1CF85E690E013
:102A6000B7010E94C01ED7FC05C0C114D10439F4BF
:102A700004FF05C0D194C194D1088DE201C08BE25E
:102A8000B70190E00E94C01E80E36AE0C616D10440
:102A90002CF08F5FFAE0CF1AD108F7CFB70190E0A2
:102AA0000E94C01EB701C601C0960E94C01E41C14F
:102AB000833631F0833779F0833509F058C021C06F
:102AC000560172E0A70EB11CF6018081898301E0F6
:102AD00010E0640114C05601F2E0AF0EB11CF60123
:102AE000C080D18026FF03C0612F70E002C06FEF6D
:102AF0007FEFC6012B8B0E942D1E8C012B892F7717
:102B000015C05601F2E0AF0EB11CF601C080D180B5
:102B100026FF03C0612F70E002C06FEF7FEFC60198
:102B20002B8B0E94221E8C012B892068722E23FD84
:102B30001AC0852D90E008171907A8F4B70180E2A4
:102B400090E00E94C01E5A94F4CFF60177FC859164
:102B500077FE81916F01B70190E00E94C01E511075
:102B60005A94015011090115110579F7E2C0843614
:102B700011F0893651F5560127FF09C0F4E0AF0E78
:102B8000B11CF60160817181828193810AC0F2E0FB
:102B9000AF0EB11CF60160817181882777FD8095A9
:102BA000982F022F0F7697FF08C09095809570950B
:102BB00061957F4F8F4F9F4F00682AE030E0A4015E
:102BC0000E946D1FC82EC8183EC0022F853721F401
:102BD0000F7E2AE030E01DC0097F8F3691F018F497
:102BE000883559F0B0C0803719F0883711F0ABC084
:102BF000006104FF09C0046007C024FF08C006602C
:102C000006C028E030E005C020E130E002C020E14D
:102C100032E0560107FF09C0F4E0AF0EB11CF60127
:102C2000608171818281938108C0F2E0AF0EB11C96
:102C3000F6016081718180E090E0A4010E946D1F27
:102C4000C82EC8180F7706FF0BC0202F2E7FC11685
:102C500050F404FF0AC002FD08C0202F2E7E05C0DC
:102C6000DC2C202F03C0DC2C01C0D12E24FF0DC092
:102C7000FE01EC0DF11D8081803311F4297E09C025
:102C800022FF06C0D394D39404C0822F867809F023
:102C9000D39423FD13C020FF06C01C2DD51418F4B7
:102CA000150D1D19D52CD51468F4B70180E290E0FC
:102CB0002B8B0E94C01ED3942B89F5CFD51410F412
:102CC0005D1801C0512C24FF12C0B70180E390E0D1
:102CD0002B8B0E94C01E2B8922FF17C021FF03C02F
:102CE00088E590E002C088E790E0B7010CC0822F31
:102CF000867859F021FD02C080E201C08BE227FDF9
:102D00008DE2B70190E00E94C01EC11638F4B701F1
:102D100080E390E00E94C01E1150F7CFCA94F401E6
:102D2000EC0DF11D8081B70190E00E94C01EC11022
:102D3000F5CF552009F4C2CCB70180E290E00E94A3
:102D4000C01E5A94F6CFF7018681978102C08FEF9B
:102D50009FEF63960FB6F894DEBF0FBECDBFDF9135
:102D6000CF911F910F91FF90EF90DF90CF90BF9088
:102D7000AF909F908F907F906F905F904F903F901B
:102D80002F90089520FD09C0FC0123FD05C022FFFE
:102D900002C07383628351834083089544FD10C051
:102DA00046FD10C0DB01FC01AA0FBB1FEE1FFF1F79
:102DB0001094D1F76A0F7B1F8E1F9F1F31E003C055
:102DC00033E001C034E0660F771F881F991F315030
:102DD000D1F7620F711D811D911D08950F931F93EF
:102DE000CF93DF938C01C8018DD7EC0197FD07C00D
:102DF0000ED7892BC1F7B801CE010E94541FCE0116
:102E0000DF91CF911F910F9108956F927F929F92C2
:102E1000AF92BF92CF92DF92EF92FF920F931F93E8
:102E2000CF93DF931F92CDB7DEB78C013B015A01E0
:102E3000298368D7AC01552729814B32510521F0F0
:102E40004D32510579F4206831E0631A710861143C
:102E5000710411F480E078C0C801298353D7298117
:102E600097FDF8CFE22FED7F9E2E322F307369F55C
:102E7000803359F57301F1E0EF1AF108E114F10420
:102E800009F44FC0C80129833DD7298197FD49C066
:102E9000382F3F7D383579F4292D2264922E32E087
:102EA000631A71086114710409F43BC0C8012AD780
:102EB00097FF0BC036C026FF04C0E92DE2609E2EAE
:102EC00003C0F92DF2619F2E3701C12CD12C760160
:102ED00020ED280F283078F094FE03C0B801E4D725
:102EE0001DC02A3040F096FEF9CF2F7D3FEE320F05
:102EF0003630A0F72750492DC701B6014FDF6B01CF
:102F00007C01292D2260922E31E0631A7108611430
:102F1000710451F0C801F6D697FFDACF91FC04C0D6
:102F200099CFC12CD12C760197FE08C0F094E09483
:102F3000D094C094C11CD11CE11CF11C292DB701F7
:102F4000A601C5011FDF81E00F90DF91CF911F9196
:102F50000F91FF90EF90DF90CF90BF90AF909F9038
:102F60007F906F9008954F925F926F927F928F92B1
:102F70009F92AF92BF92CF92DF92EF92FF920F9308
:102F80001F93CF93DF93CDB7DEB7A0970FB6F8941A
:102F9000DEBF0FBECDBF5C014B017A018E010F5F1A
:102FA0001F4F680180E2F80111928A95E9F7F50157
:102FB000638080E090E0712C412CB0E041E050E073
:102FC000F90163FC559063FE51908F01A52D9F017F
:102FD000511003C080E090E07DC0FEE55F1202C0AA
:102FE000009761F16B2F70E0681779074CF46DE57D
:102FF000561661F1EDE25E1203C0442009F103C0F0
:10300000411001C0752C6A2F669566956695F6018C
:10301000E60FF11D6A2F67708A0102C0000F111FB1
:103020006A95E2F7B8017081762B7083A71559F085
:10303000A71510F4AF5FE7CFA150E5CFB1E004C012
:103040004424439401C0412C0196BACF442019F086
:103050008E8180628E83B11103C07724739419C06E
:10306000F601CE018196208120952193E817F9077A
:10307000D1F7F3CFE114F10429F0F7018083C70100
:1030800001967C0191E0891A910881149104E1F084
:10309000712CC50137D697FD15C0282F269526958A
:1030A0002695F601E20FF11D208130E0AC0147705A
:1030B000552702C0359527954A95E2F720FDDACFCE
:1030C000B501F2D6711086CFE114F10411F0F701C9
:1030D0001082C801A0960FB6F894DEBF0FBECDBF18
:1030E000DF91CF911F910F91FF90EF90DF90CF90E4
:1030F000BF90AF909F908F907F906F905F904F9018
:1031000008952F923F924F925F926F927F929F927B
:10311000AF92BF92CF92DF92EF92FF920F931F93E5
:10312000CF93DF9300D000D000D0CDB7DEB76C01D5
:103130008B011A01E7D59E838D8399278B329105E8
:1031400029F08D9791F480E8982E01C0912C0150C0
:1031500011090115110511F480E028C1C601D2D56D
:103160009E838D8397FF02C0F7CF912C8D819E8126
:1031700056D58936910541F08E369105C1F5B0E2FC
:103180006B2EB1E07B2E04C0A3E26A2EA1E07A2E62
:103190008FEF681A780AF3013197B490BB20D9F009
:1031A000015011090115110559F0C601ABD57C017B
:1031B00097FD06C034D5B81659F3B601C70174D6C9
:1031C00026E2621621E0720609F0C6CF80E090E0A8
:1031D000A0E8BFE709C093E2691691E07906B1F76C
:1031E00080E090E0A0ECBFE7BC01CD01CFC0412C56
:1031F000512C3201E12CF12C2D8120532A3020F565
:10320000E92DE260BE2E892D887092FE06C08111E4
:1032100022C0FFEFEF1AFF0A1EC0882319F081E0D9
:10322000E81AF10840E2C301B201B8DD2B013C010C
:1032300098E9491699E95906690699E1790658F01D
:10324000E92DE660BE2E07C02E3F99F493FC11C015
:10325000F92DF860BF2E015011090115110541F03B
:10326000C60150D59E838D839B2C97FD02C0C4CF91
:103270009B2C91FE71CF8D818F7D853409F052C0DA
:10328000580121E0A21AB108A114B10409F464CFD5
:10329000C60138D59E838D8397FD5ECF99278B32EB
:1032A000910529F08D9779F4892D8061982E580128
:1032B00092E0A91AB108A114B10409F44DCFC601D6
:1032C00021D59E838D838D819E81C0970A9708F0BA
:1032D00043CF8501A12CB12CB501882777FD8095BE
:1032E000982F2D81205340E259DDAB01BC015A01DA
:1032F000015011090115110569F0C60149835A836E
:103300006B837C83FFD49E838D83C09749815A81D0
:103310000A9710F394FE04C0AA24BB24A41AB50A89
:10332000EA0CFB1C012B39F0ED81FE81F7FD03C097
:10333000B601CF01B9D5C301B20167D8F7FE08C005
:10334000F194E194F108FFE3AF2EF1E0BF2E04C049
:10335000E7E5AE2EE1E0BE2E6501F8E1CF1AD10817
:1033600000E210E0E016F10648F0F50125913591F4
:1033700045915491DCD8E01AF10AF4CF24E0A21A66
:10338000B10816950795AC14BD0461F797FE05C00A
:10339000DC01CB01B058BC01CD012114310429F06E
:1033A000F101608371838283938381E026960FB657
:1033B000F894DEBF0FBECDBFDF91CF911F910F916B
:1033C000FF90EF90DF90CF90BF90AF909F907F9055
:1033D0006F905F904F903F902F9008954F925F9223
:1033E0006F927F928F929F92AF92BF92CF92DF9215
:1033F000EF92FF920F931F93CF93DF931F92CDB75E
:10340000DEB78C012B017A01FC0117821682A12CF8
:10341000F801D380F201D3FC8591D3FE8191382F3E
:103420002F01882309F407C190E03983F0D3398153
:10343000892B19F0C801D2DCEBCF353241F4F2010F
:10344000D3FC3591D3FE31912F01353259F4C801A7
:10345000398358D4398197FDECC03817C9F2B801C7
:1034600023D5E9C03A3241F4D3FC3591D3FE3191F2
:103470002F01BB24B39401C0B12C812C912C20EDE1
:10348000230F2A3080F4FB2DF260BF2EB40180E0C0
:1034900090E040E283DC4B01F201D3FC3591D3FE96
:1034A00031912F01ECCFB1FE04C08114910421F4BD
:1034B000C2C088248A94982C383619F03C3661F0C2
:1034C00014C0F201D3FC3591D3FE31912F0138366F
:1034D00061F4FB2DF860BF2E8B2D8460B82EF201B5
:1034E000D3FC3591D3FE31912F01332309F4A3C0CE
:1034F000632F70E08EE091E0398399D33981892B75
:1035000009F499C0B0FC07C0F701C080D180C701A1
:1035100002967C0102C0C12CD12C3E3649F4F80140
:103520004681578160E070E02B2DC6012BDC70CF07
:103530003336C1F4B1FC03C088248394912CC801B4
:10354000E1D397FD76C0C114D10429F0F601808340
:10355000C60101966C0191E0891A910881149104C9
:1035600071F763C03B3551F49201A601B401C80163
:10357000FADC2C01009709F058C052C0C801398309
:103580002DDC398197FD55C03F36D9F140F43436F2
:10359000A1F13936C9F1383509F03CC02AC03337BA
:1035A000B9F018F4303729F135C0353731F13837F3
:1035B00001F130C0C114D10429F0F6016082C601C6
:1035C00001966C0191E0891A91088114910459F0D7
:1035D000C80198D33C0197FD06C019D3892B51F33C
:1035E000B801C30161D4C114D104F9F0F60110820D
:1035F0001CC0FB2DF064BF2E07C08B2D8062B82E3F
:1036000003C09B2D9061B92E2B2DA601B401C801DA
:10361000FCDB04C0A601B401C80173DD811105C043
:10362000F8018381807329F406C0B0FCF1CEA39425
:10363000EFCEAA2019F08A2D90E002C08FEF9FEF05
:103640000F90DF91CF911F910F91FF90EF90DF903E
:10365000CF90BF90AF909F908F907F906F905F9032
:103660004F900895DB018F939F9382D0BF91AF91CC
:10367000A29F800D911DA39F900DB29F900D1124CC
:103680000895991B79E004C0991F961708F0961BBE
:10369000881F7A95C9F780950895AA1BBB1B51E135
:1036A00007C0AA1FBB1FA617B70710F0A61BB70BB2
:1036B000881F991F5A95A9F780959095BC01CD0157
:1036C000089597FB072E16F4009406D077FD08D0D6
:1036D000E4DF07FC05D03EF4909581959F4F089557
:1036E000709561957F4F0895A1E21A2EAA1BBB1B0E
:1036F000FD010DC0AA1FBB1FEE1FFF1FA217B307BE
:10370000E407F50720F0A21BB30BE40BF50B661FD3
:10371000771F881F991F1A9469F760957095809597
:1037200090959B01AC01BD01CF010895052E97FB3B
:1037300016F400940FD057FD05D0D6DF07FC02D059
:1037400046F408C050954095309521953F4F4F4F16
:103750005F4F089590958095709561957F4F8F4F3D
:103760009F4F0895EE0FFF1F0590F491E02D0994EF
:1037700040D0A59F900DB49F900DA49F800D911DEA
:10378000112408952F923F924F925F926F927F92F1
:103790008F929F92AF92BF92CF92DF92EF92FF9261
:1037A0000F931F93CF93DF93CDB7DEB7CA1BDB0B0D
:1037B0000FB6F894DEBF0FBECDBF09942A883988B2
:1037C00048885F846E847D848C849B84AA84B984B9
:1037D000C884DF80EE80FD800C811B81AA81B981C5
:1037E000CE0FD11D0FB6F894DEBF0FBECDBFED01D9
:1037F0000895A29FB001B39FC001A39F700D811DCA
:103800001124911DB29F700D811D1124911D0895E9
:10381000CF93DF938230910510F482E090E0E09145
:10382000A603F091A70320E030E0A0E0B0E03097DD
:1038300039F14081518148175907B8F048175907A5
:1038400071F482819381109729F013969C938E9343
:1038500012972CC09093A7038093A60327C021152D
:10386000310531F04217530718F0A901DB0101C0FF
:10387000EF019A01BD01DF010280F381E02DD7CF76
:1038800021153105F9F0281B390B2430310580F45E
:103890008A819B816115710521F0FB0193838283ED
:1038A00004C09093A7038093A603FE01329644C000
:1038B000FE01E20FF31F8193919322503109398366
:1038C00028833AC02091A4033091A503232B41F40F
:1038D00020914401309145013093A5032093A40326
:1038E00020914201309143012115310541F42DB75A
:1038F0003EB74091460150914701241B350BE091A2
:10390000A403F091A503E217F307A0F42E1B3F0BCD
:103910002817390778F0AC014E5F5F4F2417350741
:1039200048F04E0F5F1F5093A5034093A40381936B
:10393000919302C0E0E0F0E0CF01DF91CF910895D4
:10394000CF93DF93009709F487C0FC01329713826D
:103950001282C091A603D091A703209781F4208101
:103960003181280F391F8091A4039091A5038217FC
:10397000930779F5F093A503E093A4036DC0DE01EE
:1039800020E030E0AE17BF0750F412964D915C91E5
:1039900013979D014115510509F1DA01F3CFB38366
:1039A000A28340815181840F951F8A179B0771F470
:1039B0008D919C911197840F951F0296918380831E
:1039C00012968D919C9113979383828321153105D3
:1039D00029F4F093A703E093A6033EC0D901139600
:1039E000FC93EE9312974D915D91A40FB51FEA17CA
:1039F000FB0779F480819181840F951F0296D9018C
:103A000011969C938E938281938113969C938E93AF
:103A10001297E0E0F0E08A819B81009719F0FE01A7
:103A2000EC01F9CFCE01029628813981820F931FD4
:103A30002091A4033091A5032817390769F4309722
:103A400029F41092A7031092A60302C013821282D7
:103A5000D093A503C093A403DF91CF91089528309C
:103A600008F027E03327DA01990F311D87FD9160B7
:103A700000966105710539F432602E5F3D9330E3A5
:103A80002A95E1F708959F3F30F080387105610570
:103A900009F03C5F3C5F3D93913008F08068911DD8
:103AA000DF93CF931F930F93FF92EF92192F987F7D
:103AB0009695E92F96959695E90FFF27EB54FE4FC3
:103AC00099273327EE24FF24A701E70105900894E6
:103AD000079428F4360FE71EF81E491F511D660F84
:103AE000771F881F991F0694A1F70590079428F463
:103AF000E70EF81E491F561FC11D770F881F991F1B
:103B0000661F0694A1F70590079428F4F80E491F44
:103B1000561FC71FD11D880F991F661F771F069458
:103B2000A1F70590079420F4490F561FC71FD81F0F
:103B3000990F661F771F881F0694A9F78491109527
:103B4000177041F0D695C79557954795F794E79428
:103B50001A95C1F7EBE5F1E0689415901591359150
:103B60006591959105907FE27395E118F10A430BF9
:103B7000560BC90BD009C0F7E10CF11E431F561FAD
:103B8000C91FD01D7EF4703311F48A95E6CFE894F6
:103B9000015030F0080F0AF40027021708F4202F14
:103BA0002395022F7A3328F079E37D932A95E9F75C
:103BB00010C07D932A9589F6069497956795379559
:103BC00017951794E118F10A430B560BC90BD0094E
:103BD00098F023957E9173957A3308F070E37C9387
:103BE0002013B8F77E9170617D9330F0839571E377
:103BF0007D9370E32A95E1F71124EF90FF900F91E8
:103C00001F91CF91DF91992787FD9095089591118C
:103C1000DCC1803219F089508550D0F70895911198
:103C2000089581548A5108F4805E855A0895FC01F4
:103C30000590061621F00020D9F7C00108953197AC
:103C4000CF010895FC010590615070400110D8F734
:103C5000809590958E0F9F1F0895FC0161507040D4
:103C600001900110D8F7809590958E0F9F1F0895B1
:103C70000F931F93CF93DF93EC018B01009731F4E7
:103C80006115710519F480E090E037C06EE070E0D6
:103C900081E090E080D1FC010097A9F380E8838364
:103CA0000115110571F01387028781E883838091E4
:103CB000A8039091A903892B21F4F093A903E09321
:103CC000A8032097C9F0D187C0878381826083834E
:103CD0008091AA039091AB03892B71F4F093AB030D
:103CE000E093AA038091AC039091AD03892B21F45A
:103CF000F093AD03E093AC03CF01DF91CF911F911F
:103D00000F910895CF93DF93EC012B8120FF33C0F7
:103D100026FF0AC02F7B2B838E819F8101969F8374
:103D20008E838A8190E029C022FF0FC0E881F9814B
:103D30008081992787FD9095009719F420622B8345
:103D40001AC03196F983E8830EC0EA85FB85099590
:103D500097FF09C02B81019611F480E101C080E238
:103D6000822B8B8308C02E813F812F5F3F4F3F8383
:103D70002E83992702C08FEF9FEFDF91CF91089597
:103D80000F931F93CF93DF93182F092FEB018B8194
:103D900081FD03C08FEF9FEF20C082FF10C04E81D6
:103DA0005F812C813D81421753077CF4E881F981C2
:103DB0009F012F5F3F4F39832883108306C0E8851A
:103DC000F985812F0995892B29F72E813F812F5F56
:103DD0003F4F3F832E83812F902FDF91CF911F91F3
:103DE0000F910895CF93DF93CDB7DEB7FE013596DF
:103DF00061917191AF018091AA039091AB030E94F0
:103E00001E13DF91CF9108950F931F93CF93DF93EC
:103E1000CDB7DEB72E970FB6F894DEBF0FBECDBF7D
:103E20000D891E8986E08C831A8309838FEF9FE7B3
:103E30009E838D83AE01475E5F4F6F89788DCE0183
:103E400001960E941E13EF81F885E00FF11F10828A
:103E50002E960FB6F894DEBF0FBECDBFDF91CF9187
:103E60001F910F910895CF93DF93CDB7DEB72E97B3
:103E70000FB6F894DEBF0FBECDBF85E08C838B8973
:103E80009C899A838983AE01495E5F4F6D897E89E3
:103E9000CE010196A3DA2E960FB6F894DEBF0FBEC0
:103EA000CDBFDF91CF910895FB01238120FF12C088
:103EB00026FD10C08F3F3FEF930761F082832F7D77
:103EC000206423832681378121503109378326835B
:103ED000992708958FEF9FEF0895FA01AA272830B8
:103EE00051F1203181F1E8946F936E7F6E5F7F4FC7
:103EF0008F4F9F4FAF4FB1E03ED0B4E03CD0670F43
:103F0000781F891F9A1FA11D680F791F8A1F911D95
:103F1000A11D6A0F711D811D911DA11D20D009F4E5
:103F200068943F912AE0269F11243019305D319327
:103F3000DEF6CF010895462F4770405D4193B3E010
:103F40000FD0C9F7F6CF462F4F70405D4A3318F0B7
:103F5000495D31FD4052419302D0A9F7EACFB4E068
:103F6000A6959795879577956795BA95C9F7009720
:103F70006105710508959B01AC010A2E06945795C1
:103F8000479537952795BA95C9F7620F731F841F18
:103F9000951FA01D08950F931F93CF93DF93869FC6
:103FA0008001879F100D969F100D1124C80130DCF1
:103FB000EC01009721F0A80160E070E009D0CE018B
:103FC000DF91CF911F910F91089599278827089528
:103FD000DC0101C06D9341505040E0F70895F89422
:023FE000FFCF11
:103FE20001040400D007F4010F009C01B501CF01C8
:103FF200EA0107022602470269028E02B502DE02C8
:104002000A0302100000000000000000000000008F
:10401200000000000000000001000000000000009D
:1040220000000000AE032000633A2564006C3A25CC
:1040320064000D0A4B703A25202E3266204B693AF5
:1040420025202E3266204B643A25202E32660D0A38
:10405200004D3A25202E326600543A25202E326633
:10406200000D0A4D656E753A203C636861723E2010
:104072003C696E743E0D0A000D54595045207B4830
:10408200683F7D20666F722068656C703A20000D73
:104092000A0D0A5553422053657269616C20496EBC
:1040A200697469616C697A65640D0A00256320256B
:1040B20064004F703A256320563A25640D0A004C7D
:1040C2002F6C3A546F67676C65206C6F6767696E17
:1040D200672050722C506D2C540D0A00562F763AE0
:1040E20056696577204B642C4B702C566D2C5072A0
:1040F2002C506D2C540D0A00522F723A53657420C5
:1041020072656620706F73202875736520756E69FD
:104112007420636F756E74290D0A00532F733A531E
:104122006574207265662073706565642028636F0C
:10413200756E74732F736563290D0A00502F703AE0
:10414200536574204B70202D203130202D3E202EBF
:10415200310D0A00442F643A536574204B64202DBC
:10416200203130202D3E202E310D0A00492F693A90
:10417200536574204B69202D203130202D3E202E96
:10418200310D0A00422F623A546F67676C65204C0A
:1041920043440D0A00743A4578656375746520746A
:1041A20072616A6563746F72790D0A00436D6420EF
:1041B200756E6B6E2E20547279207B3F7D0D0A0046
:00000001FF
