:100000000C9446000C9465000C9465000C946500FB
:100010000C9465000C9465000C9465000C946500CC
:100020000C9465000C9465000C9465000C94170307
:100030000C9465000C9465000C9465000C946500AC
:100040000C9465000C9465000C9465000C9465009C
:100050000C9465000C9465000C9465000C9465008C
:100060000C9465000C9465000C9465000C9465007C
:100070000C9465000C9465000C9465000C9465006C
:100080000C9465000C9465000C94650011241FBE4F
:10009000CFEFD0E4DEBFCDBF11E0A0E0B1E0EEEDE8
:1000A000F7E000E00BBF02C007900D92A830B10747
:1000B000D9F721E0A8E0B1E001C01D92A932B20752
:1000C000E1F70E94C4000C94ED030C94000088300A
:1000D00058F491E001C0990F8A95EAF7892FAAE2B6
:1000E000B0E0EBE2F0E031C0803160F498EF980FBF
:1000F00081E001C0880F9A95EAF7A4E2B0E0E5E25A
:10010000F0E023C0883160F490EF980F81E001C0E7
:10011000880F9A95EAF7A7E2B0E0E8E2F0E015C0B0
:10012000803270F42FE130E0281B310981E001C0FA
:10013000880F2A95EAF7A1E2B0E0E2E2F0E005C01C
:1001400080E0A0E0B0E0E0E0F0E06F3F19F49081E3
:10015000982709C0662319F09081982B04C020814C
:10016000982F9095922390839C91982B9C9308951F
:100170008F3F11F46FEF05C0811102C061E001C033
:1001800060E081E00C9467000E94B3030E94990331
:100190006B017C010E94310282E091E00E944802E2
:1001A000B12C00E0C0E0D0E011E08CE20E940C0332
:1001B000A82E85FF05C0D1276D2F84E10E9467001E
:1001C000A2FE04C0C1278C2F0E94B800DD2379F065
:1001D00084EFC81681E0D806E104F104F8F00127A5
:1001E000602F84E10E946700C1110AC015C0CC23B2
:1001F00061F084EFC81681E0D806E104F10470F0E4
:10020000B1268B2D0E94B80007C084EFC81681E08C
:10021000D806E104F10410F00E94B3030E94990390
:100220006B017C01C2CF81E090E06F9364E06A953E
:10023000F1F76F910197C9F708950F931F93CF932B
:10024000DF9317B13D982898299AC0E0D0E00E942A
:1002500013012A9A0E94130106B12A980E941301E1
:100260002A9A0E9413012A98249605FF10C09E0125
:1002700040E050E080910C0190910D01A0910E01A1
:10028000B0910F01281739074A075B0700F39E0159
:1002900040E050E080910C0190910D01A0910E0181
:1002A000B0910F01281739074A075B0728F082E34E
:1002B00090E0A0E0B0E004C080E395E7A0E0B0E00B
:1002C00080930C0190930D01A0930E01B0930F0148
:1002D00017B9DF91CF911F910F91089528B190E048
:1002E0008F709070880F991F880F991F237C282B7F
:1002F00028B92A9A0E9413012A980E94130108958E
:10030000A2E0B0E0E6E8F1E00C94C303182F4A83C2
:1003100069830E94FB010E941D01F7B008B1299872
:1003200069814A81662311F0289A01C0289887B113
:100330008C6387B9413029F0812F82958F700E949C
:100340006E01812F8F700E946E01F7B808B9229656
:10035000E5E00C94DF0360E042E00E948001089534
:1003600061E042E00E948001089560E041E00E9467
:10037000800108953D98459A80E395E7A0E0B0E0BC
:1003800080930C0190930D01A0930E01B0930F0187
:10039000209A219A229A8EE190E00E945F0383E0E6
:1003A0000E94B50186E090E00E945F0383E00E9416
:1003B000B50182E090E00E945F0383E00E94B501F6
:1003C00082E090E00E945F0382E00E94B50182E03B
:1003D00090E00E945F0388E20E94AB0188E00E94E7
:1003E000AB0181E00E94AB0186E00E94AB018CE092
:1003F0000E94AB01089580911001882329F481E0C7
:10040000809310010E94BA01089581E00E94AB011F
:100410008091080190910901009711F1A0E0B0E2EC
:1004200008C0E0910801F0910901E20FF31FB083C9
:10043000AF5F2A2F30E08091000190E0019760913A
:10044000010170E0869FA001879F500D969F500D7F
:100450001124241735072CF310920B0110920A0176
:1004600008950E9405020895EF92FF92CF93DF93C3
:10047000E82EE7017E01F92EE70102C00E94B001DB
:1004800089918823D9F7DF91CF91FF90EF9008955C
:100490000E943402089587B1837D87B988B18C6248
:1004A00088B985E090E06F9364E06A95F1F76F9109
:1004B0000197C9F7089580911101882329F481E0FB
:1004C000809311010E944B020895BF92CF92DF9258
:1004D000EF92FF920F931F93B82EC6B0DC2CD094EE
:1004E0000E9499037B018C010E945B0280911D0197
:1004F000813021F1813038F0823009F445C08330F9
:1005000009F081C063C02B2D30E04D2D50E04095A7
:100510005095242335232115310509F474C0CB20CF
:10052000C0921801E0921901F0921A0100931B0188
:1005300010931C0181E080931D0165C08091190119
:1005400090911A01A0911B01B0911C01E81AF90ABF
:100550000A0B1B0B8FE0E816F1040105110508F4E6
:1005600052C0409118018D2D90E080959095242FD8
:1005700030E082239323009731F182E080931D01C4
:10058000C422C09218013FC0409118018D2D8423D0
:1005900071F093E090931D0180931801E09219018E
:1005A000F0921A0100931B0110931C012CC050E023
:1005B0008B2D90E02D2D30E02095309582239323D4
:1005C0004817590701F110921D011DC080911901B2
:1005D00090911A01A0911B01B0911C01E81AF90A2F
:1005E0000A0B1B0B8FE0E816F1040105110558F00A
:1005F000809118018D2119F010921D0105C092E023
:1006000090931D0101C080E01F910F91FF90EF902A
:10061000DF90CF90BF9008950E94650208956F9378
:1006200064E06A95F1F76F910197C9F708952F92E9
:100630008F939F932FB680911F0190912001019677
:1006400080931F019093200190E080912101891FE8
:1006500080932101909127019C5F909327018091C5
:10066000260180519742C0F0909327018093260184
:100670008091220190912301019680932201909311
:10068000230190E080912401891F809324018091AF
:100690002501891F809325012FBE9F918F912F9057
:1006A0001895CF93DF93EC0105C088EE93E00E948C
:1006B0000F0321972097C9F7DF91CF9108950E94EA
:1006C00051030895E0E7F0E080818E7F8083A0EB06
:1006D000B0E08C9183608C93A1EBB0E08C91807F33
:1006E0008C938C9182608C93B89A80818160808396
:1006F0007894089580912801882329F481E08093DB
:1007000028010E94620308950E947A03E0E7F0E066
:1007100080818E7F8083209122013091230140913E
:10072000240150912501808181608083B901CA0133
:1007300008950E94840308950E947A03E0E7F0E0A0
:1007400080818E7F8083109222011092230110926B
:100750002401109225011092270110922601808118
:100760008160808308950E949C0308952F923F9298
:100770004F925F926F927F928F929F92AF92BF92B1
:10078000CF92DF92EF92FF920F931F93CF93DF935D
:10079000CDB7DEB7CA1BDB0B0FB6F894DEBF0FBEBA
:1007A000CDBF09942A88398848885F846E847D8407
:1007B0008C849B84AA84B984C884DF80EE80FD8009
:1007C0000C811B81AA81B981CE0FD11D0FB6F8947F
:0E07D000DEBF0FBECDBFED010895F894FFCF40
:0807DE0002105265616479000C
:00000001FF
