:100000000C9446000C9465000C9465000C946500FB
:100010000C9465000C9465000C9465000C946500CC
:100020000C9465000C9465000C9465000C946500BC
:100030000C9465000C9465000C9465000C946500AC
:100040000C9475000C9465000C9465000C9465008C
:100050000C9465000C9465000C9465000C9465008C
:100060000C9465000C9465000C9465000C9465007C
:100070000C9465000C9465000C9465000C9465006C
:100080000C9465000C9465000C94650011241FBE4F
:10009000CFEFD0E4DEBFCDBF11E0A0E0B1E0E6EFEE
:1000A000F1E000E00BBF02C007900D92A030B10755
:1000B000D9F721E0A0E0B1E001C01D92A430B20761
:1000C000E1F70E94D0000C94F9000C9400008F3FDF
:1000D00029F48BB192E089278BB905C0882311F0F0
:1000E000599A01C05998519A08951F920F920FB6CC
:1000F0000F9211240BB60F922F933F934F935F9360
:100100006F937F938F939F93AF93BF93EF93FF93DF
:10011000F894609100017091010180910201909129
:1001200003016F5F7F4F8F4F9F4F6093000170936C
:100130000101809302019093030124EF31E040E03C
:1001400050E00E94D700672B682B692B59F48FEF82
:100150000E946700109200011092010110920201AA
:10016000109203017894FF91EF91BF91AF919F910D
:100170008F917F916F915F914F913F912F910F9050
:100180000BBE0F900FBE0F901F90189582E884BD94
:1001900086E085BD88EC87BD82E080936E0008957F
:1001A0008FEF0E9467000E94C6007894FFCFA1E203
:1001B0001A2EAA1BBB1BFD010DC0AA1FBB1FEE1FE1
:1001C000FF1FA217B307E407F50720F0A21BB30B2C
:1001D000E40BF50B661F771F881F991F1A9469F7A8
:1001E00060957095809590959B01AC01BD01CF0104
:0601F0000895F894FFCF12
:00000001FF
