:100000000C9446000C9465000C9465000C946500FB
:100010000C9465000C9465000C9465000C946500CC
:100020000C9465000C9465000C9465000C94FF0121
:100030000C9465000C9465000C9465000C946500AC
:100040000C9467000C9465000C9465000C9465009A
:100050000C9465000C9465000C9465000C9465008C
:100060000C9465000C9465000C9465000C9465007C
:100070000C9465000C9465000C9465000C9465006C
:100080000C9465000C9465000C94650011241FBE4F
:10009000CFEFD0E4DEBFCDBF11E0A0E0B1E0EAE4F5
:1000A000F5E000E00BBF02C007900D92A630B1074B
:1000B000D9F721E0A6E0B1E001C01D92AE31B20750
:1000C000E1F70E94D3000C94A3020C9400001F924D
:1000D0000F920FB60F9211240BB60F922F933F93EE
:1000E0004F935F936F937F938F939F93AF93BF9340
:1000F000EF93FF93F89460911A0170911B01809126
:100100001C0190911D016F5F7F4F8F4F9F4F609338
:100110001A0170931B0180931C0190931D01209183
:1001200002013091030140910401509105010E94A8
:100130004A02672B682B692B69F48BB192E08927FF
:100140008BB9519A10921A0110921B0110921C0146
:1001500010921D017894FF91EF91BF91AF919F9103
:100160008F917F916F915F914F913F912F910F9060
:100170000BBE0F900FBE0F901F90189582EA8093D0
:1001800080008DE180938100E6E8F0E080ED97E06B
:100190009183808380819181969587959093890042
:1001A0008093880008950E94F4010E94BE00559A31
:1001B0005D9A7894FFCF81E090E06F9364E06A9558
:1001C000F1F76F910197C9F708950F931F93CF939C
:1001D000DF9317B13D982898299AC0E0D0E00E949B
:1001E000DB002A9A0E94DB0006B12A980E94DB00FD
:1001F0002A9A0E94DB002A98249605FF10C09E01CF
:1002000040E050E080910A0190910B01A0910C0117
:10021000B0910D01281739074A075B0700F39E01CB
:1002200040E050E080910A0190910B01A0910C01F7
:10023000B0910D01281739074A075B0728F082E3C0
:1002400090E0A0E0B0E004C080E395E7A0E0B0E07B
:1002500080930A0190930B01A0930C01B0930D01C0
:1002600017B9DF91CF911F910F91089528B190E0B8
:100270008F709070880F991F880F991F237C282BEF
:1002800028B92A9A0E94DB002A980E94DB00089570
:10029000A2E0B0E0EEE4F1E00C947902182F4A837A
:1002A00069830E94BE010E94E500F7B008B1299859
:1002B00069814A81662311F0289A01C0289887B184
:1002C0008C6387B9413029F0812F82958F700E940D
:1002D0003601812F8F700E943601F7B808B9229637
:1002E000E5E00C94950260E042E00E944801089528
:1002F00060E041E00E94480108953D98459A80E3FE
:1003000095E7A0E0B0E080930A0190930B01A093E1
:100310000C01B0930D01209A219A229A8EE190E06F
:100320000E94470283E00E94780186E090E00E94EC
:10033000470283E00E94780182E090E00E94470239
:1003400083E00E94780182E090E00E94470282E010
:100350000E94780182E090E00E94470288E20E94B9
:10036000730188E00E94730181E00E94730186E0BE
:100370000E9473018CE00E947301089580910E0128
:10038000882329F481E080930E010E947D01089565
:1003900081E00E947301809106019091070100970E
:1003A00011F1A0E0B0E208C0E0910601F091070170
:1003B000E20FF31FB083AF5F2A2F30E0809100017E
:1003C00090E001976091010170E0869FA001879FF6
:1003D000500D969F500D1124241735072CF31092C1
:1003E00009011092080108950E94C80108956F93B1
:1003F00064E06A95F1F76F910197C9F708952F921C
:100400008F939F932FB680911001909111010196C7
:10041000809310019093110190E080911201891F47
:1004200080931201909118019C5F90931801809124
:10043000170180519742C0F09093180180931701E3
:100440008091130190911401019680931301909370
:10045000140190E080911501891F8093150180910E
:100460001601891F809316012FBE9F918F912F90A7
:100470001895CF93DF93EC0105C088EE93E00E94BE
:10048000F70121972097C9F7DF91CF9108950E9436
:1004900039020895A1E21A2EAA1BBB1BFD010DC053
:1004A000AA1FBB1FEE1FFF1FA217B307E407F50724
:1004B00020F0A21BB30BE40BF50B661F771F881F00
:1004C000991F1A9469F760957095809590959B0196
:1004D000AC01BD01CF0108952F923F924F925F92E0
:1004E0006F927F928F929F92AF92BF92CF92DF9244
:1004F000EF92FF920F931F93CF93DF93CDB7DEB7A9
:10050000CA1BDB0B0FB6F894DEBF0FBECDBF09943C
:100510002A88398848885F846E847D848C849B8493
:10052000AA84B984C884DF80EE80FD800C811B81A1
:10053000AA81B981CE0FD11D0FB6F894DEBF0FBED0
:0A054000CDBFED010895F894FFCF40
:06054A000210DC050000B8
:00000001FF
