S01C000053656E67353833315F41737369676E6D656E74732E73726563BF
S11300000C9446000C9465000C9465000C946500F7
S11300100C9465000C9465000C9465000C946500C8
S11300200C9465000C9465000C9465000C94D60740
S11300300C9465000C9465000C9465000C946500A8
S11300400C9465000C9465000C9465000C94650098
S11300500C9469050C947C070C9465000C94650061
S11300600C9465000C9465000C9465000C94650078
S11300700C9494050C94A5070C9465000C946500ED
S11300800C9465000C9465000C94650011241FBE4B
S1130090CFEFD0E4DEBFCDBF11E0A0E0B1E0ECEDE6
S11300A0F2E100E00BBF02C007900D92A433B10748
S11300B0D9F721E0A4E3B1E001C01D92AF39B20742
S11300C0E1F70E94D2000C946C090C94000082E0C9
S11300D00E946D03811103C00E944307F8CF089565
S11300E0CF93C82F0E945C0284E291E00E947302C5
S11300F08C2F0E94DD0161E080E00E949602CB32E9
S113010071F0CD3209F58091200190912101A091E7
S11301102201B09123014E96A11DB11D0BC0809107
S1130120200190912101A0912201B09123014E97C9
S1130130A109B1098093200190932101A093220188
S1130140B0932301CF9108950E94670080E28C2729
S113015080937F0141E06FE771E082E00E947907BC
S113016089E291E00E94730280917F01CF910C9407
S1130170DD0182E00E945D03E0915E018E1789F04B
S1130180F0E0E15AFE4F80810E94700080915E0190
S11301908F3119F410925E01ECCF8F5F80935E0172
S11301A0E8CF089540E855E260E070E082E00E9404
S11301B0880640E26FE571E082E00E9466050B9AD2
S11301C0539A139A5B9A0E9472080E945C028EE210
S11301D091E00E947302C12CD12C7601D0E0C0E0E2
S11301E018E00E9443070E94B9008CE20E945A035F
S11301F085FF06C092B192B99BB19BB9D0E0C1E032
S113020082FF06C092B192B99BB19BB9D1E0C0E024
S113021083FF06C082B182B98BB18BB9D0E0C0E054
S11302208091200190912101A0912201B09123019C
S1130230C816D906EA06FB0650F0CC2319F081B1A2
S1130240812781B9DD2319F08AB181278AB9809188
S1130250200190912101A0912201B0912301C8169F
S1130260D906EA06FB0610F00E9472080E9458089C
S11302706B017C01B6CF81E090E06F9364E06A95F6
S1130280F1F76F910197C9F708950F931F93CF93D7
S1130290DF9317B13D982898299AC0E0D0E00E94D6
S11302A03B012A9A0E943B0106B12A980E943B0115
S11302B02A9A0E943B012A98249605FF10C09E01A9
S11302C040E050E08091380190913901A0913A01C9
S11302D0B0913B01281739074A075B0700F39E01D9
S11302E040E050E08091380190913901A0913A01A9
S11302F0B0913B01281739074A075B0728F082E3CE
S113030090E0A0E0B0E004C080E395E7A0E0B0E0B6
S11303108093380190933901A0933A01B0933B0143
S113032017B9DF91CF911F910F91089528B190E0F3
S11303308F709070880F991F880F991F237C282B2A
S113034028B92A9A0E943B012A980E943B010895E9
S1130350A2E0B0E0EEEAF1E00C943309182F4A83EE
S113036069830E9426020E944501F7B008B12998CA
S113037069814A81662311F0289A01C0289887B1BF
S11303808C6387B9413029F0812F82958F700E9448
S11303909601812F8F700E949601F7B808B92296B2
S11303A0E5E00C944F0960E042E00E94A801089542
S11303B061E042E00E94A80108950E94D8010895D6
S11303C060E041E00E94A80108953D98459A80E3C9
S11303D095E7A0E0B0E08093380190933901A093B1
S11303E03A01B0933B01209A219A229A8EE190E03F
S11303F00E941E0883E00E94E00186E090E00E94D3
S11304001E0883E00E94E00182E090E00E941E0842
S113041083E00E94E00182E090E00E941E0882E0F6
S11304200E94E00182E090E00E941E0888E20E949F
S1130430D30188E00E94D30181E00E94D30186E0C9
S11304400E94D3018CE00E94D301089580913C0165
S1130450882329F481E080933C010E94E5010895FA
S113046081E00E94D301809134019091350100977D
S113047011F1A0E0B0E208C0E0913401F09135013F
S1130480E20FF31FB083AF5F2A2F30E080910001A9
S113049090E001976091010170E0869FA001879F21
S11304A0500D969F500D1124241735072CF31092EC
S11304B037011092360108950E9430020895EF9298
S11304C0FF92CF93DF93E82EE7017E01F92EE70137
S11304D002C00E94D80189918823D9F7DF91CF9176
S11304E0FF90EF9008950E945F020895A5E0B0E0A8
S11304F0ECE7F2E00C943509182F80E8898380EC4E
S11305008A8384E98B8384ED8C83FE01E60FF11DDD
S11305108181810F6D830E94D301109337016D8116
S1130520609336012596E3E00C9451090E9476020B
S1130530089587B1837D87B988B18C6288B985E0D5
S113054090E06F9364E06A95F1F76F910197C9F7B2
S1130550089580913D01882329F481E080933D0131
S11305600E9499020895BF92CF92DF92EF92FF9278
S11305700F931F93B82EC6B0DC2CD0940E94580859
S11305807B018C010E94A90280914901813021F1F3
S1130590813038F0823009F445C0833009F081C0DD
S11305A063C02B2D30E04D2D50E040955095242311
S11305B035232115310509F474C0CB20C0924401C0
S11305C0E0924501F09246010093470110934801DF
S11305D081E08093490165C0809145019091460175
S11305E0A0914701B0914801E81AF90A0A0B1B0BC4
S11305F08FE0E816F1040105110508F452C040919A
S113060044018D2D90E080959095242F30E0822335
S11306109323009731F182E080934901C422C09270
S113062044013FC0409144018D2D842371F093E037
S11306309093490180934401E0924501F092460170
S113064000934701109348012CC050E08B2D90E09B
S11306502D2D30E020953095822393234817590798
S113066001F1109249011DC080914501909146010C
S1130670A0914701B0914801E81AF90A0A0B1B0B33
S11306808FE0E816F1040105110558F0809144014A
S11306908D2119F01092490105C092E0909349010F
S11306A001C080E01F910F91FF90EF90DF90CF90F9
S11306B0BF9008950E94B3020895282F30E0F901F5
S11306C0EE0FFF1F43E0220F331F4A95E1F7E20FBD
S11306D0F31FEE5FFE4F82810895282F30E0F90169
S11306E0EE0FFF1F73E0220F331F7A95E1F7E20F3D
S11306F0F31FEE5FFE4F4181282F30E0F901EE0F2A
S1130700FF1F53E0220F331F5A95E1F7E20FF31F47
S1130710EE5FFE4F81E09381491380E00895282F16
S113072030E0F901EE0FFF1FB3E0220F331FBA953B
S1130730E1F7E20FF31FEE5FFE4F4085518541154F
S1130740510509F452C0282F30E0F901EE0FFF1FC4
S113075073E0220F331F7A95E1F7E20FF31FEE5F88
S1130760FE4F7281282F30E0F901EE0FFF1FB3E036
S1130770220F331FBA95E1F7E20FF31FEE5FFE4F2E
S11307809481791790F5282F30E0F901EE0FFF1FBF
S113079073E0220F331F7A95E1F7E20FF31FEE5F48
S11307A0FE4F9281490F511DFA016083282F30E0DA
S11307B0F901EE0FFF1F53E0220F331F5A95E1F7A3
S11307C0E20FF31FEE5FFE4F92819F5F282F30E010
S11307D0F901EE0FFF1FB3E0220F331FBA95E1F7C3
S11307E0E20FF31FEE5FFE4F9283282F30E0F901F2
S11307F0EE0FFF1F73E0220F331F7A95E1F7E20F2C
S1130800F31FEE5FFE4F4281282F30E0F901EE0F17
S1130810FF1F53E0220F331F5A95E1F7E20FF31F36
S1130820EE5FFE4F9481491701F5282F30E0F9015E
S1130830EE0FFF1F93E0220F331F9A95E1F7E20FAB
S1130840F31FEE5FFE4F9581992379F0282F30E056
S1130850F901EE0FFF1FB3E0220F331FBA95E1F742
S1130860E20FF31FEE5FFE4F128208950F931F9362
S1130870182F823009F475C0882319F4E1ECF0E0F4
S113088002C0E9ECF0E080818F778083812F90E0D3
S1130890FC01EE0FFF1F03E0880F991F0A95E1F793
S11308A0E80FF91FEE5FFE4F808591850097A9F14F
S11308B0212F30E0F901EE0FFF1FA3E0220F331FB9
S11308C0AA95E1F7E20FF31FEE5FFE4F9281212F0D
S11308D030E0F901EE0FFF1F63E0220F331F6A952A
S11308E0E1F7E20FF31FEE5FFE4F84819817A8F43F
S11308F0112319F4E0ECF0E002C0E8ECF0E08081B0
S113090087FF0BC0112319F4E6ECF0E002C0EEEC13
S1130910F0E06081812F0E948F03212F30E0F901E4
S1130920EE0FFF1F43E0220F331F4A95E1F7E20F5A
S1130930F31FEE5FFE4F8081882309F059C0112315
S113094019F4E1ECF0E002C0E9ECF0E080818068A9
S113095080834EC080911B01882319F010921801E6
S113096047C080911E0190911F01009709F440C077
S11309709091180180911A019817D0F580914A013D
S11309808823A9F40E947A0880934A0110E00BC0DE
S11309900E947508E02FF0E03197E11BF109E55B57
S11309A0FE4F80831F5F00914A01101788F3A091C6
S11309B04A01AA23E9F080911801E0911E01F09107
S11309C01F01E80FF11DA150A0934A01B0E0A55BFF
S11309D0BE4F8C918083809118018F5F80931801A2
S11309E09091180180911A01981709F0BACFB2CFEB
S11309F01F910F910895823051F0882319F4E1EC8E
S1130A00F0E002C0E9ECF0E090819F779083A82F9A
S1130A10B0E0FD01EE0FFF1F53E0AA0FBB1F5A9574
S1130A20E1F7EA0FFB1FEE5FFE4F71876087682FC7
S1130A3070E0FB01EE0FFF1F93E0660F771F9A959E
S1130A40E1F7E60FF71FEE5FFE4F1282682F70E0AA
S1130A50FB01EE0FFF1FA3E0660F771FAA95E1F7D6
S1130A60E60FF71FEE5FFE4F4483482F50E0FA0174
S1130A70EE0FFF1F63E0440F551F6A95E1F7E40F83
S1130A80F51FEE5FFE4F25838230D9F0282F30E02A
S1130A90F901EE0FFF1F43E0220F331F4A95E1F7E0
S1130AA0E20FF31FEE5FFE4F9081992351F48823E8
S1130AB019F4E1ECF0E002C0E9ECF0E08081806838
S1130AC08083089521E00E94FB0408950E9462053A
S1130AD008951F920F920FB60F920BB60F92112426
S1130AE02F933F934F935F936F937F938F939F9332
S1130AF0AF93BF93EF93FF936091C60080E00E9491
S1130B008F03FF91EF91BF91AF919F918F917F914F
S1130B106F915F914F913F912F910F900BBE0F906A
S1130B200FBE0F901F9018951F920F920FB60F9241
S1130B300BB60F9211242F933F934F935F936F93B0
S1130B407F938F939F93AF93BF93EF93FF936091A2
S1130B50CE0081E00E948F03FF91EF91BF91AF918E
S1130B609F918F917F916F915F914F913F912F91C1
S1130B700F900BBE0F900FBE0F901F9018958823F7
S1130B8019F4E1ECF0E002C0E9ECF0E0808180626D
S1130B9080830895882319F4E1ECF0E002C0E9ECC5
S1130BA0F0E080818F7D80830895282F30E0F90163
S1130BB0EE0FFF1F93E0220F331F9A95E1F7E20F28
S1130BC0F31FEE5FFE4F2681378121153105A1F118
S1130BD0282F30E0F901EE0FFF1FA3E0220F331F8F
S1130BE0AA95E1F7E20FF31FEE5FFE4F4181282F34
S1130BF030E0F901EE0FFF1F63E0220F331F6A9507
S1130C00E1F7E20FF31FEE5FFE4F93814917A0F463
S1130C10282F30E0F901EE0FFF1F43E0220F331FAE
S1130C204A95E1F7E20FF31FEE5FFE4F908199239F
S1130C3019F40E94BF0508950E94CA0508958230E0
S1130C4031F1282F30E0F901EE0FFF1F53E0220F9E
S1130C50331F5A95E1F7E20FF31FEE5FFE4F9081C9
S1130C60992349F4882319F4E1ECF0E002C0E9EC9B
S1130C70F0E098E908C0882319F4E1ECF0E002C040
S1130C80E9ECF0E098E190830E94D505789408950A
S1130C90882319F0813041F404C080E00E941F06CB
S1130CA0089581E00E941F060895A0E0B0E0EBE5FE
S1130CB0F6E00C943109D82E7A018B010E94480683
S1130CC08D2D823001F1DD2019F4C4ECD0E002C096
S1130CD0CCECD0E0C801B70128EF3FEF4FEF5FEF56
S1130CE00E94E9086050734D8E4C9E4FA8019701F5
S1130CF0E4E0220F331F441F551FEA95D1F70E94E9
S1130D00F90839832883CDB7DEB7E7E00C944D09A1
S1130D100E9455060895282F30E0F901EE0FFF1FB9
S1130D2073E0220F331F7A95E1F7E20FF31FEE5FB2
S1130D30FE4F468157814115510509F465C0282F9E
S1130D4030E0F901EE0FFF1F93E0220F331F9A9555
S1130D50E1F7E20FF31FEE5FFE4F6181282F30E0D1
S1130D60F901EE0FFF1FA3E0220F331FAA95E1F74D
S1130D70E20FF31FEE5FFE4F9381691708F044C042
S1130D80882319F4E0ECF0E002C0E8ECF0E0908194
S1130D9095FF3AC0882319F4A6ECB0E002C0AEEC8B
S1130DA0B0E0282F30E0F901EE0FFF1F63E0220FBF
S1130DB0331F6A95E1F7E20FF31FEE5FFE4F918157
S1130DC0490F511DFA0190819C93282F30E0F901BD
S1130DD0EE0FFF1F93E0220F331F9A95E1F7E20F06
S1130DE0F31FEE5FFE4F91819F5F282F30E0F901E2
S1130DF0EE0FFF1FA3E0220F331FAA95E1F7E20FC6
S1130E00F31FEE5FFE4F91830E94D50508951F9353
S1130E10182F823031F00E94CA05812F0E948B0660
S1130E201DC080911C0190911D010097B9F0309173
S1130E30170120911901321788F406C08091170117
S1130E408F5F80931701EDCF20911701820F911DC1
S1130E50FC0180810E948108882381F71F910895F5
S1130E6080E00E94070781E00E94070782E00E9459
S1130E70070780E00E94360481E00E94360482E085
S1130E800E94360408950E9430070895282F30E008
S1130E90F901EE0FFF1F93E0220F331F9A95E1F73C
S1130EA0E20FF31FEE5FFE4F77836683282F30E057
S1130EB0F901EE0FFF1FA3E0220F331FAA95E1F7FC
S1130EC0E20FF31FEE5FFE4F1182282F30E0F9018D
S1130ED0EE0FFF1F63E0220F331F6A95E1F7E20F65
S1130EE0F31FEE5FFE4F4383823011F00E94D5055D
S1130EF008950E94460708951F920F920FB60F920D
S1130F000BB60F9211242F933F934F935F936F93DC
S1130F107F938F939F93AF93BF93EF93FF9380E05F
S1130F200E948B06FF91EF91BF91AF919F918F919A
S1130F307F916F915F914F913F912F910F900BBED5
S1130F400F900FBE0F901F9018951F920F920FB61F
S1130F500F920BB60F9211242F933F934F935F93ED
S1130F606F937F938F939F93AF93BF93EF93FF936D
S1130F7081E00E948B06FF91EF91BF91AF919F9109
S1130F808F917F916F915F914F913F912F910F902E
S1130F900BBE0F900FBE0F901F9018956F9364E0D7
S1130FA06A95F1F76F910197C9F708952F928F937E
S1130FB09F932FB68091540190915501019680938F
S1130FC054019093550190E080915601891F8093BC
S1130FD0560190915C019C5F90935C0180915B0150
S1130FE080519742C0F090935C0180935B018091A3
S1130FF0570190915801019680935701909358019D
S113100090E080915901891F8093590180915A0180
S1131010891F80935A012FBE9F918F912F9018950D
S1131020CF93DF93EC0105C088EE93E00E94CE07D6
S113103021972097C9F7DF91CF9108950E94100856
S11310400895E0E7F0E080818E7F8083A0EBB0E03C
S11310508C9183608C93A1EBB0E08C91807F8C9316
S11310608C9182608C93B89A80818160808378941B
S1131070089580915D01882329F481E080935D01C6
S11310800E94210808950E943908E0E7F0E0808179
S11310908E7F8083209157013091580140915901EE
S11310A050915A01808181608083B901CA010895F9
S11310B00E94430808950E943908E0E7F0E0808127
S11310C08E7F80831092570110925801109259011B
S11310D010925A0110925C0110925B018081816030
S11310E0808308950E945B0808958FEF64E00E9456
S11310F0C408089583E867E00E94C4080E94750844
S113110008951F93182F982F9095991F9927991F29
S113111085E8891B65E00E94C408812F8F7765E00C
S11311200E94C4081F9108956F9364E06A95F1F7D3
S11311306F910197C9F70895A1E0B0E0E2EAF8E001
S11311400C943509182F249909C02C9907C02C9A9E
S11311508EE190E069830E949408698184B1806A79
S113116084B92698812F837080656C7A862B8CBD18
S113117081E012FF80E08DBD81E090E00E941008C4
S11311802196E3E00C9451090F931F93082F162F17
S11311900CB406FC04C080E064E00E949C080CB41B
S11311A004FC03C08CB580618CBD0EBD03C00CB4BF
S11311B004FE0BC00DB407FEFACF112321F0812FDA
S11311C090E00E9494088EB501C080E01F910F91B9
S11311D00895DB018F939F930E941B09BF91AF91E8
S11311E0A29F800D911DA39F900DB29F900D11247D
S11311F00895A1E21A2EAA1BBB1BFD010DC0AA1F54
S1131200BB1FEE1FFF1FA217B307E407F50720F06B
S1131210A21BB30BE40BF50B661F771F881F991FE6
S11312201A9469F760957095809590959B01AC012F
S1131230BD01CF0108950E945D09A59F900DB49F43
S1131240900DA49F800D911D112408952F923F921B
S11312504F925F926F927F928F929F92AF92BF92C2
S1131260CF92DF92EF92FF920F931F93CF93DF936E
S1131270CDB7DEB7CA1BDB0B0FB6F894DEBF0FBECB
S1131280CDBF09942A88398848885F846E847D8418
S11312908C849B84AA84B984C884DF80EE80FD801A
S11312A00C811B81AA81B981CE0FD11D0FB6F89490
S11312B0DEBF0FBECDBFED010895A29FB001B39F65
S11312C0C001A39F700D811D1124911DB29F700D4B
S10F12D0811D1124911D0895F894FFCF96
S11312DC02100000000000000000000000000000EC
S11312EC00000000000001000000000000000000ED
S11312FC3200000052583A200054583A20005265EB
S107130C616479009B
S9030000FC
