S01C000053656E67353833315F41737369676E6D656E74732E73726563BF
S11300000C9446000C9465000C9465000C946500F7
S11300100C9465000C9465000C9465000C946500C8
S11300200C9465000C9465000C9465000C946500B8
S11300300C9465000C9465000C9465000C946500A8
S11300400C9465000C9465000C9465000C94650098
S11300500C9465000C9465000C9465000C94650088
S11300600C9465000C9465000C9465000C94650078
S11300700C9465000C9465000C9465000C94650068
S11300800C9465000C9465000C94650011241FBE4B
S1130090CFEFD0E4DEBFCDBF11E0A0E0B1E0EEE0F1
S11300A0F1E000E00BBF02C007900D92A030B10751
S11300B0D9F721E0A0E0B1E001C01D92A030B20761
S11300C0E1F70E9467000C9485000C9400008BB14A
S11300D092E089278BB9519A559A5D9A82EA809366
S11300E080008DE18093810080ED97E090938700FC
S11300F080938600809186009091870096958795DD
S11101009093890080938800FFCFF894FFCF7E
S9030000FC
