:100000000C9446000C9465000C9465000C946500FB
:100010000C9465000C9465000C9465000C946500CC
:100020000C9465000C9465000C9465000C94F2022D
:100030000C9465000C9465000C9465000C946500AC
:100040000C9465000C9465000C9465000C9465009C
:100050000C9465000C9465000C9465000C9465008C
:100060000C9465000C9465000C9465000C9465007C
:100070000C9465000C9465000C9465000C9465006C
:100080000C9465000C9465000C94650011241FBE4F
:10009000CFEFD0E4DEBFCDBF11E0A0E0B1E0ECEEE9
:1000A000F6E000E00BBF02C007900D92AE33B1073F
:1000B000D9F721E0AEE3B1E001C01D92AF35B20740
:1000C000E1F70E94F8000C9474030C94000088304F
:1000D00058F491E001C0990F8A95EAF7892FAAE2B6
:1000E000B0E0EBE2F0E031C0803160F498EF980FBF
:1000F00081E001C0880F9A95EAF7A4E2B0E0E5E25A
:10010000F0E023C0883160F490EF980F81E001C0E7
:10011000880F9A95EAF7A7E2B0E0E8E2F0E015C0B0
:10012000803270F42FE130E0281B310981E001C0FA
:10013000880F2A95EAF7A1E2B0E0E2E2F0E005C01C
:1001400080E0A0E0B0E0E0E0F0E06F3F19F49081E3
:10015000982709C0662319F09081982B04C020814C
:10016000982F9095922390839C91982B9C9308951F
:1001700060E081E00E94670088EE93E00E943A030D
:1001800061E081E00E94670088EE93E00E943A03FC
:1001900061E084E10E94670084EF91E00E943A03ED
:1001A00060E084E10E94670084EF91E00C943A03E0
:1001B00061E084E10E94670088EE93E00E943A03C8
:1001C00060E084E10E94670084EF91E00C943A03C0
:1001D00060E081E00E94670088EE93E00E943A03AD
:1001E00061E081E00E94670084EF91E00C943A03A3
:1001F00082E091E00E946E020E94B8000E945702C5
:100200008CE091E00E946E0261E080E00E94910229
:100210008AE191E00E946E0284E20E94D302C82F1C
:100220000E945702C03279F40E94570260E080E0D9
:100230000E94910287E291E00E946E0280E290E0CB
:100240000E94D8000AC00E94570283E391E00E94F6
:100250006E028C2F90E00E94E80080E20E94E7028C
:10026000C82F84E00E94E7028111D6CFC111D4CFFC
:10027000C5CF81E090E06F9364E06A95F1F76F91EC
:100280000197C9F708950F931F93CF93DF9317B189
:100290003D982898299AC0E0D0E00E9439012A9A16
:1002A0000E94390106B12A980E9439012A9A0E94B7
:1002B00039012A98249605FF10C09E0140E050E0C5
:1002C0008091420190914301A0914401B091450178
:1002D000281739074A075B0700F39E0140E050E00A
:1002E0008091420190914301A0914401B091450158
:1002F000281739074A075B0728F082E390E0A0E05F
:10030000B0E004C080E395E7A0E0B0E08093420154
:1003100090934301A0934401B093450117B9DF9135
:10032000CF911F910F91089528B190E08F70907038
:10033000880F991F880F991F237C282B28B92A9A88
:100340000E9439012A980E9439010895A2E0B0E084
:10035000ECEAF1E00C944A03182F4A8369830E9467
:1003600021020E944301F7B008B1299869814A81AE
:10037000662311F0289A01C0289887B18C6387B949
:10038000413029F0812F82958F700E949401812F36
:100390008F700E949401F7B808B92296E5E00C949A
:1003A000660360E042E00E94A601089561E042E039
:1003B0000E94A601089560E041E00E94A601089510
:1003C0003D98459A80E395E7A0E0B0E08093420134
:1003D00090934301A0934401B0934501209A219A40
:1003E000229A8EE190E00E943A0383E00E94DB01B2
:1003F00086E090E00E943A0383E00E94DB0182E005
:1004000090E00E943A0383E00E94DB0182E090E0EA
:100410000E943A0382E00E94DB0182E090E00E94A9
:100420003A0388E20E94D10188E00E94D10181E074
:100430000E94D10186E00E94D1018CE00E94D1018E
:10044000089580914601882329F481E08093460134
:100450000E94E001089581E00E94D10180913E0157
:1004600090913F01009711F1A0E0B0E208C0E09147
:100470003E01F0913F01E20FF31FB083AF5F2A2FDF
:1004800030E08091000190E001976091010170E0FF
:10049000869FA001879F500D969F500D1124241711
:1004A00035072CF3109241011092400108950E94EB
:1004B0002B020895EF92FF92CF93DF93E82EE7018E
:1004C0007E01F92EE70102C00E94D601899188239E
:1004D000D9F7DF91CF91FF90EF9008950E945A02D3
:1004E0000895A5E0B0E0E7E7F2E00C944C03182F84
:1004F00080E8898380EC8A8384E98B8384ED8C8314
:10050000FE01E60FF11D8181810F6D830E94D101F3
:10051000109341016D81609340012596E3E00C94B6
:1005200068030E947102089587B1837D87B988B1FD
:100530008C6288B985E090E06F9364E06A95F1F78A
:100540006F910197C9F7089580914701882329F495
:1005500081E0809347010E94940208951F93CF93F6
:10056000DF93182F0E94A402C12FD0E026B130E003
:10057000209530952C233D2321153105B9F38AE0D0
:1005800090E00E943A0326B130E0209530952C236C
:100590003D232115310551F386B180958123DF91EB
:1005A000CF911F9108950E94AE020895A1E0B0E09E
:1005B000ECEDF2E00C944D0389830E94A40296B105
:1005C0009095898189232196E2E00C9469030E9429
:1005D000D60208956F9364E06A95F1F76F910197E1
:1005E000C9F708952F928F939F932FB6809155014D
:1005F000909156010196809355019093560190E099
:1006000080915701891F8093570190915D019C5FF4
:1006100090935D0180915C0180519742C0F090936E
:100620005D0180935C018091580190915901019680
:10063000809358019093590190E080915A01891F4D
:1006400080935A0180915B01891F80935B012FBECB
:100650009F918F912F901895CF93DF93EC0105C058
:1006600088EE93E00E94EA0221972097C9F7DF9174
:10067000CF9108950E942C0308952F923F924F929C
:100680005F926F927F928F929F92AF92BF92CF9222
:10069000DF92EF92FF920F931F93CF93DF93CDB72B
:1006A000DEB7CA1BDB0B0FB6F894DEBF0FBECDBFA3
:1006B00009942A88398848885F846E847D848C8474
:1006C0009B84AA84B984C884DF80EE80FD800C817D
:1006D0001B81AA81B981CE0FD11D0FB6F894DEBF60
:0C06E0000FBECDBFED010895F894FFCFD0
:1006EC0002104C454420426C696E6B00546F7020B4
:1006FC006F7220426F74746F6D00477265656E2067
:10070C006F722052656400477265656E204C696794
:0E071C00687400526564204C696768740000C0
:00000001FF
