S01C000053656E67353833315F41737369676E6D656E74732E73726563BF
S11300000C9446000C9465000C9465000C946500F7
S11300100C94CC050C94CC050C94CC050C94CC0518
S11300200C9465000C9465000C9465000C94EE042B
S11300300C9465000C9465000C9465000C946500A8
S11300400C9465000C9465000C9465000C94650098
S11300500C9465000C9465000C9465000C94650088
S11300600C9465000C9465000C9465000C94650078
S11300700C9465000C9465000C9465000C94650068
S11300800C9465000C9465000C94650011241FBE4B
S1130090CFEFD0E4DEBFCDBF11E0A0E0B1E0EEE4ED
S11300A0FEE000E00BBF02C007900D92AA30B1073A
S11300B0D9F721E0AAE0B1E001C01D92AC33B20748
S11300C0E1F70E9467000C9425070C9400000E943D
S11300D0910284E091E00E94A80288EE93E00E94DD
S11300E036050E94910220E040E062E083E00E9435
S11300F0BF060E94910260913A0170913B018827EA
S113010077FD8095982F0E94050388EE93E00E9466
S1130110360510923B0110923A0189E1F82EEE2443
S1130120EA94CFEFDFEF01E010E08CE20E94E304F9
S1130130D82E85FF32C020913A0130913B01409185
S1130140020150910301F49EC001F59E900D11240B
S1130150280F391F30933B0120933A0120913A0133
S113016030913B0137FF03C03195219531092F3F71
S113017031056CF02091020130910301E29EC0012F
S1130180E39E900D112490933B0180933A0180915A
S11301903A0190913B010E941F04D3FE57C061E0D5
S11301A080E00E94280360913A0170913B01882706
S11301B077FD8095982F0E94050380913A019091D4
S11301C03B01892BA1F120913A0130913B014091EF
S11301D002015091030167EE6403C001659F900D15
S11301E01124280F391F30933B0120933A01409189
S11301F002015091030120913A0130913B01429F49
S1130200C001439F900D529F900D112497FF04C08D
S113021010923B0110923A0180913A0190913B0176
S11302200E941F0484EF91E00E943605C6CF80919E
S1130230020190910301019629F4109303010093A4
S1130240020104C0D0930301C0930201D2FE2FC067
S113025080913A0190913B01409102015091030138
S113026067EE64039001659F300D1124820F931F84
S113027090933B0180933A01409102015091030114
S113028020913A0130913B01429FC001439F900D60
S1130290529F900D112497FF04C010923B011092BD
S11302A03A0180913A0190913B010E941F0460E061
S11302B080E00E9428030E94C906BC01882777FDBC
S11302C08095982F0E94050361E080E00E94280336
S11302D060913A0170913B01882777FD8095982FB2
S11302E00E94050322CF81E090E06F9364E06A9559
S11302F0F1F76F910197C9F708950F931F93CF9367
S1130300DF9317B13D982898299AC0E0D0E00E9465
S113031073012A9A0E94730106B12A980E947301FC
S11303202A9A0E9473012A98249605FF10C09E0100
S113033040E050E080910E0190910F01A0911001D6
S1130340B0911101281739074A075B0700F39E0192
S113035040E050E080910E0190910F01A0911001B6
S1130360B0911101281739074A075B0728F082E387
S113037090E0A0E0B0E004C080E395E7A0E0B0E046
S113038080930E0190930F01A0931001B09311017B
S113039017B9DF91CF911F910F91089528B190E083
S11303A08F709070880F991F880F991F237C282BBA
S11303B028B92A9A0E9473012A980E947301089509
S11303C0A2E0B0E0E6EEF1E00C94FB06182F4A83BD
S11303D069830E945B020E947D01F7B008B12998ED
S11303E069814A81662311F0289A01C0289887B14F
S11303F08C6387B9413029F0812F82958F700E94D8
S1130400CE01812F8F700E94CE01F7B808B92296D1
S1130410E5E00C94170760E042E00E94E0010895D3
S113042061E042E00E94E001089560E041E00E9442
S1130430E00108953D98459A80E395E7A0E0B0E097
S113044080930E0190930F01A0931001B0931101BA
S1130450209A219A229A8EE190E00E94360583E048
S11304600E94150286E090E00E94360583E00E9417
S1130470150282E090E00E94360583E00E94150296
S113048082E090E00E94360582E00E94150282E03C
S113049090E00E94360588E20E940B0288E00E94E8
S11304A00B0281E00E940B0286E00E940B028CE0AA
S11304B00E940B02089580911201882329F481E09F
S11304C0809312010E941A02089581E00E940B0297
S11304D080910A0190910B01009711F1A0E0B0E224
S11304E008C0E0910A01F0910B01E20FF31FB08301
S11304F0AF5F2A2F30E08091000190E00197609176
S1130500010170E0869FA001879F500D969F500DBA
S11305101124241735072CF310920D0110920C01AD
S113052008950E9465020895EF92FF92CF93DF939E
S1130530E82EE7017E01F92EE70102C00E941002B5
S113054089918823D9F7DF91CF91FF90EF90089597
S11305500E9494020895AAE0B0E0E1EBF2E00C946A
S1130560F6069B01AC011AE06AE0C62ED12CE12C00
S1130570F12C5E010894A11CB11C022FCA01B9011F
S1130580A70196010E94CC061150F501E10FF11D5F
S1130590005D922F990F892F880F880F890F081BF0
S11305A00083211531054105510539F708C0F601CD
S11305B0E10FF11D80810E9410021F5F04C06E01D3
S11305C00894C11CD11C1A3090F32A96EAE00C94CA
S11305D01207EF92FF920F931F937B018C0197FFF9
S11305E00BC010950095F094E094E11CF11C011DE2
S11305F0111D8DE20E941002C801B7010E94AB02D6
S11306001F910F91FF90EF9008950E94E9020895C1
S1130610A5E0B0E0EEE0F3E00C94FD06182F80E8CE
S1130620898380EC8A8384E98B8384ED8C83FE0147
S1130630E60FF11D8181810F6D830E940B021093DF
S11306400D016D8160930C012596E3E00C9419076C
S11306500E9408030895FC01118210821382128201
S1130660158214821682683068F489E290E09183DE
S113067080838BE290E0938382838AE290E0958387
S1130680848323C0603180F483E290E0918380838B
S113069085E290E09383828384E290E0958384836F
S11306A070E06850704011C06831C0F486E290E098
S11306B09183808388E290E09383828387E290E051
S11306C09583848370E06051704081E090E002C0C3
S11306D0880F991F6A95E2F7868308956032C0F403
S11306E080E290E09183808382E290E0938382832E
S11306F081E290E0958384832FE130E0261B310969
S113070081E090E002C0880F991F2A95E2F7868362
S11307100895FC01A481B5818681662321F09C9112
S1130720982B9C9308959C91809589238C9308958C
S1130730FC016F3F31F4A281B3818C9196818927AA
S11307400CC0A281B3818681662321F09C91982BF1
S11307509C9308959C91809589238C930895A7E098
S1130760B0E0E5EBF3E00C94FB06282FF62E8E01A7
S11307700F5F1F4FC801622F0E942B03C8016F2D0A
S11307800E949803C80161E00E9489032796E5E06E
S11307900C94170783E08093B00082E08093B1004B
S11307A0E4EBF0E0108280818093B30087E160E0A5
S11307B00E94AF0386E160E00E94AF0387E060E03F
S11307C00E94AF0386E060E00E94AF030895809129
S11307D01301882329F481E0809313010E94CA0342
S11307E00895CF93DF93EC010E94E703D7FF05C080
S11307F0D095C195DF4F91E001C090E0CF3FD10586
S113080019F014F0CFEFD0E0C093B300209731F487
S11308108091B0008F778093B0000EC08091B000BB
S113082080688093B000992319F087E161E002C0E9
S113083087E160E00E94AF03DF91CF9108950E94A9
S1130840F103089587B1837D87B988B18C6288B933
S113085085E090E06F9364E06A95F1F76F910197FA
S1130860C9F7089580911401882329F481E08093C5
S113087014010E9422040895BF92CF92DF92EF9256
S1130880FF920F931F93B82EC6B0DC2CD0940E9415
S113089070057B018C010E9432048091200181301B
S11308A021F1813038F0823009F445C0833009F0F9
S11308B081C063C02B2D30E04D2D50E04095509504
S11308C0242335232115310509F474C0CB20C092AB
S11308D01B01E0921C01F0921D0100931E01109374
S11308E01F0181E08093200165C080911C019091DB
S11308F01D01A0911E01B0911F01E81AF90A0A0B0B
S11309001B0B8FE0E816F1040105110508F452C031
S113091040911B018D2D90E080959095242F30E01F
S113092082239323009731F182E080932001C42233
S1130930C0921B013FC040911B018D2D842371F097
S113094093E09093200180931B01E0921C01F092AC
S11309501D0100931E0110931F012CC050E08B2D2C
S113096090E02D2D30E02095309582239323481775
S1130970590701F1109220011DC080911C01909132
S11309801D01A0911E01B0911F01E81AF90A0A0B7A
S11309901B0B8FE0E816F1040105110558F0809156
S11309A01B018D2119F01092200105C092E0909353
S11309B0200101C080E01F910F91FF90EF90DF9024
S11309C0CF90BF9008950E943C0408956F9364E013
S11309D06A95F1F76F910197C9F708952F928F9354
S11309E09F932FB6809122019091230101968093C9
S11309F022019093230190E080912401891F809328
S1130A00240190912A019C5F90932A0180912901ED
S1130A1080519742C0F090932A01809329018091DC
S1130A20250190912601019680932501909326013A
S1130A3090E080912701891F8093270180912801EC
S1130A40891F809328012FBE9F918F912F90189515
S1130A50CF93DF93EC0105C088EE93E00E94E60497
S1130A6021972097C9F7DF91CF9108950E94280517
S1130A700895E0E7F0E080818E7F8083A0EBB0E012
S1130A808C9183608C93A1EBB0E08C91807F8C93EC
S1130A908C9182608C93B89A8081816080837894F1
S1130AA0089580912B01882329F481E080932B0100
S1130AB00E94390508950E945105E0E7F0E0808125
S1130AC08E7F80832091250130912601409127015A
S1130AD050912801808181608083B901CA01089501
S1130AE00E945B050895A7E0B0E0E9E7F5E00C9407
S1130AF0FE06682FCE0101960E942B0389819A81FC
S1130B008032910531F480916B009F81892B809311
S1130B106B0089819A818332910531F480916C0054
S1130B209F81892B80936C0089819A8186329105FB
S1130B3031F480916D009F81892B80936D008981B0
S1130B409A818932910531F4809173009F81892BB8
S1130B5080937300ED81FE8190818F81809589233C
S1130B6080838FEF809368002796E2E00C941A0745
S1130B70A7E0B0E0EEEBF5E00C94FE06682FCE01A2
S1130B8001960E942B03E981FA8190818F81892348
S1130B902796E2E00C941A071F920F920FB60F9259
S1130BA00BB60F921124FF920F931F932F933F9331
S1130BB04F935F936F937F938F939F93AF93BF9361
S1130BC0EF93FF93809132010E94B805F82E809133
S1130BD034010E94B805182F809133010E94B80592
S1130BE0082F809135010E94B8054091370160912A
S1130BF036015091390190913801F41651F0209149
S1130C003001309131012F5F3F4F309331012093F8
S1130C103001061751F020913001309131012150FB
S1130C2030403093310120933001151751F0209159
S1130C302E0130912F012F5F3F4F30932F012093CE
S1130C402E01891751F020912E0130912F0121504E
S1130C50304030932F0120932E01EF2DF0E07727C1
S1130C6067FD7095E617F70759F0602F70E0552778
S1130C7047FD50956417750719F021E020932D0165
S1130C80412F50E0292F332727FD30954217530772
S1130C9069F0482F50E020913901332727FD309522
S1130CA04217530719F091E090932C01F09236010A
S1130CB0009337011093380180933901FF91EF912C
S1130CC0BF91AF919F918F917F916F915F914F9160
S1130CD03F912F911F910F91FF900F900BBE0F909A
S1130CE00FBE0F901F901895A3E0B0E0EAE7F6E07E
S1130CF00C94FE06809332016093330140933401D7
S1130D0020933501F8942B834A8369830E947305E9
S1130D106981862F0E9473054A81842F0E9473057E
S1130D202B81822F0E9473051092310110923001A1
S1130D3010922F0110922E0110922D0110922C016D
S1130D40809132010E94B80580933601809133016D
S1130D500E94B80580933701809134010E94B80540
S1130D6080933801809135010E94B8058093390140
S1130D708FEF8BBB78942396E2E00C941A070E94C1
S1130D8074060895F894809130019091310178941B
S1130D9008950E94C2060895A1E21A2EAA1BBB1B45
S1130DA0FD010DC0AA1FBB1FEE1FFF1FA217B30733
S1130DB0E407F50720F0A21BB30BE40BF50B661F49
S1130DC0771F881F991F1A9469F76095709580950D
S1130DD090959B01AC01BD01CF0108952F923F92E4
S1130DE04F925F926F927F928F929F92AF92BF9237
S1130DF0CF92DF92EF92FF920F931F93CF93DF93E3
S1130E00CDB7DEB7CA1BDB0B0FB6F894DEBF0FBE3F
S1130E10CDBF09942A88398848885F846E847D848C
S1130E208C849B84AA84B984C884DF80EE80FD808E
S1130E300C811B81AA81B981CE0FD11D0FB6F89404
S1110E40DEBF0FBECDBFED010895F894FFCFC5
S10D0E4E0210FFFF52656164790091
S9030000FC
