S01C000053656E67353833315F41737369676E6D656E74732E73726563BF
S11300000C9451000C9470000C9470000C947000CB
S11300100C9470000C9470000C9470000C947F008D
S11300200C9470000C9470000C9470000C94C50C2B
S11300300C9470000C9412010C9470000C9428061B
S11300400C9470000C9470000C9470000C9470006C
S11300500C94C40A0C946B0C0C9470000C947000F7
S11300600C9470000C9470000C9470000C9470004C
S11300700C94EF0A0C94940C0C9470000C94700083
S11300800C9470000C9470000C9470003E67333232
S11300903E3E633332006364696E6F7073757858E3
S11300A05B0011241FBECFEFD0E4DEBFCDBF11E053
S11300B0A0E0B1E0E8E7FDE200E00BBF02C007907A
S11300C00D92AC3BB107D9F722E0ACEBB1E001C033
S11300D01D92A634B207E1F70E94C3000C94BA162D
S11300E00C94000083E88093B00082E08093B10018
S11300F01092B3005F98479A579A3F9A08951F92B7
S11301000F920FB60F9211242F933F934F935F9347
S11301108F939F9331E04B9B30E021E04A9B20E09A
S11301204091EF015091F001341749F08091F401AE
S11301309091F50101969093F5018093F4012517B0
S113014049F08091F4019091F50101979093F501A4
S11301508093F401351729F0241719F081E0809376
S1130160F1013093F0012093EF0181E08093F601D7
S11301709F918F915F914F913F912F910F900FBE5F
S11301800F901F9018958CE890E00E948B060E94B7
S113019072008DE78093B30080ED97E00E940D0D0F
S11301A01092B30078940E94AC070E94320C0E9413
S11301B007038091F6018823C1F360E080E00E9488
S11301C02C086091E7017091E8018091E901909118
S11301D0EA010E94090860E084E00E942C08609112
S11301E0EB017091EC018091ED019091EE010E9480
S11301F0550E0E94090861E080E00E942C0860917D
S1130200F9017091FA018091FB019091FC010E9427
S1130210550E882777FD8095982F0E940908109223
S1130220F601C3CF1F920F920FB60F9211240BB693
S11302300F928F929F92AF92BF92CF92DF92EF92E2
S1130240FF922F933F934F935F936F937F938F937B
S11302509F93AF93BF93CF93DF93EF93FF9381E08B
S11302608093F601C091F401D091F501CE0160EDC7
S113027078E00E94CF0FAB01662757FD6095762F7B
S11302804093E7015093E8016093E9017093EA0118
S11302908090420190904301A0904401B0904501A8
S11302A08091F2019091F301BE01681B790B8827BC
S11302B077FD8095982F0E94880E6B017C01C50103
S11302C0B4010E94860E20E030E04AE754E40E9424
S11302D0ED0D9B01AC01C701B6010E94ED0D20E0BC
S11302E030E040E752E40E943C0F20E030E04DE073
S11302F055E40E94ED0D9B01AC016093EB017093FA
S1130300EC018093ED019093EE01D093F301C0933F
S1130310F20160E070E08AEF92E40E94840D6B01C8
S11303207C010E94550E9B0177FF04C022273327CE
S1130330261B370BB901882777FD8095982F0E94DB
S1130340880E2DEC3CEC4CEC5DE30E94380F181643
S113035054F5609142017091430180914401909160
S113036045010E94860E20E030E04AE754E40E94F2
S1130370ED0D9B01AC01C701B6010E943C0F9B012E
S1130380AC016091E3017091E4018091E5019091E9
S1130390E6010E94850D6093E3017093E40180936C
S11303A0E5019093E6012DEC3CEC4CE85FE3C701DA
S11303B0B6010E943C0F6B017C0120E030E040E27A
S11303C051E46091E3017091E4018091E501909121
S11303D0E6010E943C0F9B01AC01C701B6010E94DB
S11303E0850D20E030E0A9010E94850D6093F9019C
S11303F07093FA018093FB019093FC016091F901E1
S11304007091FA018091FB019091FC0120E030E0B1
S11304104FE753E40E94380F181664F480E090E02C
S1130420AFE7B3E48093F9019093FA01A093FB0141
S1130430B093FC016091F9017091FA018091FB0184
S11304409091FC0120E030E04FE753EC0E94E90D6D
S113045087FF0CC080E090E0AFE7B3EC8093F90134
S11304609093FA01A093FB01B093FC01FF91EF91EB
S1130470DF91CF91BF91AF919F918F917F916F91B8
S11304805F914F913F912F91FF90EF90DF90CF902C
S1130490BF90AF909F908F900F900BBE0F900FBEA8
S11304A00F901F90189582E00E943609811103C0B5
S11304B00E94320CF8CF0895462FBC0182E00E94BE
S11304C0680C0C9453020F931F93CF93DF93CDB713
S11304D0DEB7A3970FB6F894DEBF0FBECDBF409131
S11304E04601509147019E012D5D3F4F452BC1F0C0
S11304F03F932F9322E831E03F932F939F938F9361
S11305000E94B61060E080E00E942C088BA11F922C
S11305108F938EE791E09F938F930E9475100FC085
S1130520AE014F5D5F4F5F934F933F932F9325E849
S113053031E03F932F939F938F930E94B6100FB691
S1130540F894DEBF0FBECDBF2BA1263549F168F468
S1130550203531F128F4243419F12C3409F113C075
S11305608EEA820F8230E0F00EC02037C9F028F402
S11305702436B1F02C36A1F006C0223720F02537FE
S113058078F0263769F060E270E08BE891E00E9431
S11305905C026CE170E081E691E00E945C022CC098
S11305A080914601909147018E010F5F1F4F892B67
S11305B031F08091F8018F938091F70103C08AA1F3
S11305C08F9389A18F931F922F938FEA91E09F932A
S11305D08F931F930F930E948710BC01C8010E9440
S11305E05C020FB6F894DEBF0FBECDBF8091F70159
S11305F09091F8010E942309A3960FB6F894DEBFE8
S11306000FBECDBFDF91CF911F910F910895CF936E
S1130610DF93CDB7DEB7A0970FB6F894DEBF0FBE59
S1130620CDBF82E00E94260990911F022091FD0116
S11306303091FE018917D9F0A1E0B0E0AC0FBD1FE5
S1130640A20FB31FE92FF0E0E150FE4F80818C939D
S11306502F5F3F4F3093FE012093FD019F3119F42A
S113066010921F02DECF9F5F90931F02DACF2115F5
S11306703105C1F08091460190914701892B19F40D
S11306802130310559F0E1E0F0E0EC0FFD1FE20FFD
S1130690F31F1082CE0101960E9463021092FE01A4
S11306A01092FD01A0960FB6F894DEBF0FBECDBF29
S11306B0DF91CF9108959091C101E091BD01F09136
S11306C0BE01992311F0849101C08081282F215407
S11306D02A3110F4805E0895803271F42091BD01B6
S11306E03091BE01A9014F5F5F4F5093BE0140930B
S11306F0BD012115310509F70895EF92FF92CF93BB
S1130700DF930E945B03C0E0D0E01BC09E01220F78
S1130710331F93E0CC0FDD1F9A95E1F7C20FD31F6F
S1130720992787FD9095C80FD91FE0978091BD0147
S11307309091BE0101969093BE018093BD010E94E9
S11307405B03982F90539A3008F3CE01DF91CF9139
S1130750FF90EF90089510926F0083E280938000E1
S113076081E1809381001092820080E197E290936E
S113077089008093880010928B0010928A00549A0A
S1130780789408958091BC01882329F481E08093B2
S1130790BC010E94AB030895A0E0B0E0E2EDF3E0F9
S11307A00C9435108C015B01E42E0E94C20310925C
S11307B0000117FF04C01F77AAE0FA2E02C0FF242D
S11307C0F394C0908100DD2428EFC222DD2488EC5C
S11307D03F2D389FC001112480179107D8F4E801F8
S11307E067E20131160710F0C0E1D7E2BE01769549
S11307F0679580E090E06058794687469F4F9E0158
S113080040E050E00E94E30F890181E090E0C82AB3
S1130810D92A2CC098E2F99E902D112480E0892ECB
S1130820E4014E01982EE4018016910608F4E801D3
S1130830BE01769567959E0140E050E08F2D8A3089
S113084039F480E090E0605E734481449F4F06C0B9
S113085080E090E060537D4E8C4E9F4F0E94E30FEA
S1130860890152E0852E912CC828D9282F2D2A30B1
S113087039F4CE0105966AE070E00E94BB0FEB01EB
S113088033E0C83ED30779F0BE0180E090E09501E3
S113089040E050E00E949F0F28EE33E040E050E03B
S11308A00E94051001C0950110926F00C092810052
S11308B0109389000093880040918800509189002A
S11308C06E2D603108F06FE080E190E0861B9109A5
S11308D0BA0102C0769567958A95E2F770938B000A
S11308E060938A003093C4012093C30186B38FEFD1
S11308F086BB81E080936F00CDB7DEB7ECE00C944B
S113090051109B018F3F11F0442329F488EE93E0AA
S1130910B90140E049C0813130F0582F5051503670
S113092018F05FE501C050E0852F6CE00E94AF0F26
S1130930A82FB0E0E4EFFFEFAE9FB001AF9F700DC2
S1130940BE9F700D1124650F711D6C30710540F44C
S1130950FB01EE0FFF1FE65FFE4F6081718102C055
S113096060E070E0873081F0082E02C0660F771FC8
S11309700A94E2F7823028F0CB0105966AE070E031
S11309800CC0605070480BC0CB01B6E0880F991FB3
S1130990BA95E1F7029665E070E00E94BB0F403122
S11309A008F04FE0CB01B9010E94CC030895A0E008
S11309B0B0E0EDEDF4E00C943410B09001018091BE
S11309C0BF01882361F06091C001662341F08FEF7D
S11309D070E040E00E9481041092C00134C1C0EC78
S11309E0DDE5AA24A39414E0712E00ED17E0B4E031
S11309F0EB2EF12CA4EFCA2EA1E0DA2EFFE08F2E0D
S1130A00912C0E945B032091BD013091BE012F5FA8
S1130A103F4F3093BE012093BD018636F1F18736F6
S1130A20CCF4823609F4AFC083367CF48E3349F1BA
S1130A308F333CF4813209F487C08C3309F09BC0B6
S1130A4022C0813609F097C09BC0843601F18536F7
S1130A500CF51BC08F3609F447C0803744F48C363C
S1130A6011F18D3661F1873609F085C019C08437DC
S1130A7009F444C0863709F460C0823709F07BC0AA
S1130A8039C0B394BECFBA94BCCFEE2435C0EE24A3
S1130A9082E07BC0EE2484E078C0EE2485E075C05B
S1130AA0EE2487E072C00E947D03BC019093030191
S1130AB080930201809104019091050137C00E9446
S1130AC05B038C3619F41092BF0104C0A092BF01DD
S1130AD01092C0018091BD019091BE010196909346
S1130AE0BE018093BD018DCF0E947D03B82E8093FB
S1130AF0010187CFEE24E39480E047C00E947D0388
S1130B00BC01CE010E94BB0FCB01880F991F53E09B
S1130B10660F771F5A95E1F7860F971F909305018B
S1130B208093040160910201709103010E94BB0F44
S1130B30709307016093060164CF0E947D03909334
S1130B400901809308015DCF7092010110930501A2
S1130B5000930401F0920301E0920201D092070194
S1130B60C092060190920901809208011092BF017F
S1130B7044E0B42E46CF1092BE011092BD0163C072
S1130B80EE2489E002C0EE248BE09CE0B99EB02CF8
S1130B901124B80E0E945B038B3211F08332B9F436
S1130BA08091BD019091BE0101969093BE01809306
S1130BB0BD01B394EFCF8091BD019091BE01019628
S1130BC09093BE018093BD01BA940E945B038D3261
S1130BD091F3C0910601D09107018153883058F4F4
S1130BE0C0910401D09105010E947D03BC01CE0196
S1130BF00E94BB0FEB018E010BC08091BD0190914F
S1130C00BE0101969093BE018093BD01C00FD11F18
S1130C10169507950E945B038E3279F38091BF018C
S1130C20882339F0CE01969587958093C001C81B1F
S1130C30D109EE2011F0BB24BA948B2DBE01409152
S1130C4008010E948104CDB7DEB7EDE00C9450108A
S1130C501F920F920FB60F920BB60F9211242F937F
S1130C603F934F935F936F937F938F939F93AF9330
S1130C70BF93EF93FF938091C3019091C4019C01B2
S1130C80215030403093C4012093C301009711F5E3
S1130C9010926F00789480918100887F81608093A6
S1130CA0810080E197E290938900809388001092FC
S1130CB08B0010928A0081E0809300018091BD0135
S1130CC09091BE01009731F08091C201882311F404
S1130CD00E94D704FF91EF91BF91AF919F918F91A3
S1130CE07F916F915F914F913F912F910F900BBE28
S1130CF00F900FBE0F901F90189510926F00909355
S1130D00BE018093BD0181E08093C1011092C001B6
S1130D100E94D70408950E947D06089581E090E022
S1130D206F9364E06A95F1F76F910197C9F708959D
S1130D300F931F93CF93DF9317B13D982898299A67
S1130D40C0E0D0E00E948E062A9A0E948E0606B168
S1130D502A980E948E062A9A0E948E062A98249621
S1130D6005FF10C09E0140E050E08091C9019091C0
S1130D70CA01A091CB01B091CC01281739074A07C9
S1130D805B0700F39E0140E050E08091C90190911F
S1130D90CA01A091CB01B091CC01281739074A07A9
S1130DA05B0728F082E390E0A0E0B0E004C080E3B9
S1130DB095E7A0E0B0E08093C9019093CA01A093A5
S1130DC0CB01B093CC0117B9DF91CF911F910F9153
S1130DD0089528B190E08F709070880F991F880F44
S1130DE0991F237C282B28B92A9A0E948E062A98B8
S1130DF00E948E060895A2E0B0E0E1E0F7E00C94D2
S1130E003C10182F4A8369830E9476070E94980633
S1130E10F7B008B1299869814A81662311F0289AAC
S1130E2001C0289887B18C6387B9413029F0812F9C
S1130E3082958F700E94E906812F8F700E94E906C7
S1130E40F7B808B92296E5E00C94581060E042E047
S1130E500E94FB06089561E042E00E94FB060895AB
S1130E6060E041E00E94FB0608953D98459A80E3C6
S1130E7095E7A0E0B0E08093C9019093CA01A093E4
S1130E80CB01B093CC01209A219A229A8EE190E072
S1130E900E940D0D83E00E94300786E090E00E94DE
S1130EA00D0D83E00E94300782E090E00E940D0D5A
S1130EB083E00E94300782E090E00E940D0D82E002
S1130EC00E94300782E090E00E940D0D88E20E94AB
S1130ED0260788E00E94260781E00E94260786E014
S1130EE00E9426078CE00E94260708958091CD0178
S1130EF0882329F481E08093CD010E943507089569
S1130F0081E00E9426078091C5019091C601009757
S1130F1011F1A0E0B0E208C0E091C501F091C60172
S1130F20E20FF31FB083AF5F2A2F30E080912201DC
S1130F3090E001976091230170E0869FA001879F54
S1130F40500D969F500D1124241735072CF3109241
S1130F50C8011092C70108950E9480070895AAE06D
S1130F60B0E0E5EBF7E00C9437109B01AC011AE01C
S1130F706AE0C62ED12CE12CF12C5E010894A11C50
S1130F80B11C022FCA01B901A70196010E94E30F07
S1130F901150F501E10FF11D005D922F990F892F7A
S1130FA0880F880F890F081B00832115310541051F
S1130FB0510539F708C0F601E10FF11D80810E9447
S1130FC02B071F5F04C06E010894C11CD11C1A308A
S1130FD090F32A96EAE00C945310EF92FF920F9349
S1130FE01F937B018C0197FF0BC010950095F09423
S1130FF0E094E11CF11C011D111D8DE20E942B07E0
S1131000C801B7010E94AF071F910F91FF90EF90A5
S113101008950E94ED070895A5E0B0E0E2E1F8E04C
S11310200C943E10182F80E8898380EC8A8384E92D
S11310308B8384ED8C83FE01E60FF11D8181810F8A
S11310406D830E9426071093C8016D816093C701C8
S11310502596E3E00C945A100E940C080895FC01B4
S113106011821082138212821582148216826830D1
S113107068F489E290E0918380838BE290E093832B
S113108082838AE290E09583848323C0603180F474
S113109083E290E09183808385E290E0938382836E
S11310A084E290E09583848370E06850704011C0BE
S11310B06831C0F486E290E09183808388E290E016
S11310C09383828387E290E09583848370E0605108
S11310D0704081E090E002C0880F991F6A95E2F7A2
S11310E0868308956032C0F480E290E09183808327
S11310F082E290E09383828381E290E0958384830B
S11311002FE130E0261B310981E090E002C0880F16
S1131110991F2A95E2F786830895FC01A481B5817D
S11311208681662321F09C91982B9C9308959C9131
S1131130809589238C930895FC016F3F31F4A2813B
S1131140B3818C91968189270CC0A281B381868159
S1131150662321F09C91982B9C9308959C918095F3
S113116089238C930895A7E0B0E0E9EBF8E00C94B0
S11311703C10282FF62E8E010F5F1F4FC801622FDF
S11311800E942F08C8016F2D0E949C08C80161E0CD
S11311900E948D082796E5E00C94581083E0809314
S11311A0B00082E08093B100E4EBF0E01082808133
S11311B08093B30087E160E00E94B30886E160E0B9
S11311C00E94B30887E060E00E94B30886E060E014
S11311D00E94B30808958091CE01882329F481E008
S11311E08093CE010E94CE080895CF93DF93EC0143
S11311F00E94EB08D7FF05C0D095C195DF4F91E061
S113120001C090E0CF3FD10519F014F0CFEFD0E04A
S1131210C093B300209731F48091B0008F7780930E
S1131220B0000EC08091B00080688093B000992314
S113123019F087E161E002C087E160E00E94B30831
S1131240DF91CF9108950E94F5080895282F30E08A
S1131250F901EE0FFF1F43E0220F331F4A95E1F718
S1131260E20FF31FEC5DFE4F82810895282F30E0DA
S1131270F901EE0FFF1F73E0220F331F7A95E1F798
S1131280E20FF31FEC5DFE4F4181282F30E0F9019E
S1131290EE0FFF1F53E0220F331F5A95E1F7E20FC1
S11312A0F31FEC5DFE4F81E09381491380E00895C4
S11312B0282F30E0F901EE0FFF1FB3E0220F331F98
S11312C0BA95E1F7E20FF31FEC5DFE4F40855185BF
S11312D04115510509F452C0282F30E0F901EE0FF1
S11312E0FF1F73E0220F331F7A95E1F7E20FF31F1C
S11312F0EC5DFE4F7281282F30E0F901EE0FFF1FE5
S1131300B3E0220F331FBA95E1F7E20FF31FEC5D50
S1131310FE4F9481791790F5282F30E0F901EE0FF4
S1131320FF1F73E0220F331F7A95E1F7E20FF31FDB
S1131330EC5DFE4F9281490F511DFA016083282F05
S113134030E0F901EE0FFF1F53E0220F331F5A95CF
S1131350E1F7E20FF31FEC5DFE4F92819F5F282FB0
S113136030E0F901EE0FFF1FB3E0220F331FBA95EF
S1131370E1F7E20FF31FEC5DFE4F9283282F30E07C
S1131380F901EE0FFF1F73E0220F331F7A95E1F787
S1131390E20FF31FEC5DFE4F4281282F30E0F9018C
S11313A0EE0FFF1F53E0220F331F5A95E1F7E20FB0
S11313B0F31FEC5DFE4F9481491701F5282F30E0AF
S11313C0F901EE0FFF1F93E0220F331F9A95E1F707
S11313D0E20FF31FEC5DFE4F9581992379F0282FDE
S11313E030E0F901EE0FFF1FB3E0220F331FBA956F
S11313F0E1F7E20FF31FEC5DFE4F128208950F93A5
S11314001F93182F823009F475C0882319F4E1EC76
S1131410F0E002C0E9ECF0E080818F778083812FD7
S113142090E0FC01EE0FFF1F03E0880F991F0A955F
S1131430E1F7E80FF91FEC5DFE4F80859185009779
S1131440A9F1212F30E0F901EE0FFF1FA3E0220FD5
S1131450331FAA95E1F7E20FF31FEC5DFE4F928173
S1131460212F30E0F901EE0FFF1F63E0220F331F3D
S11314706A95E1F7E20FF31FEC5DFE4F8481981744
S1131480A8F4112319F4E0ECF0E002C0E8ECF0E079
S1131490808187FF0BC0112319F4E6ECF0E002C051
S11314A0EEECF0E06081812F0E945809212F30E09A
S11314B0F901EE0FFF1F43E0220F331F4A95E1F7B6
S11314C0E20FF31FEC5DFE4F8081882309F059C0C1
S11314D0112319F4E1ECF0E002C0E9ECF0E08081C2
S11314E0806880834EC080913D01882319F010925A
S11314F03A0147C08091400190914101009709F45D
S113150040C090913A0180913C019817D0F58091A8
S1131510CF018823A9F40E94150D8093CF0110E018
S11315200BC00E94100DE02FF0E03197E11BF10990
S1131530E053FE4F80831F5F0091CF01101788F3A3
S1131540A091CF01AA23E9F080913A01E0914001F2
S1131550F0914101E80FF11DA150A093CF01B0E03B
S1131560A053BE4F8C91808380913A018F5F80930A
S11315703A0190913A0180913C01981709F0BACF51
S1131580B2CF1F910F9108951F920F920FB60F9231
S11315900BB60F9211242F933F934F935F936F9346
S11315A07F938F939F93AF93BF93EF93FF93609138
S11315B0C60080E00E945809FF91EF91BF91AF915E
S11315C09F918F917F916F915F914F913F912F9157
S11315D00F900BBE0F900FBE0F901F9018951F9287
S11315E00F920FB60F920BB60F9211242F933F93C5
S11315F04F935F936F937F938F939F93AF93BF9317
S1131600EF93FF936091CE0081E00E945809FF910F
S1131610EF91BF91AF919F918F917F916F915F9166
S11316204F913F912F910F900BBE0F900FBE0F90D3
S11316301F901895882319F4E1ECF0E002C0E9EC5E
S1131640F0E08081806280830895882319F4E1ECBE
S1131650F0E002C0E9ECF0E080818F7D80830895A2
S1131660282F30E0F901EE0FFF1F93E0220F331F04
S11316709A95E1F7E20FF31FEC5DFE4F2681378167
S113168021153105A1F1282F30E0F901EE0FFF1FDC
S1131690A3E0220F331FAA95E1F7E20FF31FEC5DDD
S11316A0FE4F4181282F30E0F901EE0FFF1F63E068
S11316B0220F331F6A95E1F7E20FF31FEC5DFE4F33
S11316C093814917A0F4282F30E0F901EE0FFF1F92
S11316D043E0220F331F4A95E1F7E20FF31FEC5D5D
S11316E0FE4F9081992319F40E941A0B08950E94C9
S11316F0250B0895282F30E0F901EE0FFF1F73E04A
S1131700220F331F7A95E1F7E20FF31FEC5DFE4FD2
S1131710468157814115510509F465C0282F30E0F1
S1131720F901EE0FFF1F93E0220F331F9A95E1F7A3
S1131730E20FF31FEC5DFE4F6181282F30E0F901C9
S1131740EE0FFF1FA3E0220F331FAA95E1F7E20F6C
S1131750F31FEC5DFE4F9381691708F044C08823A2
S113176019F4E0ECF0E002C0E8ECF0E0908195FFC1
S11317703AC0882319F4A6ECB0E002C0AEECB0E0A5
S1131780282F30E0F901EE0FFF1F63E0220F331F13
S11317906A95E1F7E20FF31FEC5DFE4F9181490F6B
S11317A0511DFA0190819C93282F30E0F901EE0F2E
S11317B0FF1F93E0220F331F9A95E1F7E20FF31F07
S11317C0EC5DFE4F91819F5F282F30E0F901EE0F11
S11317D0FF1FA3E0220F331FAA95E1F7E20FF31FC7
S11317E0EC5DFE4F91830E94300B08951F93182FD8
S11317F0823031F00E94250B812F0E947A0B1DC08C
S113180080913E0190913F010097B9F030913901E8
S113181020913B01321788F406C0809139018F5F13
S113182080933901EDCF20913901820F911DFC0184
S113183080810E941C0D882381F71F91089580E008
S11318400E94F60B81E00E94F60B82E00E94F60BE8
S113185080E00E94FF0981E00E94FF0982E00E946B
S1131860FF0908950E941F0C0895282F30E0F90104
S1131870EE0FFF1F93E0220F331F9A95E1F7E20F5B
S1131880F31FEC5DFE4F77836683282F30E0F90168
S1131890EE0FFF1FA3E0220F331FAA95E1F7E20F1B
S11318A0F31FEC5DFE4F1182282F30E0F901EE0F9B
S11318B0FF1F63E0220F331F6A95E1F7E20FF31F66
S11318C0EC5DFE4F4383823011F00E94300B08958B
S11318D00E94350C08951F920F920FB60F920BB60B
S11318E00F9211242F933F934F935F936F937F93A2
S11318F08F939F93AF93BF93EF93FF9380E00E94E6
S11319007A0BFF91EF91BF91AF919F918F917F914E
S11319106F915F914F913F912F910F900BBE0F905C
S11319200FBE0F901F9018951F920F920FB60F9233
S11319300BB60F9211242F933F934F935F936F93A2
S11319407F938F939F93AF93BF93EF93FF9381E024
S11319500E947A0BFF91EF91BF91AF919F918F916C
S11319607F916F915F914F913F912F910F900BBE9B
S11319700F900FBE0F901F9018956F9364E06A95B7
S1131980F1F76F910197C9F708952F928F939F9361
S11319902FB68091D9019091DA0101968093D901F3
S11319A09093DA0190E08091DB01891F8093DB0141
S11319B09091E1019C5F9093E1018091E00180515D
S11319C09742C0F09093E1018093E0018091DC01A3
S11319D09091DD0101968093DC019093DD0190E00C
S11319E08091DE01891F8093DE018091DF01891FD0
S11319F08093DF012FBE9F918F912F901895CF93E5
S1131A00DF93EC0105C088EE93E00E94BD0C2197A2
S1131A102097C9F7DF91CF9108950E94FF0C089594
S1131A208FEF64E00E945F0D089583E867E00E94F1
S1131A305F0D0E94100D08951F93182F982F9095F5
S1131A40991F9927991F85E8891B65E00E945F0DFE
S1131A50812F8F7765E00E945F0D1F9108956F932A
S1131A6064E06A95F1F76F910197C9F70895A1E0D1
S1131A70B0E0EDE3FDE00C943E10182F249909C06A
S1131A802C9907C02C9A8EE190E069830E942F0D57
S1131A90698184B1806A84B92698812F83708065B6
S1131AA06C7A862B8CBD81E012FF80E08DBD81E0D5
S1131AB090E00E94FF0C2196E3E00C945A100F93DF
S1131AC01F93082F162F0CB406FC04C080E064E0BA
S1131AD00E94370D0CB404FC03C08CB580618CBD2E
S1131AE00EBD03C00CB404FE0BC00DB407FEFACF48
S1131AF0112321F0812F90E00E942F0D8EB501C09B
S1131B0080E01F910F9108955058BB27AA270ED04B
S1131B1075C166D130F06BD120F031F49F3F11F4E0
S1131B201EF45BC10EF4E095E7FB51C1E92F77D1B8
S1131B3080F3BA17620773078407950718F071F4E6
S1131B409EF58FC10EF4E0950B2EBA2FA02D0B013C
S1131B50B90190010C01CA01A0011124FF27591BEE
S1131B6099F0593F50F4503E68F11A16F040A22FF4
S1131B70232F342F4427585FF3CF46953795279565
S1131B80A795F0405395C9F77EF41F16BA0B620B64
S1131B90730B840BBAF09150A1F0FF0FBB1F661FAB
S1131BA0771F881FC2F70EC0BA0F621F731F841FEE
S1131BB048F4879577956795B795F7959E3F08F014
S1131BC0B3CF9395880F08F09927EE0F97958795D3
S1131BD00895D9D008F481E008950CD00FC107D13D
S1131BE040F0FED030F021F45F3F19F0F0C0511105
S1131BF039C1F3C014D198F39923C9F35523B1F330
S1131C00951B550BBB27AA2762177307840738F067
S1131C109F5F5F4F220F331F441FAA1FA9F333D0C6
S1131C200E2E3AF0E0E830D091505040E695001C7A
S1131C30CAF729D0FE2F27D0660F771F881FBB1F36
S1131C40261737074807AB07B0E809F0BB0B802D10
S1131C50BF01FF2793585F4F2AF09E3F510568F05C
S1131C60B6C000C15F3FECF3983EDCF386957795F0
S1131C706795B795F7959F5FC9F7880F911D96955E
S1131C80879597F90895E1E0660F771F881FBB1FBA
S1131C90621773078407BA0720F0621B730B840B67
S1131CA0BA0BEE1F88F7E095089504D06894B1113B
S1131CB0D9C00895BCD088F09F5790F0B92F9927C8
S1131CC0B751A0F0D1F0660F771F881F991F1AF043
S1131CD0BA95C9F712C0B13081F0C3D0B1E008950C
S1131CE0C0C0672F782F8827B85F39F0B93FCCF38D
S1131CF0869577956795B395D9F73EF49095809539
S1131D00709561957F4F8F4F9F4F0895E89409C058
S1131D1097FB3EF490958095709561957F4F8F4F1A
S1131D209F4F9923A9F0F92F96E9BB279395F69530
S1131D30879577956795B795F111F8CFFAF4BB0FAE
S1131D4011F460FF1BC06F5F7F4F8F4F9F4F16C012
S1131D50882311F096E911C0772321F09EE8872F9C
S1131D60762F05C0662371F096E8862F70E060E058
S1131D702AF09A95660F771F881FDAF7880F9695D1
S1131D80879597F90895990F0008550FAA0BE0E875
S1131D90FEEF16161706E807F907C0F01216130629
S1131DA0E407F50798F0621B730B840B950B39F469
S1131DB00A2661F0232B242B252B21F408950A26CF
S1131DC009F4A140A6958FEF811D811D089597F90F
S1131DD09F6780E870E060E008959FEF80EC0895CD
S1131DE000240A94161617061806090608950024F6
S1131DF00A9412161306140605060895092E039470
S1131E00000C11F4882352F0BB0F40F4BF2B11F4E3
S1131E1060FF04C06F5F7F4F8F4F9F4F089557FD42
S1131E209058440F551F59F05F3F71F04795880F44
S1131E3097FB991F61F09F3F79F0879508951216DB
S1131E4013061406551FF2CF4695F1DF08C0161687
S1131E5017061806991FF1CF869571056105089438
S1131E600895E894BB2766277727CB0197F908954F
S1131E708ADF08F48FEF08950BD0C0CFB1DF28F0CC
S1131E80B6DF18F0952309F0A2CFA7CF1124EACF2B
S1131E90C6DFA0F3959FD1F3950F50E0551F629FC5
S1131EA0F001729FBB27F00DB11D639FAA27F00DAF
S1131EB0B11DAA1F649F6627B00DA11D661F829FD6
S1131EC02227B00DA11D621F739FB00DA11D621FBB
S1131ED0839FA00D611D221F749F3327A00D611DD8
S1131EE0231F849F600D211D822F762F6A2F1124BA
S1131EF09F5750408AF0E1F088234AF0EE0FFF1F0D
S1131F00BB1F661F771F881F91505040A9F79E3F43
S1131F10510570F05CCFA6CF5F3FECF3983EDCF345
S1131F20869577956795B795F795E7959F5FC1F780
S1131F30FE2B880F911D9695879597F90895DB01DF
S1131F408F939F930E942410BF91AF91A29F800D05
S1131F50911DA39F900DB29F900D11240895991B7C
S1131F6079E004C0991F961708F0961B881F7A958C
S1131F70C9F780950895AA1BBB1B51E107C0AA1F8E
S1131F80BB1FA617B70710F0A61BB70B881F991F16
S1131F905A95A9F780959095BC01CD01089597FBBA
S1131FA0072E16F4009407D077FD09D00E94BB0FCA
S1131FB007FC05D03EF4909581959F4F0895709548
S1131FC061957F4F0895A1E21A2EAA1BBB1BFD0148
S1131FD00DC0AA1FBB1FEE1FFF1FA217B307E40704
S1131FE0F50720F0A21BB30BE40BF50B661F771F5C
S1131FF0881F991F1A9469F760957095809590953C
S11320009B01AC01BD01CF010895052E97FB1EF481
S113201000940E941C1057FD07D00E94E30F07FC98
S113202003D04EF40C941C10509540953095219596
S11320303F4F4F4F5F4F08959095809570956195F0
S11320407F4F8F4F9F4F08950E946610A59F900D5C
S1132050B49F900DA49F800D911D112408952F927B
S11320603F924F925F926F927F928F929F92AF9224
S1132070BF92CF92DF92EF92FF920F931F93CF9371
S1132080DF93CDB7DEB7CA1BDB0B0FB6F894DEBF08
S11320900FBECDBF09942A88398848885F846E842E
S11320A07D848C849B84AA84B984C884DF80EE8078
S11320B0FD800C811B81AA81B981CE0FD11D0FB681
S11320C0F894DEBF0FBECDBFED010895A29FB0010D
S11320D0B39FC001A39F700D811D1124911DB29F58
S11320E0700D811D1124911D0895CF93DF93CDB7F9
S11320F0DEB7FE01359661917191AF018091420284
S1132100909143020E94D810DF91CF9108950F93CC
S11321101F93CF93DF93CDB7DEB72E970FB6F89406
S1132120DEBF0FBECDBF0D891E8986E08C831A8366
S113213009838FEF9FE79E838D83AE01475E5F4FD8
S11321406F89788DCE0101960E94D810EF81F885B1
S1132150E00FF11F10822E960FB6F894DEBF0FBE6B
S1132160CDBFDF91CF911F910F910895CF93DF934E
S1132170CDB7DEB72E970FB6F894DEBF0FBECDBF36
S113218085E08C838B899C899A838983AE01495E1F
S11321905F4F6D897E89CE0101960E9470142E9640
S11321A00FB6F894DEBF0FBECDBFDF91CF91089577
S11321B02F923F924F925F926F927F928F929F9253
S11321C0AF92BF92CF92DF92EF92FF920F931F9341
S11321D0CF93DF93CDB7DEB72C970FB6F894DEBF5D
S11321E00FBECDBF7C016B018A01FC0117821682F0
S11321F0838181FFBDC1CE0101964C01F70193811A
S1132200F60193FD859193FF81916F01882309F471
S1132210ABC1853239F493FD859193FF81916F01B0
S1132220853229F4B70190E00E940E16E7CF512CB5
S1132230312C20E02032A0F48B3269F030F480326B
S113224059F0833269F420612CC08D3239F0803327
S113225039F4216026C02260246023C0286021C094
S113226027FD27C030ED380F3A3078F426FF06C03A
S1132270FAE05F9E300D1124532E13C08AE0389E7D
S1132280300D1124332E20620CC08E3221F426FD31
S11322906BC1206406C08C3611F4206802C08836F5
S11322A041F4F60193FD859193FF81916F018111B2
S11322B0C1CF982F9F7D9554933028F40C5F1F4F06
S11322C0FFE3F9830DC0833631F0833771F0833532
S11322D009F05BC022C0F801808189830E5F1F4F23
S11322E044244394512C540115C03801F2E06F0E7C
S11322F0711CF801A080B18026FF03C0652D70E039
S113230002C06FEF7FEFC5012C870E94C5152C0119
S113231083012C852F77222E17C03801F2E06F0E2F
S1132320711CF801A080B18026FF03C0652D70E008
S113233002C06FEF7FEFC5012C870E94BA152C01F4
S11323402C852068222E830123FC1BC0832D90E062
S113235048165906B0F4B70180E290E00E940E16C8
S11323603A94F4CFF50127FC859127FE81915F0112
S1132370B70190E00E940E1631103A94F1E04F1A22
S113238051084114510471F7E5C0843611F08936BF
S113239039F5F80127FF07C060817181828193813B
S11323A00C5F1F4F08C060817181882777FD80957D
S11323B0982F0E5F1F4F2F76B22E97FF09C090956E
S11323C08095709561957F4F8F4F9F4F2068B22EF7
S11323D02AE030E0A4010E945916A82EA81844C08F
S11323E0853729F42F7EB22E2AE030E025C0F22F63
S11323F0F97FBF2E8F36C1F018F4883579F0B4C058
S1132400803719F0883721F0AFC02F2F2061B22E0A
S1132410B4FE0DC08B2D8460B82E09C024FF0AC001
S11324209F2F9660B92E06C028E030E005C020E159
S113243030E002C020E132E0F801B7FE07C060815D
S11324407181828193810C5F1F4F06C0608171810D
S113245080E090E00E5F1F4FA4010E945916A82E41
S1132460A818FB2DFF77BF2EB6FE0BC02B2D2E7F99
S1132470A51450F4B4FE0AC0B2FC08C02B2D2E7E65
S113248005C07A2C2B2D03C07A2C01C0752C24FF97
S11324900DC0FE01EA0DF11D8081803311F4297E07
S11324A009C022FF06C07394739404C0822F8678F7
S11324B009F0739423FD13C020FF06C05A2C731433
S11324C018F4530C5718732C731468F4B70180E292
S11324D090E02C870E940E1673942C85F5CF73140C
S11324E010F4371801C0312C24FF12C0B70180E367
S11324F090E02C870E940E162C8522FF17C021FF26
S113250003C088E590E002C088E790E0B7010CC002
S1132510822F867859F021FD02C080E201C08BE24F
S113252027FD8DE2B70190E00E940E16A51438F441
S1132530B70180E390E00E940E165A94F7CFAA9454
S1132540F401EA0DF11D8081B70190E00E940E169E
S1132550A110F5CF332009F451CEB70180E290E009
S11325600E940E163A94F6CFF7018681978102C035
S11325708FEF9FEF2C960FB6F894DEBF0FBECDBF42
S1132580DF91CF911F910F91FF90EF90DF90CF904B
S1132590BF90AF909F908F907F906F905F904F907F
S11325A03F902F90089520FD09C0FC0123FD05C034
S11325B022FF02C07383628351834083089544FDE4
S11325C010C046FD10C0DB01FC01AA0FBB1FEE1FAB
S11325D0FF1F1094D1F76A0F7B1F8E1F9F1F31E0DE
S11325E003C033E001C034E0660F771F881F991FD2
S11325F03150D1F7620F711D811D911D08950F9304
S11326001F93CF93DF938C01C8010E94D015EC0176
S113261097FD08C00E94A715892BB1F7B801CE0118
S11326200E944016CE01DF91CF911F910F91089522
S11326308F929F92AF92CF92DF92EF92FF920F937D
S11326401F93CF93DF93EC01A62E4A01022F0E9421
S1132650D015AC0155274B32510521F04D325105AF
S113266051F40068AA9411F480E067C0CE010E947E
S1132670D01597FDF9CF102F1D7F302F307301F542
S11326808033F1F4FF24FA94FA0C09F442C0CE0129
S11326900E94D01597FD3DC0382F3F7D383551F449
S11326A01264AA94AA94A9F1CE010E94D01597FFAE
S11326B007C02FC006FF02C0126001C01261AF2C18
S11326C0C12CD12C760120ED280F283080F014FF86
S11326D004C0BE010E94401619C02A3040F016FF03
S11326E0F8CF2F7D3FEE320F363098F72750412F29
S11326F0C701B6010E94DF126B017C011260AA942B
S113270059F0CE010E94D01597FFDDCF11FD04C012
S1132710ABCFC12CD12C760117FF08C0F094E09404
S1132720D094C094C11CD11CE11CF11C212FB70111
S1132730A601C4010E94D31281E0DF91CF911F91C1
S11327400F91FF90EF90DF90CF90AF909F908F907C
S113275008957F928F929F92AF92BF92CF92DF9211
S1132760EF92FF920F931F93CF93DF93CDB7DEB712
S1132770A1970FB6F894DEBF0FBECDBF5C017A01FE
S11327808E010F5F1F4F680180E2D8011D928A9568
S1132790E9F7F501738040E050E0812CB0E0912C22
S11327A081E090E0F90173FCA59173FEA1918F0182
S11327B07A2F9F01A11103C080E090E07DC0AE3567
S11327C019F44115510559F1E92DF0E0E417F50725
S11327D03CF4AD3569F1AD3219F4BB2319F103C0F2
S11327E0B11101C08A2EE72FE695E695E69586019C
S11327F00E0F111DF801A72FA7708C0102C0000F46
S1132800111FAA95E2F7D801B081BA2BB0837815CD
S113281059F0781510F47F5FE6CF7150E4CF992416
S1132820939403C0B1E001C0B0E04F5F5F4FBACFF3
S1132830BB2319F08E8180628E83911003C099248A
S1132840939415C0F601CE018196208120952193A1
S1132850E817F907D1F7F3CFE114F10429F0D70110
S11328608C93F70131967F01615001F1912CC501E0
S113287069A30E94D01569A197FD16C0282F26953B
S113288026952695F601E20FF11D208130E0AC017A
S11328904770552702C0359527954A95E2F720FDE4
S11328A0DBCFB5010E944016911086CFE114F104EC
S11328B011F0D7011C92C801A1960FB6F894DEBF9F
S11328C00FBECDBFDF91CF911F910F91FF90EF907D
S11328D0DF90CF90BF90AF909F908F907F9008959E
S11328E04F925F927F928F929F92AF92BF92CF92BC
S11328F0DF92EF92FF920F931F93CF93DF931F9278
S1132900CDB7DEB78C012B017A01FC011782168248
S1132910A12CF801D380F201D3FC8591D3FE8191DF
S1132920382F2F01882309F4FCC090E039830E94DA
S1132930A7153981892B21F0C8010E94FF12E9CF24
S1132940353241F4F201D3FC3591D3FE31912F019C
S1132950353269F4C80139830E94D015398197FD55
S1132960DEC03817B1F2B8010E944016DAC03A321C
S113297041F4D3FC3591D3FE31912F01BB24B394A0
S113298001C0B12C712C20ED230F2A3090F4FB2DC3
S1132990F260BF2E672D70E080E090E040E20E947C
S11329A0DF12762EF201D3FC3591D3FE31912F0143
S11329B0EACFB1FE03C0711003C0B3C077247A9488
S11329C0383619F03C3661F014C0F201D3FC35916D
S11329D0D3FE31912F01383661F4FB2DF860BF2E00
S11329E08B2D8460B82EF201D3FC3591D3FE319146
S11329F02F01332309F495C0632F70E086E990E03A
S1132A0039830E94AF153981892B09F48AC0B0FC3F
S1132A1007C0F701C080D180C70102967C0102C0C3
S1132A20C12CD12C3E3651F4F8014681578160E027
S1132A3070E02B2DC6010E94D3126BCF3336A1F464
S1132A40B1FC02C077247394C8010E94D01597FD8D
S1132A5066C0C114D10429F0F6018083C601019631
S1132A606C017A9489F757C03B3559F49201A60159
S1132A70672DC8010E94A9132C01009709F04BC0CF
S1132A8045C0C80139830E94FF12398197FD47C0B0
S1132A903F3669F128F4343631F1393679F12BC0F7
S1132AA0333769F03537F9F026C0C114D10429F061
S1132AB0F6018082C60101966C017A9471F0C80116
S1132AC00E94D0154C0197FD08C00E94A715892BC0
S1132AD061F3B801C4010E944016C114D104D9F0B5
S1132AE0F601108218C0FB2DF062BF2E07C08B2D9B
S1132AF08061B82E03C09B2D9064B92E2B2DA601A6
S1132B00672DC8010E941813811105C0F801838143
S1132B10807329F406C0B0FCFCCEA394FACEAA209C
S1132B2019F08A2D90E002C08FEF9FEF0F90DF9194
S1132B30CF911F910F91FF90EF90DF90CF90BF90B6
S1132B40AF909F908F907F905F904F9008959111D8
S1132B500EC1803219F089508550D0F70895FC01D8
S1132B600590061621F00020D9F7C0010895319789
S1132B70CF010895FC010590615070400110D8F711
S1132B80809590958E0F9F1F0895FC0161507040B1
S1132B9001900110D8F7809590958E0F9F1F08958E
S1132BA0CF93DF93EC012B8120FF33C026FF0AC0B3
S1132BB02F7B2B838E819F8101969F838E838A81B5
S1132BC090E029C022FF0FC0E881F9818081992714
S1132BD087FD9095009719F420622B831AC03196D3
S1132BE0F983E8830EC0EA85FB85099597FF09C040
S1132BF02B81019611F480E101C080E2822B8B834A
S1132C0008C02E813F812F5F3F4F3F832E8399273A
S1132C1002C08FEF9FEFDF91CF9108950F931F9321
S1132C20CF93DF93182F092FEB018B8181FD03C014
S1132C308FEF9FEF20C082FF10C04E815F812C81F7
S1132C403D81421753077CF4E881F9819F012F5F8E
S1132C503F4F39832883108306C0E885F985812F87
S1132C600995892B29F72E813F812F5F3F4F3F83A1
S1132C702E83812F902FDF91CF911F910F91089573
S1132C80FB01238120FF12C026FD10C08F3F3FEFC0
S1132C90930761F082832F7D20642383268137810B
S1132CA02150310937832683992708958FEF9FEFA9
S1132CB00895FA01AA27283051F1203181F1E894CE
S1132CC06F936E7F6E5F7F4F8F4F9F4FAF4FB1E01B
S1132CD03ED0B4E03CD0670F781F891F9A1FA11D16
S1132CE0680F791F8A1F911DA11D6A0F711D811D17
S1132CF0911DA11D20D009F468943F912AE0269FDC
S1132D0011243019305D3193DEF6CF010895462F3A
S1132D104770405D4193B3E00FD0C9F7F6CF462F1B
S1132D204F70405D4A3318F0495D31FD4052419384
S1132D3002D0A9F7EACFB4E0A69597958795779541
S1132D406795BA95C9F700976105710508959B01C8
S1132D50AC010A2E06945795479537952795BA9551
S1132D60C9F7620F731F841F951FA01D089599272B
S10B2D7088270895F894FFCFB1
S1132D7801040400D007F4010F009C01B501CF0140
S1132D88EA0107022602470269028E02B502DE0240
S1132D980A03021000000000000000000000000008
S1132DA80000000000000000010000000000000016
S1132DB800000A000000010055534220536572695F
S1132DC8616C20496E697469616C697A65640D0A7D
S1132DD8000D4D656E753A207B756A737D204F52E0
S1132DE8207B66727D203C696E743E3A2000476FF2
S1132DF87420256300256320256400436F6D6D618D
S1132E086E64206E6F74207265636F676E697A658D
S1132E18642E20547279207B554A537D0D0A004F45
S10F2E28703A256320563A25640D0A0018
S9030000FC
